{
	"data": {
		"bytecode": {
			"linkReferences": {},
			"object": "608060405234801561001057600080fd5b50615b0e80620000216000396000f3fe608060405234801561001057600080fd5b50600436106101c45760003560e01c80636c143862116100f9578063b49dbfc211610097578063cb89cdfd11610071578063cb89cdfd146105a7578063d93ed80f146105d9578063dd78c85714610609578063fbcc29351461063a576101c4565b8063b49dbfc214610525578063ba649f4e14610541578063c30f4a2514610576576101c4565b8063a849f279116100d3578063a849f2791461048a578063a9ede870146104a6578063ac6d31a2146104d7578063ac785e39146104f3576101c4565b80636c14386214610409578063880c5b30146104275780639170d0341461045a576101c4565b806348b57344116101665780635af1438a116101405780635af1438a1461035c5780635c37a007146103785780636252e65c146103a95780636b66cc2c146103d9576101c4565b806348b57344146102f15780634ba4ee741461030d578063597cf6f014610340576101c4565b806331c68d1b116101a257806331c68d1b146102315780633682001e1461026157806338d20ee814610291578063470c96ce146102c1576101c4565b806315d05be7146101c95780632a598cc6146101e55780632b5f134a14610201575b600080fd5b6101e360048036038101906101de9190614bb8565b61066d565b005b6101ff60048036038101906101fa9190614bb8565b61075e565b005b61021b60048036038101906102169190614c14565b61084f565b6040516102289190614d1b565b60405180910390f35b61024b60048036038101906102469190614c14565b6108c8565b6040516102589190614d1b565b60405180910390f35b61027b60048036038101906102769190614c14565b610960565b6040516102889190614d1b565b60405180910390f35b6102ab60048036038101906102a69190614c14565b6109d9565b6040516102b89190614d1b565b60405180910390f35b6102db60048036038101906102d69190614c14565b610a52565b6040516102e89190614e7e565b60405180910390f35b61030b60048036038101906103069190614ea0565b610b4c565b005b61032760048036038101906103229190614c14565b610bd3565b6040516103379493929190615054565b60405180910390f35b61035a600480360381019061035591906150b5565b6112fc565b005b61037660048036038101906103719190614bb8565b6116a7565b005b610392600480360381019061038d9190614ea0565b611916565b6040516103a0929190615140565b60405180910390f35b6103c360048036038101906103be9190614c14565b611a0a565b6040516103d09190614e7e565b60405180910390f35b6103f360048036038101906103ee9190614c14565b611b04565b6040516104009190614d1b565b60405180910390f35b610411611b7d565b60405161041e9190615186565b60405180910390f35b610441600480360381019061043c9190614c14565b611b86565b6040516104519493929190615054565b60405180910390f35b610474600480360381019061046f9190614c14565b612353565b6040516104819190614d1b565b60405180910390f35b6104a4600480360381019061049f91906151a1565b6123cc565b005b6104c060048036038101906104bb9190614c14565b6125d4565b6040516104ce929190615292565b60405180910390f35b6104f160048036038101906104ec9190614ea0565b612700565b005b61050d600480360381019061050891906152c9565b612787565b60405161051c939291906152f6565b60405180910390f35b61053f600480360381019061053a91906150b5565b61298c565b005b61055b600480360381019061055691906152c9565b613609565b60405161056d96959493929190615342565b60405180910390f35b610590600480360381019061058b9190614c14565b61396c565b60405161059e929190615292565b60405180910390f35b6105c160048036038101906105bc9190614c14565b613a98565b6040516105d0939291906153c6565b60405180910390f35b6105f360048036038101906105ee9190614c14565b614113565b6040516106009190614d1b565b60405180910390f35b610623600480360381019061061e9190614c14565b61418c565b604051610631929190615292565b60405180910390f35b610654600480360381019061064f9190614c14565b6142d8565b6040516106649493929190615054565b60405180910390f35b60016000838152602001908152602001600020600501816040516020016106949190615474565b6040516020818303038152906040529080600181540180825580915050600190039060005260206000200160009091909190915090816106d491906156a6565b50600160008381526020019081526020016000206006014290806001815401808255809150506001900390600052602060002001600090919091909150556004816040516107229190615778565b90815260200160405180910390206002018290806001815401808255809150506001900390600052602060002001600090919091909150555050565b600160008381526020019081526020016000206005018160405160200161078591906157b5565b6040516020818303038152906040529080600181540180825580915050600190039060005260206000200160009091909190915090816107c591906156a6565b50600160008381526020019081526020016000206006014290806001815401808255809150506001900390600052602060002001600090919091909150556003816040516108139190615778565b90815260200160405180910390206003018290806001815401808255809150506001900390600052602060002001600090919091909150555050565b60606003826040516108619190615778565b90815260200160405180910390206008018054806020026020016040519081016040528092919081815260200182805480156108bc57602002820191906000526020600020905b8154815260200190600101908083116108a8575b50505050509050919050565b6060600380836040516108db9190615778565b90815260200160405180910390206006016040516108f9919061585e565b908152602001604051809103902060080180548060200260200160405190810160405280929190818152602001828054801561095457602002820191906000526020600020905b815481526020019060010190808311610940575b50505050509050919050565b60606003826040516109729190615778565b90815260200160405180910390206007018054806020026020016040519081016040528092919081815260200182805480156109cd57602002820191906000526020600020905b8154815260200190600101908083116109b9575b50505050509050919050565b60606002826040516109eb9190615778565b9081526020016040518091039020600301805480602002602001604051908101604052809291908181526020018280548015610a4657602002820191906000526020600020905b815481526020019060010190808311610a32575b50505050509050919050565b6060600482604051610a649190615778565b9081526020016040518091039020600401805480602002602001604051908101604052809291908181526020016000905b82821015610b41578382906000526020600020018054610ab4906154c9565b80601f0160208091040260200160405190810160405280929190818152602001828054610ae0906154c9565b8015610b2d5780601f10610b0257610100808354040283529160200191610b2d565b820191906000526020600020905b815481529060010190602001808311610b1057829003601f168201915b505050505081526020019060010190610a95565b505050509050919050565b80600383604051610b5d9190615778565b90815260200160405180910390206006019081610b7a91906156a6565b50600481604051610b8b9190615778565b908152602001604051809103902060040182908060018154018082558091505060019003906000526020600020016000909190919091509081610bce91906156a6565b505050565b610bdb614a01565b6060806060600080600387604051610bf39190615778565b908152602001604051809103902060040180549050905060008167ffffffffffffffff811115610c2657610c25614a8d565b5b604051908082528060200260200182016040528015610c5957816020015b6060815260200190600190039081610c445790505b50905060008267ffffffffffffffff811115610c7857610c77614a8d565b5b604051908082528060200260200182016040528015610cab57816020015b6060815260200190600190039081610c965790505b50905060008367ffffffffffffffff811115610cca57610cc9614a8d565b5b604051908082528060200260200182016040528015610cf85781602001602082028036833780820191505090505b50905060008467ffffffffffffffff811115610d1757610d16614a8d565b5b604051908082528060200260200182016040528015610d455781602001602082028036833780820191505090505b50905060008567ffffffffffffffff811115610d6457610d63614a8d565b5b604051908082528060200260200182016040528015610d9757816020015b6060815260200190600190039081610d825790505b50905060008667ffffffffffffffff811115610db657610db5614a8d565b5b604051908082528060200260200182016040528015610de957816020015b6060815260200190600190039081610dd45790505b509050600097505b868810156112c7576001600060038f604051610e0d9190615778565b90815260200160405180910390206004018a81548110610e3057610e2f615875565b5b906000526020600020015481526020019081526020016000206001018054610e57906154c9565b80601f0160208091040260200160405190810160405280929190818152602001828054610e83906154c9565b8015610ed05780601f10610ea557610100808354040283529160200191610ed0565b820191906000526020600020905b815481529060010190602001808311610eb357829003601f168201915b5050505050868981518110610ee857610ee7615875565b5b60200260200101819052506001600060038f604051610f079190615778565b90815260200160405180910390206004018a81548110610f2a57610f29615875565b5b906000526020600020015481526020019081526020016000206002018054610f51906154c9565b80601f0160208091040260200160405190810160405280929190818152602001828054610f7d906154c9565b8015610fca5780601f10610f9f57610100808354040283529160200191610fca565b820191906000526020600020905b815481529060010190602001808311610fad57829003601f168201915b5050505050858981518110610fe257610fe1615875565b5b60200260200101819052506001600060038f6040516110019190615778565b90815260200160405180910390206004018a8154811061102457611023615875565b5b906000526020600020015481526020019081526020016000206008016000015484898151811061105757611056615875565b5b6020026020010181815250506001600060038f6040516110779190615778565b90815260200160405180910390206004018a8154811061109a57611099615875565b5b9060005260206000200154815260200190815260200160002060030180546110c1906154c9565b80601f01602080910402602001604051908101604052809291908181526020018280546110ed906154c9565b801561113a5780601f1061110f5761010080835404028352916020019161113a565b820191906000526020600020905b81548152906001019060200180831161111d57829003601f168201915b505050505082898151811061115257611151615875565b5b602002602001018190525060038d60405161116d9190615778565b908152602001604051809103902060040188815481106111905761118f615875565b5b90600052602060002001548389815181106111ae576111ad615875565b5b6020026020010181815250506001600060038f6040516111ce9190615778565b90815260200160405180910390206004018a815481106111f1576111f0615875565b5b906000526020600020015481526020019081526020016000206004018054611218906154c9565b80601f0160208091040260200160405190810160405280929190818152602001828054611244906154c9565b80156112915780601f1061126657610100808354040283529160200191611291565b820191906000526020600020905b81548152906001019060200180831161127457829003601f168201915b50505050508189815181106112a9576112a8615875565b5b602002602001018190525087806112bf906158d3565b985050610df1565b6040518060600160405280878152602001868152602001838152508385839b509b509b509b5050505050505050509193509193565b6040518060400160405280600881526020017f616363657074656400000000000000000000000000000000000000000000000081525060016000858152602001908152602001600020600301908161135491906156a6565b50600160008481526020019081526020016000206005018260405160200161137c9190615941565b6040516020818303038152906040529080600181540180825580915050600190039060005260206000200160009091909190915090816113bc91906156a6565b50600160008481526020019081526020016000206006014290806001815401808255809150506001900390600052602060002001600090919091909150558160016000858152602001908152602001600020600701908161141d91906156a6565b5060038160405161142e9190615778565b90815260200160405180910390206007018390806001815401808255809150506001900390600052602060002001600090919091909150556004826040516114769190615778565b908152602001604051809103902060050183908060018154018082558091505060019003906000526020600020016000909190919091505560005b6003826040516114c19190615778565b9081526020016040518091039020600401805490508110156116a157836003836040516114ee9190615778565b9081526020016040518091039020600401828154811061151157611510615875565b5b90600052602060002001540361168e576003826040516115319190615778565b908152602001604051809103902060040160016003846040516115549190615778565b9081526020016040518091039020600401805490506115739190615967565b8154811061158457611583615875565b5b906000526020600020015460038360405161159f9190615778565b908152602001604051809103902060040182815481106115c2576115c1615875565b5b9060005260206000200181905550836003836040516115e19190615778565b908152602001604051809103902060040160016003856040516116049190615778565b9081526020016040518091039020600401805490506116239190615967565b8154811061163457611633615875565b5b90600052602060002001819055506003826040516116529190615778565b90815260200160405180910390206004018054806116735761167261599b565b5b600190038181906000526020600020016000905590556116a1565b8080611699906158d3565b9150506114b1565b50505050565b60016000838152602001908152602001600020600501816040516020016116ce91906159f0565b60405160208183030381529060405290806001815401808255809150506001900390600052602060002001600090919091909150908161170e91906156a6565b506001600083815260200190815260200160002060060142908060018154018082558091505060019003906000526020600020016000909190919091505560038160405161175c9190615778565b908152602001604051809103902060040182908060018154018082558091505060019003906000526020600020016000909190919091505560005b6003826040516117a79190615778565b90815260200160405180910390206003018054905081101561191157826003836040516117d49190615778565b908152602001604051809103902060030182815481106117f7576117f6615875565b5b9060005260206000200154036118fe576003826040516118179190615778565b9081526020016040518091039020600301600160038460405161183a9190615778565b9081526020016040518091039020600301805490506118599190615967565b8154811061186a57611869615875565b5b90600052602060002001546003836040516118859190615778565b908152602001604051809103902060030182815481106118a8576118a7615875565b5b90600052602060002001819055506003826040516118c69190615778565b90815260200160405180910390206003018054806118e7576118e661599b565b5b600190038181906000526020600020016000905590555b8080611909906158d3565b915050611797565b505050565b6060806004846040516119299190615778565b908152602001604051809103902060050160038460405161194a9190615778565b9081526020016040518091039020600701818054806020026020016040519081016040528092919081815260200182805480156119a657602002820191906000526020600020905b815481526020019060010190808311611992575b50505050509150808054806020026020016040519081016040528092919081815260200182805480156119f857602002820191906000526020600020905b8154815260200190600101908083116119e4575b50505050509050915091509250929050565b6060600382604051611a1c9190615778565b9081526020016040518091039020600501805480602002602001604051908101604052809291908181526020016000905b82821015611af9578382906000526020600020018054611a6c906154c9565b80601f0160208091040260200160405190810160405280929190818152602001828054611a98906154c9565b8015611ae55780601f10611aba57610100808354040283529160200191611ae5565b820191906000526020600020905b815481529060010190602001808311611ac857829003601f168201915b505050505081526020019060010190611a4d565b505050509050919050565b6060600482604051611b169190615778565b9081526020016040518091039020600201805480602002602001604051908101604052809291908181526020018280548015611b7157602002820191906000526020600020905b815481526020019060010190808311611b5d575b50505050509050919050565b60008054905090565b611b8e614a01565b6060806060600080600287604051611ba69190615778565b908152602001604051809103902060010180549050905060008167ffffffffffffffff811115611bd957611bd8614a8d565b5b604051908082528060200260200182016040528015611c0c57816020015b6060815260200190600190039081611bf75790505b50905060008267ffffffffffffffff811115611c2b57611c2a614a8d565b5b604051908082528060200260200182016040528015611c5e57816020015b6060815260200190600190039081611c495790505b50905060008367ffffffffffffffff811115611c7d57611c7c614a8d565b5b604051908082528060200260200182016040528015611cab5781602001602082028036833780820191505090505b50905060008467ffffffffffffffff811115611cca57611cc9614a8d565b5b604051908082528060200260200182016040528015611cf85781602001602082028036833780820191505090505b50905060008567ffffffffffffffff811115611d1757611d16614a8d565b5b604051908082528060200260200182016040528015611d4a57816020015b6060815260200190600190039081611d355790505b50905060008667ffffffffffffffff811115611d6957611d68614a8d565b5b604051908082528060200260200182016040528015611d9c57816020015b6060815260200190600190039081611d875790505b509050600097505b8688101561231e576001600060028f604051611dc09190615778565b90815260200160405180910390206001018a81548110611de357611de2615875565b5b90600052602060002001548152602001908152602001600020600301604051602001611e0f919061585e565b60405160208183030381529060405280519060200120604051602001611e3490615a62565b604051602081830303815290604052805190602001200361230b576001600060028f604051611e639190615778565b90815260200160405180910390206001018a81548110611e8657611e85615875565b5b906000526020600020015481526020019081526020016000206001018054611ead906154c9565b80601f0160208091040260200160405190810160405280929190818152602001828054611ed9906154c9565b8015611f265780601f10611efb57610100808354040283529160200191611f26565b820191906000526020600020905b815481529060010190602001808311611f0957829003601f168201915b5050505050868981518110611f3e57611f3d615875565b5b60200260200101819052506001600060028f604051611f5d9190615778565b90815260200160405180910390206001018a81548110611f8057611f7f615875565b5b906000526020600020015481526020019081526020016000206007018054611fa7906154c9565b80601f0160208091040260200160405190810160405280929190818152602001828054611fd3906154c9565b80156120205780601f10611ff557610100808354040283529160200191612020565b820191906000526020600020905b81548152906001019060200180831161200357829003601f168201915b505050505081898151811061203857612037615875565b5b60200260200101819052506001600060028f6040516120579190615778565b90815260200160405180910390206001018a8154811061207a57612079615875565b5b9060005260206000200154815260200190815260200160002060020180546120a1906154c9565b80601f01602080910402602001604051908101604052809291908181526020018280546120cd906154c9565b801561211a5780601f106120ef5761010080835404028352916020019161211a565b820191906000526020600020905b8154815290600101906020018083116120fd57829003601f168201915b505050505085898151811061213257612131615875565b5b60200260200101819052506001600060028f6040516121519190615778565b90815260200160405180910390206001018a8154811061217457612173615875565b5b90600052602060002001548152602001908152602001600020600301805461219b906154c9565b80601f01602080910402602001604051908101604052809291908181526020018280546121c7906154c9565b80156122145780601f106121e957610100808354040283529160200191612214565b820191906000526020600020905b8154815290600101906020018083116121f757829003601f168201915b505050505082898151811061222c5761222b615875565b5b602002602001018190525060028d6040516122479190615778565b9081526020016040518091039020600101888154811061226a57612269615875565b5b906000526020600020015484898151811061228857612287615875565b5b6020026020010181815250506001600060028f6040516122a89190615778565b90815260200160405180910390206001018a815481106122cb576122ca615875565b5b90600052602060002001548152602001908152602001600020600801600001548389815181106122fe576122fd615875565b5b6020026020010181815250505b8780612316906158d3565b985050611da4565b6040518060600160405280878152602001868152602001838152508484839b509b509b509b5050505050505050509193509193565b60606003826040516123659190615778565b90815260200160405180910390206003018054806020026020016040519081016040528092919081815260200182805480156123c057602002820191906000526020600020905b8154815260200190600101908083116123ac575b50505050509050919050565b82600160008054815260200190815260200160002060010190816123f091906156a6565b50816001600080548152602001908152602001600020600201908161241591906156a6565b50806001600080548152602001908152602001600020600401908161243a91906156a6565b506040518060400160405280600781526020017f70656e64696e67000000000000000000000000000000000000000000000000008152506001600080548152602001908152602001600020600301908161249491906156a6565b50600160008054815260200190815260200160002060050180600181540180825580915050600190039060005260206000200160006040518060400160405280600c81526020017f73656e7420746f204444535400000000000000000000000000000000000000008152509091909150908161251091906156a6565b506002816040516125219190615778565b908152602001604051809103902060010160005490806001815401808255809150506001900390600052602060002001600090919091909150554260016000805481526020019081526020016000206008016000018190555060016000805481526020019081526020016000206006014290806001815401808255809150506001900390600052602060002001600090919091909150556000808154809291906125ca906158d3565b9190505550505050565b6060806002836040516125e79190615778565b90815260200160405180910390206002016002846040516126089190615778565b9081526020016040518091039020600101818054612625906154c9565b80601f0160208091040260200160405190810160405280929190818152602001828054612651906154c9565b801561269e5780601f106126735761010080835404028352916020019161269e565b820191906000526020600020905b81548152906001019060200180831161268157829003601f168201915b50505050509150808054806020026020016040519081016040528092919081815260200182805480156126f057602002820191906000526020600020905b8154815260200190600101908083116126dc575b5050505050905091509150915091565b806002836040516127119190615778565b9081526020016040518091039020600201908161272e91906156a6565b5060038160405161273f9190615778565b90815260200160405180910390206005018290806001815401808255809150506001900390600052602060002001600090919091909150908161278291906156a6565b505050565b60608060606001600085815260200190815260200160002060030160016000868152602001908152602001600020600501600160008781526020019081526020016000206006018280546127da906154c9565b80601f0160208091040260200160405190810160405280929190818152602001828054612806906154c9565b80156128535780601f1061282857610100808354040283529160200191612853565b820191906000526020600020905b81548152906001019060200180831161283657829003601f168201915b5050505050925081805480602002602001604051908101604052809291908181526020016000905b8282101561292757838290600052602060002001805461289a906154c9565b80601f01602080910402602001604051908101604052809291908181526020018280546128c6906154c9565b80156129135780601f106128e857610100808354040283529160200191612913565b820191906000526020600020905b8154815290600101906020018083116128f657829003601f168201915b50505050508152602001906001019061287b565b5050505091508080548060200260200160405190810160405280929190818152602001828054801561297857602002820191906000526020600020905b815481526020019060010190808311612964575b505050505090509250925092509193909250565b6040518060400160405280600881526020017f61636365707465640000000000000000000000000000000000000000000000008152506001600085815260200190815260200160002060030190816129e491906156a6565b506001600084815260200190815260200160002060050181604051602001612a0c9190615941565b604051602081830303815290604052908060018154018082558091505060019003906000526020600020016000909190919091509081612a4c91906156a6565b5080600160008581526020019081526020016000206007019081612a7091906156a6565b5060016000848152602001908152602001600020600601429080600181540180825580915050600190039060005260206000200160009091909190915055600281604051612abe9190615778565b9081526020016040518091039020600301839080600181540180825580915050600190039060005260206000200160009091909190915055600080600091505b600384604051612b0e9190615778565b908152602001604051809103902060030180549050821015612cee5784600385604051612b3b9190615778565b90815260200160405180910390206003018381548110612b5e57612b5d615875565b5b906000526020600020015403612cdb57600384604051612b7e9190615778565b90815260200160405180910390206003016001600386604051612ba19190615778565b908152602001604051809103902060030180549050612bc09190615967565b81548110612bd157612bd0615875565b5b9060005260206000200154600385604051612bec9190615778565b90815260200160405180910390206003018381548110612c0f57612c0e615875565b5b906000526020600020018190555084600385604051612c2e9190615778565b90815260200160405180910390206003016001600387604051612c519190615778565b908152602001604051809103902060030180549050612c709190615967565b81548110612c8157612c80615875565b5b9060005260206000200181905550600384604051612c9f9190615778565b9081526020016040518091039020600301805480612cc057612cbf61599b565b5b60019003818190600052602060002001600090559055612cee565b8180612ce6906158d3565b925050612afe565b600091505b6004600385604051612d059190615778565b9081526020016040518091039020600601604051612d23919061585e565b908152602001604051809103902060020180549050821015612dbf576004600385604051612d519190615778565b9081526020016040518091039020600601604051612d6f919061585e565b90815260200160405180910390206002018281548110612d9257612d91615875565b5b90600052602060002001548503612dac5760019050612dbf565b8180612db7906158d3565b925050612cf3565b60011515811515036135b957600384604051612ddb9190615778565b9081526020016040518091039020600801859080600181540180825580915050600190039060005260206000200160009091909190915055600091505b6004600385604051612e2a9190615778565b9081526020016040518091039020600601604051612e48919061585e565b90815260200160405180910390206002018281548110612e6b57612e6a615875565b5b90600052602060002001548210156131015784600385604051612e8e9190615778565b90815260200160405180910390206004018381548110612eb157612eb0615875565b5b9060005260206000200154036130ee576004600385604051612ed39190615778565b9081526020016040518091039020600601604051612ef1919061585e565b908152602001604051809103902060020160016004600387604051612f169190615778565b9081526020016040518091039020600601604051612f34919061585e565b908152602001604051809103902060020180549050612f539190615967565b81548110612f6457612f63615875565b5b90600052602060002001546004600386604051612f819190615778565b9081526020016040518091039020600601604051612f9f919061585e565b90815260200160405180910390206002018381548110612fc257612fc1615875565b5b9060005260206000200181905550846004600386604051612fe39190615778565b9081526020016040518091039020600601604051613001919061585e565b9081526020016040518091039020600201600160046003886040516130269190615778565b9081526020016040518091039020600601604051613044919061585e565b9081526020016040518091039020600201805490506130639190615967565b8154811061307457613073615875565b5b906000526020600020018190555060046003856040516130949190615778565b90815260200160405180910390206006016040516130b2919061585e565b90815260200160405180910390206002018054806130d3576130d261599b565b5b60019003818190600052602060002001600090559055613101565b81806130f9906158d3565b925050612e18565b600091505b600360026001600088815260200190815260200160002060040160405161312d919061585e565b908152602001604051809103902060020160405161314b919061585e565b90815260200160405180910390206004018054905082101561349a5784600360026001600089815260200190815260200160002060040160405161318f919061585e565b90815260200160405180910390206002016040516131ad919061585e565b908152602001604051809103902060040183815481106131d0576131cf615875565b5b906000526020600020015403613487576003600260016000888152602001908152602001600020600401604051613207919061585e565b9081526020016040518091039020600201604051613225919061585e565b9081526020016040518091039020600401600160036002600160008a815260200190815260200160002060040160405161325f919061585e565b908152602001604051809103902060020160405161327d919061585e565b90815260200160405180910390206004018054905061329c9190615967565b815481106132ad576132ac615875565b5b906000526020600020015460036002600160008981526020019081526020016000206004016040516132df919061585e565b90815260200160405180910390206002016040516132fd919061585e565b908152602001604051809103902060040183815481106133205761331f615875565b5b9060005260206000200181905550846003600260016000898152602001908152602001600020600401604051613356919061585e565b9081526020016040518091039020600201604051613374919061585e565b9081526020016040518091039020600401600160036002600160008b81526020019081526020016000206004016040516133ae919061585e565b90815260200160405180910390206002016040516133cc919061585e565b9081526020016040518091039020600401805490506133eb9190615967565b815481106133fc576133fb615875565b5b90600052602060002001819055506003600260016000888152602001908152602001600020600401604051613431919061585e565b908152602001604051809103902060020160405161344f919061585e565b90815260200160405180910390206004018054806134705761346f61599b565b5b600190038181906000526020600020016000905590555b8180613492906158d3565b925050613106565b60036002600160008881526020019081526020016000206004016040516134c1919061585e565b90815260200160405180910390206002016040516134df919061585e565b908152602001604051809103902060070185908060018154018082558091505060019003906000526020600020016000909190919091505560046003600260016000898152602001908152602001600020600401604051613540919061585e565b908152602001604051809103902060020160405161355e919061585e565b908152602001604051809103902060060160405161357c919061585e565b9081526020016040518091039020600501859080600181540180825580915050600190039060005260206000200160009091909190915055613602565b6003846040516135c99190615778565b90815260200160405180910390206007018590806001815401808255809150506001900390600052602060002001600090919091909150555b5050505050565b606080606080600060606001600088815260200190815260200160002060010160016000898152602001908152602001600020600201600160008a8152602001908152602001600020600301600160008b8152602001908152602001600020600401600160008c815260200190815260200160002060080160000154600160008d81526020019081526020016000206007018580546136a7906154c9565b80601f01602080910402602001604051908101604052809291908181526020018280546136d3906154c9565b80156137205780601f106136f557610100808354040283529160200191613720565b820191906000526020600020905b81548152906001019060200180831161370357829003601f168201915b50505050509550848054613733906154c9565b80601f016020809104026020016040519081016040528092919081815260200182805461375f906154c9565b80156137ac5780601f10613781576101008083540402835291602001916137ac565b820191906000526020600020905b81548152906001019060200180831161378f57829003601f168201915b505050505094508380546137bf906154c9565b80601f01602080910402602001604051908101604052809291908181526020018280546137eb906154c9565b80156138385780601f1061380d57610100808354040283529160200191613838565b820191906000526020600020905b81548152906001019060200180831161381b57829003601f168201915b5050505050935082805461384b906154c9565b80601f0160208091040260200160405190810160405280929190818152602001828054613877906154c9565b80156138c45780601f10613899576101008083540402835291602001916138c4565b820191906000526020600020905b8154815290600101906020018083116138a757829003601f168201915b505050505092508080546138d7906154c9565b80601f0160208091040260200160405190810160405280929190818152602001828054613903906154c9565b80156139505780601f1061392557610100808354040283529160200191613950565b820191906000526020600020905b81548152906001019060200180831161393357829003601f168201915b5050505050905095509550955095509550955091939550919395565b60608060038360405161397f9190615778565b90815260200160405180910390206006016003846040516139a09190615778565b90815260200160405180910390206004018180546139bd906154c9565b80601f01602080910402602001604051908101604052809291908181526020018280546139e9906154c9565b8015613a365780601f10613a0b57610100808354040283529160200191613a36565b820191906000526020600020905b815481529060010190602001808311613a1957829003601f168201915b5050505050915080805480602002602001604051908101604052809291908181526020018280548015613a8857602002820191906000526020600020905b815481526020019060010190808311613a74575b5050505050905091509150915091565b613aa0614a01565b606080600080600286604051613ab69190615778565b908152602001604051809103902060010180549050905060008167ffffffffffffffff811115613ae957613ae8614a8d565b5b604051908082528060200260200182016040528015613b1c57816020015b6060815260200190600190039081613b075790505b50905060008267ffffffffffffffff811115613b3b57613b3a614a8d565b5b604051908082528060200260200182016040528015613b6e57816020015b6060815260200190600190039081613b595790505b50905060008367ffffffffffffffff811115613b8d57613b8c614a8d565b5b604051908082528060200260200182016040528015613bbb5781602001602082028036833780820191505090505b50905060008467ffffffffffffffff811115613bda57613bd9614a8d565b5b604051908082528060200260200182016040528015613c085781602001602082028036833780820191505090505b50905060008567ffffffffffffffff811115613c2757613c26614a8d565b5b604051908082528060200260200182016040528015613c5a57816020015b6060815260200190600190039081613c455790505b509050600096505b858710156140e2576001600060028d604051613c7e9190615778565b90815260200160405180910390206001018981548110613ca157613ca0615875565b5b90600052602060002001548152602001908152602001600020600301604051602001613ccd919061585e565b60405160208183030381529060405280519060200120604051602001613cf290615ac3565b60405160208183030381529060405280519060200120036140cf576001600060028d604051613d219190615778565b90815260200160405180910390206001018981548110613d4457613d43615875565b5b906000526020600020015481526020019081526020016000206001018054613d6b906154c9565b80601f0160208091040260200160405190810160405280929190818152602001828054613d97906154c9565b8015613de45780601f10613db957610100808354040283529160200191613de4565b820191906000526020600020905b815481529060010190602001808311613dc757829003601f168201915b5050505050858881518110613dfc57613dfb615875565b5b60200260200101819052506001600060028d604051613e1b9190615778565b90815260200160405180910390206001018981548110613e3e57613e3d615875565b5b906000526020600020015481526020019081526020016000206002018054613e65906154c9565b80601f0160208091040260200160405190810160405280929190818152602001828054613e91906154c9565b8015613ede5780601f10613eb357610100808354040283529160200191613ede565b820191906000526020600020905b815481529060010190602001808311613ec157829003601f168201915b5050505050848881518110613ef657613ef5615875565b5b60200260200101819052506001600060028d604051613f159190615778565b90815260200160405180910390206001018981548110613f3857613f37615875565b5b906000526020600020015481526020019081526020016000206003018054613f5f906154c9565b80601f0160208091040260200160405190810160405280929190818152602001828054613f8b906154c9565b8015613fd85780601f10613fad57610100808354040283529160200191613fd8565b820191906000526020600020905b815481529060010190602001808311613fbb57829003601f168201915b5050505050818881518110613ff057613fef615875565b5b60200260200101819052506001600060028d60405161400f9190615778565b9081526020016040518091039020600101898154811061403257614031615875565b5b906000526020600020015481526020019081526020016000206008016000015482888151811061406557614064615875565b5b60200260200101818152505060028b6040516140819190615778565b908152602001604051809103902060010187815481106140a4576140a3615875565b5b90600052602060002001548388815181106140c2576140c1615875565b5b6020026020010181815250505b86806140da906158d3565b975050613c62565b6040518060600160405280868152602001858152602001828152508383995099509950505050505050509193909250565b60606003826040516141259190615778565b908152602001604051809103902060040180548060200260200160405190810160405280929190818152602001828054801561418057602002820191906000526020600020905b81548152602001906001019080831161416c575b50505050509050919050565b60608060038360405161419f9190615778565b908152602001604051809103902060060160046003856040516141c29190615778565b90815260200160405180910390206006016040516141e0919061585e565b90815260200160405180910390206002018180546141fd906154c9565b80601f0160208091040260200160405190810160405280929190818152602001828054614229906154c9565b80156142765780601f1061424b57610100808354040283529160200191614276565b820191906000526020600020905b81548152906001019060200180831161425957829003601f168201915b50505050509150808054806020026020016040519081016040528092919081815260200182805480156142c857602002820191906000526020600020905b8154815260200190600101908083116142b4575b5050505050905091509150915091565b6142e0614a01565b60608060606000806003876040516142f89190615778565b908152602001604051809103902060070180549050905060008167ffffffffffffffff81111561432b5761432a614a8d565b5b60405190808252806020026020018201604052801561435e57816020015b60608152602001906001900390816143495790505b50905060008267ffffffffffffffff81111561437d5761437c614a8d565b5b6040519080825280602002602001820160405280156143b057816020015b606081526020019060019003908161439b5790505b50905060008367ffffffffffffffff8111156143cf576143ce614a8d565b5b6040519080825280602002602001820160405280156143fd5781602001602082028036833780820191505090505b50905060008467ffffffffffffffff81111561441c5761441b614a8d565b5b60405190808252806020026020018201604052801561444f57816020015b606081526020019060019003908161443a5790505b50905060008567ffffffffffffffff81111561446e5761446d614a8d565b5b60405190808252806020026020018201604052801561449c5781602001602082028036833780820191505090505b50905060008667ffffffffffffffff8111156144bb576144ba614a8d565b5b6040519080825280602002602001820160405280156144ee57816020015b60608152602001906001900390816144d95790505b509050600097505b868810156149cc576001600060038f6040516145129190615778565b90815260200160405180910390206007018a8154811061453557614534615875565b5b90600052602060002001548152602001908152602001600020600101805461455c906154c9565b80601f0160208091040260200160405190810160405280929190818152602001828054614588906154c9565b80156145d55780601f106145aa576101008083540402835291602001916145d5565b820191906000526020600020905b8154815290600101906020018083116145b857829003601f168201915b50505050508689815181106145ed576145ec615875565b5b60200260200101819052506001600060038f60405161460c9190615778565b90815260200160405180910390206007018a8154811061462f5761462e615875565b5b906000526020600020015481526020019081526020016000206002018054614656906154c9565b80601f0160208091040260200160405190810160405280929190818152602001828054614682906154c9565b80156146cf5780601f106146a4576101008083540402835291602001916146cf565b820191906000526020600020905b8154815290600101906020018083116146b257829003601f168201915b50505050508589815181106146e7576146e6615875565b5b60200260200101819052506001600060038f6040516147069190615778565b90815260200160405180910390206007018a8154811061472957614728615875565b5b906000526020600020015481526020019081526020016000206003018054614750906154c9565b80601f016020809104026020016040519081016040528092919081815260200182805461477c906154c9565b80156147c95780601f1061479e576101008083540402835291602001916147c9565b820191906000526020600020905b8154815290600101906020018083116147ac57829003601f168201915b50505050508189815181106147e1576147e0615875565b5b60200260200101819052506001600060038f6040516148009190615778565b90815260200160405180910390206007018a8154811061482357614822615875565b5b906000526020600020015481526020019081526020016000206008016000015484898151811061485657614855615875565b5b6020026020010181815250506001600060038f6040516148769190615778565b90815260200160405180910390206007018a8154811061489957614898615875565b5b9060005260206000200154815260200190815260200160002060070180546148c0906154c9565b80601f01602080910402602001604051908101604052809291908181526020018280546148ec906154c9565b80156149395780601f1061490e57610100808354040283529160200191614939565b820191906000526020600020905b81548152906001019060200180831161491c57829003601f168201915b505050505083898151811061495157614950615875565b5b602002602001018190525060038d60405161496c9190615778565b9081526020016040518091039020600701888154811061498f5761498e615875565b5b90600052602060002001548289815181106149ad576149ac615875565b5b60200260200101818152505087806149c4906158d3565b9850506144f6565b6040518060600160405280878152602001868152602001828152508285859b509b509b509b5050505050505050509193509193565b60405180606001604052806003905b6060815260200190600190039081614a105790505090565b6000604051905090565b600080fd5b600080fd5b6000819050919050565b614a4f81614a3c565b8114614a5a57600080fd5b50565b600081359050614a6c81614a46565b92915050565b600080fd5b600080fd5b6000601f19601f8301169050919050565b7f4e487b7100000000000000000000000000000000000000000000000000000000600052604160045260246000fd5b614ac582614a7c565b810181811067ffffffffffffffff82111715614ae457614ae3614a8d565b5b80604052505050565b6000614af7614a28565b9050614b038282614abc565b919050565b600067ffffffffffffffff821115614b2357614b22614a8d565b5b614b2c82614a7c565b9050602081019050919050565b82818337600083830152505050565b6000614b5b614b5684614b08565b614aed565b905082815260208101848484011115614b7757614b76614a77565b5b614b82848285614b39565b509392505050565b600082601f830112614b9f57614b9e614a72565b5b8135614baf848260208601614b48565b91505092915050565b60008060408385031215614bcf57614bce614a32565b5b6000614bdd85828601614a5d565b925050602083013567ffffffffffffffff811115614bfe57614bfd614a37565b5b614c0a85828601614b8a565b9150509250929050565b600060208284031215614c2a57614c29614a32565b5b600082013567ffffffffffffffff811115614c4857614c47614a37565b5b614c5484828501614b8a565b91505092915050565b600081519050919050565b600082825260208201905092915050565b6000819050602082019050919050565b614c9281614a3c565b82525050565b6000614ca48383614c89565b60208301905092915050565b6000602082019050919050565b6000614cc882614c5d565b614cd28185614c68565b9350614cdd83614c79565b8060005b83811015614d0e578151614cf58882614c98565b9750614d0083614cb0565b925050600181019050614ce1565b5085935050505092915050565b60006020820190508181036000830152614d358184614cbd565b905092915050565b600081519050919050565b600082825260208201905092915050565b6000819050602082019050919050565b600081519050919050565b600082825260208201905092915050565b60005b83811015614da3578082015181840152602081019050614d88565b60008484015250505050565b6000614dba82614d69565b614dc48185614d74565b9350614dd4818560208601614d85565b614ddd81614a7c565b840191505092915050565b6000614df48383614daf565b905092915050565b6000602082019050919050565b6000614e1482614d3d565b614e1e8185614d48565b935083602082028501614e3085614d59565b8060005b85811015614e6c5784840389528151614e4d8582614de8565b9450614e5883614dfc565b925060208a01995050600181019050614e34565b50829750879550505050505092915050565b60006020820190508181036000830152614e988184614e09565b905092915050565b60008060408385031215614eb757614eb6614a32565b5b600083013567ffffffffffffffff811115614ed557614ed4614a37565b5b614ee185828601614b8a565b925050602083013567ffffffffffffffff811115614f0257614f01614a37565b5b614f0e85828601614b8a565b9150509250929050565b600060039050919050565b600081905092915050565b6000819050919050565b600082825260208201905092915050565b6000614f5482614d3d565b614f5e8185614f38565b935083602082028501614f7085614d59565b8060005b85811015614fac5784840389528151614f8d8582614de8565b9450614f9883614dfc565b925060208a01995050600181019050614f74565b50829750879550505050505092915050565b6000614fca8383614f49565b905092915050565b6000602082019050919050565b6000614fea82614f18565b614ff48185614f23565b93508360208202850161500685614f2e565b8060005b8581101561504257848403895281516150238582614fbe565b945061502e83614fd2565b925060208a0199505060018101905061500a565b50829750879550505050505092915050565b6000608082019050818103600083015261506e8187614fdf565b905081810360208301526150828186614cbd565b905081810360408301526150968185614cbd565b905081810360608301526150aa8184614e09565b905095945050505050565b6000806000606084860312156150ce576150cd614a32565b5b60006150dc86828701614a5d565b935050602084013567ffffffffffffffff8111156150fd576150fc614a37565b5b61510986828701614b8a565b925050604084013567ffffffffffffffff81111561512a57615129614a37565b5b61513686828701614b8a565b9150509250925092565b6000604082019050818103600083015261515a8185614cbd565b9050818103602083015261516e8184614cbd565b90509392505050565b61518081614a3c565b82525050565b600060208201905061519b6000830184615177565b92915050565b6000806000606084860312156151ba576151b9614a32565b5b600084013567ffffffffffffffff8111156151d8576151d7614a37565b5b6151e486828701614b8a565b935050602084013567ffffffffffffffff81111561520557615204614a37565b5b61521186828701614b8a565b925050604084013567ffffffffffffffff81111561523257615231614a37565b5b61523e86828701614b8a565b9150509250925092565b600082825260208201905092915050565b600061526482614d69565b61526e8185615248565b935061527e818560208601614d85565b61528781614a7c565b840191505092915050565b600060408201905081810360008301526152ac8185615259565b905081810360208301526152c08184614cbd565b90509392505050565b6000602082840312156152df576152de614a32565b5b60006152ed84828501614a5d565b91505092915050565b600060608201905081810360008301526153108186615259565b905081810360208301526153248185614e09565b905081810360408301526153388184614cbd565b9050949350505050565b600060c082019050818103600083015261535c8189615259565b905081810360208301526153708188615259565b905081810360408301526153848187615259565b905081810360608301526153988186615259565b90506153a76080830185615177565b81810360a08301526153b98184615259565b9050979650505050505050565b600060608201905081810360008301526153e08186614fdf565b905081810360208301526153f48185614cbd565b905081810360408301526154088184614cbd565b9050949350505050565b7f73656e7420746f204469766973696f6e732066726f6d2044475354203a000000815250565b600081905092915050565b600061544e82614d69565b6154588185615438565b9350615468818560208601614d85565b80840191505092915050565b600061547f82615412565b601d8201915061548f8284615443565b915081905092915050565b7f4e487b7100000000000000000000000000000000000000000000000000000000600052602260045260246000fd5b600060028204905060018216806154e157607f821691505b6020821081036154f4576154f361549a565b5b50919050565b60008190508160005260206000209050919050565b60006020601f8301049050919050565b600082821b905092915050565b60006008830261555c7fffffffffffffffffffffffffffffffffffffffffffffffffffffffffffffffff8261551f565b615566868361551f565b95508019841693508086168417925050509392505050565b6000819050919050565b60006155a361559e61559984614a3c565b61557e565b614a3c565b9050919050565b6000819050919050565b6155bd83615588565b6155d16155c9826155aa565b84845461552c565b825550505050565b600090565b6155e66155d9565b6155f18184846155b4565b505050565b5b818110156156155761560a6000826155de565b6001810190506155f7565b5050565b601f82111561565a5761562b816154fa565b6156348461550f565b81016020851015615643578190505b61565761564f8561550f565b8301826155f6565b50505b505050565b600082821c905092915050565b600061567d6000198460080261565f565b1980831691505092915050565b6000615696838361566c565b9150826002028217905092915050565b6156af82614d69565b67ffffffffffffffff8111156156c8576156c7614a8d565b5b6156d282546154c9565b6156dd828285615619565b600060209050601f83116001811461571057600084156156fe578287015190505b615708858261568a565b865550615770565b601f19841661571e866154fa565b60005b8281101561574657848901518255600182019150602085019450602081019050615721565b86831015615763578489015161575f601f89168261566c565b8355505b6001600288020188555050505b505050505050565b60006157848284615443565b915081905092915050565b7f73656e7420746f20556e6974732066726f6d204469766973696f6e203a000000815250565b60006157c08261578f565b601d820191506157d08284615443565b915081905092915050565b600081546157e8816154c9565b6157f28186615438565b9450600182166000811461580d576001811461582257615855565b60ff1983168652811515820286019350615855565b61582b856154fa565b60005b8381101561584d5781548189015260018201915060208101905061582e565b838801955050505b50505092915050565b600061586a82846157db565b915081905092915050565b7f4e487b7100000000000000000000000000000000000000000000000000000000600052603260045260246000fd5b7f4e487b7100000000000000000000000000000000000000000000000000000000600052601160045260246000fd5b60006158de82614a3c565b91507fffffffffffffffffffffffffffffffffffffffffffffffffffffffffffffffff82036159105761590f6158a4565b5b600182019050919050565b7f4163636570746564206279203a00000000000000000000000000000000000000815250565b600061594c8261591b565b600d8201915061595c8284615443565b915081905092915050565b600061597282614a3c565b915061597d83614a3c565b9250828203905081811115615995576159946158a4565b5b92915050565b7f4e487b7100000000000000000000000000000000000000000000000000000000600052603160045260246000fd5b7f73656e7420746f20444753542066726f6d204469766973696f6e203a00000000815250565b60006159fb826159ca565b601c82019150615a0b8284615443565b915081905092915050565b7f6163636570746564000000000000000000000000000000000000000000000000600082015250565b6000615a4c600883615438565b9150615a5782615a16565b600882019050919050565b6000615a6d82615a3f565b9150819050919050565b7f70656e64696e6700000000000000000000000000000000000000000000000000600082015250565b6000615aad600783615438565b9150615ab882615a77565b600782019050919050565b6000615ace82615aa0565b915081905091905056fea2646970667358221220693976d7fb16688cae7a47e56bc6d2e599c71b19636ebbb8006e87f56f6c049564736f6c63430008120033",
			"opcodes": "PUSH1 0x80 PUSH1 0x40 MSTORE CALLVALUE DUP1 ISZERO PUSH2 0x10 JUMPI PUSH1 0x0 DUP1 REVERT JUMPDEST POP PUSH2 0x5B0E DUP1 PUSH3 0x21 PUSH1 0x0 CODECOPY PUSH1 0x0 RETURN INVALID PUSH1 0x80 PUSH1 0x40 MSTORE CALLVALUE DUP1 ISZERO PUSH2 0x10 JUMPI PUSH1 0x0 DUP1 REVERT JUMPDEST POP PUSH1 0x4 CALLDATASIZE LT PUSH2 0x1C4 JUMPI PUSH1 0x0 CALLDATALOAD PUSH1 0xE0 SHR DUP1 PUSH4 0x6C143862 GT PUSH2 0xF9 JUMPI DUP1 PUSH4 0xB49DBFC2 GT PUSH2 0x97 JUMPI DUP1 PUSH4 0xCB89CDFD GT PUSH2 0x71 JUMPI DUP1 PUSH4 0xCB89CDFD EQ PUSH2 0x5A7 JUMPI DUP1 PUSH4 0xD93ED80F EQ PUSH2 0x5D9 JUMPI DUP1 PUSH4 0xDD78C857 EQ PUSH2 0x609 JUMPI DUP1 PUSH4 0xFBCC2935 EQ PUSH2 0x63A JUMPI PUSH2 0x1C4 JUMP JUMPDEST DUP1 PUSH4 0xB49DBFC2 EQ PUSH2 0x525 JUMPI DUP1 PUSH4 0xBA649F4E EQ PUSH2 0x541 JUMPI DUP1 PUSH4 0xC30F4A25 EQ PUSH2 0x576 JUMPI PUSH2 0x1C4 JUMP JUMPDEST DUP1 PUSH4 0xA849F279 GT PUSH2 0xD3 JUMPI DUP1 PUSH4 0xA849F279 EQ PUSH2 0x48A JUMPI DUP1 PUSH4 0xA9EDE870 EQ PUSH2 0x4A6 JUMPI DUP1 PUSH4 0xAC6D31A2 EQ PUSH2 0x4D7 JUMPI DUP1 PUSH4 0xAC785E39 EQ PUSH2 0x4F3 JUMPI PUSH2 0x1C4 JUMP JUMPDEST DUP1 PUSH4 0x6C143862 EQ PUSH2 0x409 JUMPI DUP1 PUSH4 0x880C5B30 EQ PUSH2 0x427 JUMPI DUP1 PUSH4 0x9170D034 EQ PUSH2 0x45A JUMPI PUSH2 0x1C4 JUMP JUMPDEST DUP1 PUSH4 0x48B57344 GT PUSH2 0x166 JUMPI DUP1 PUSH4 0x5AF1438A GT PUSH2 0x140 JUMPI DUP1 PUSH4 0x5AF1438A EQ PUSH2 0x35C JUMPI DUP1 PUSH4 0x5C37A007 EQ PUSH2 0x378 JUMPI DUP1 PUSH4 0x6252E65C EQ PUSH2 0x3A9 JUMPI DUP1 PUSH4 0x6B66CC2C EQ PUSH2 0x3D9 JUMPI PUSH2 0x1C4 JUMP JUMPDEST DUP1 PUSH4 0x48B57344 EQ PUSH2 0x2F1 JUMPI DUP1 PUSH4 0x4BA4EE74 EQ PUSH2 0x30D JUMPI DUP1 PUSH4 0x597CF6F0 EQ PUSH2 0x340 JUMPI PUSH2 0x1C4 JUMP JUMPDEST DUP1 PUSH4 0x31C68D1B GT PUSH2 0x1A2 JUMPI DUP1 PUSH4 0x31C68D1B EQ PUSH2 0x231 JUMPI DUP1 PUSH4 0x3682001E EQ PUSH2 0x261 JUMPI DUP1 PUSH4 0x38D20EE8 EQ PUSH2 0x291 JUMPI DUP1 PUSH4 0x470C96CE EQ PUSH2 0x2C1 JUMPI PUSH2 0x1C4 JUMP JUMPDEST DUP1 PUSH4 0x15D05BE7 EQ PUSH2 0x1C9 JUMPI DUP1 PUSH4 0x2A598CC6 EQ PUSH2 0x1E5 JUMPI DUP1 PUSH4 0x2B5F134A EQ PUSH2 0x201 JUMPI JUMPDEST PUSH1 0x0 DUP1 REVERT JUMPDEST PUSH2 0x1E3 PUSH1 0x4 DUP1 CALLDATASIZE SUB DUP2 ADD SWAP1 PUSH2 0x1DE SWAP2 SWAP1 PUSH2 0x4BB8 JUMP JUMPDEST PUSH2 0x66D JUMP JUMPDEST STOP JUMPDEST PUSH2 0x1FF PUSH1 0x4 DUP1 CALLDATASIZE SUB DUP2 ADD SWAP1 PUSH2 0x1FA SWAP2 SWAP1 PUSH2 0x4BB8 JUMP JUMPDEST PUSH2 0x75E JUMP JUMPDEST STOP JUMPDEST PUSH2 0x21B PUSH1 0x4 DUP1 CALLDATASIZE SUB DUP2 ADD SWAP1 PUSH2 0x216 SWAP2 SWAP1 PUSH2 0x4C14 JUMP JUMPDEST PUSH2 0x84F JUMP JUMPDEST PUSH1 0x40 MLOAD PUSH2 0x228 SWAP2 SWAP1 PUSH2 0x4D1B JUMP JUMPDEST PUSH1 0x40 MLOAD DUP1 SWAP2 SUB SWAP1 RETURN JUMPDEST PUSH2 0x24B PUSH1 0x4 DUP1 CALLDATASIZE SUB DUP2 ADD SWAP1 PUSH2 0x246 SWAP2 SWAP1 PUSH2 0x4C14 JUMP JUMPDEST PUSH2 0x8C8 JUMP JUMPDEST PUSH1 0x40 MLOAD PUSH2 0x258 SWAP2 SWAP1 PUSH2 0x4D1B JUMP JUMPDEST PUSH1 0x40 MLOAD DUP1 SWAP2 SUB SWAP1 RETURN JUMPDEST PUSH2 0x27B PUSH1 0x4 DUP1 CALLDATASIZE SUB DUP2 ADD SWAP1 PUSH2 0x276 SWAP2 SWAP1 PUSH2 0x4C14 JUMP JUMPDEST PUSH2 0x960 JUMP JUMPDEST PUSH1 0x40 MLOAD PUSH2 0x288 SWAP2 SWAP1 PUSH2 0x4D1B JUMP JUMPDEST PUSH1 0x40 MLOAD DUP1 SWAP2 SUB SWAP1 RETURN JUMPDEST PUSH2 0x2AB PUSH1 0x4 DUP1 CALLDATASIZE SUB DUP2 ADD SWAP1 PUSH2 0x2A6 SWAP2 SWAP1 PUSH2 0x4C14 JUMP JUMPDEST PUSH2 0x9D9 JUMP JUMPDEST PUSH1 0x40 MLOAD PUSH2 0x2B8 SWAP2 SWAP1 PUSH2 0x4D1B JUMP JUMPDEST PUSH1 0x40 MLOAD DUP1 SWAP2 SUB SWAP1 RETURN JUMPDEST PUSH2 0x2DB PUSH1 0x4 DUP1 CALLDATASIZE SUB DUP2 ADD SWAP1 PUSH2 0x2D6 SWAP2 SWAP1 PUSH2 0x4C14 JUMP JUMPDEST PUSH2 0xA52 JUMP JUMPDEST PUSH1 0x40 MLOAD PUSH2 0x2E8 SWAP2 SWAP1 PUSH2 0x4E7E JUMP JUMPDEST PUSH1 0x40 MLOAD DUP1 SWAP2 SUB SWAP1 RETURN JUMPDEST PUSH2 0x30B PUSH1 0x4 DUP1 CALLDATASIZE SUB DUP2 ADD SWAP1 PUSH2 0x306 SWAP2 SWAP1 PUSH2 0x4EA0 JUMP JUMPDEST PUSH2 0xB4C JUMP JUMPDEST STOP JUMPDEST PUSH2 0x327 PUSH1 0x4 DUP1 CALLDATASIZE SUB DUP2 ADD SWAP1 PUSH2 0x322 SWAP2 SWAP1 PUSH2 0x4C14 JUMP JUMPDEST PUSH2 0xBD3 JUMP JUMPDEST PUSH1 0x40 MLOAD PUSH2 0x337 SWAP5 SWAP4 SWAP3 SWAP2 SWAP1 PUSH2 0x5054 JUMP JUMPDEST PUSH1 0x40 MLOAD DUP1 SWAP2 SUB SWAP1 RETURN JUMPDEST PUSH2 0x35A PUSH1 0x4 DUP1 CALLDATASIZE SUB DUP2 ADD SWAP1 PUSH2 0x355 SWAP2 SWAP1 PUSH2 0x50B5 JUMP JUMPDEST PUSH2 0x12FC JUMP JUMPDEST STOP JUMPDEST PUSH2 0x376 PUSH1 0x4 DUP1 CALLDATASIZE SUB DUP2 ADD SWAP1 PUSH2 0x371 SWAP2 SWAP1 PUSH2 0x4BB8 JUMP JUMPDEST PUSH2 0x16A7 JUMP JUMPDEST STOP JUMPDEST PUSH2 0x392 PUSH1 0x4 DUP1 CALLDATASIZE SUB DUP2 ADD SWAP1 PUSH2 0x38D SWAP2 SWAP1 PUSH2 0x4EA0 JUMP JUMPDEST PUSH2 0x1916 JUMP JUMPDEST PUSH1 0x40 MLOAD PUSH2 0x3A0 SWAP3 SWAP2 SWAP1 PUSH2 0x5140 JUMP JUMPDEST PUSH1 0x40 MLOAD DUP1 SWAP2 SUB SWAP1 RETURN JUMPDEST PUSH2 0x3C3 PUSH1 0x4 DUP1 CALLDATASIZE SUB DUP2 ADD SWAP1 PUSH2 0x3BE SWAP2 SWAP1 PUSH2 0x4C14 JUMP JUMPDEST PUSH2 0x1A0A JUMP JUMPDEST PUSH1 0x40 MLOAD PUSH2 0x3D0 SWAP2 SWAP1 PUSH2 0x4E7E JUMP JUMPDEST PUSH1 0x40 MLOAD DUP1 SWAP2 SUB SWAP1 RETURN JUMPDEST PUSH2 0x3F3 PUSH1 0x4 DUP1 CALLDATASIZE SUB DUP2 ADD SWAP1 PUSH2 0x3EE SWAP2 SWAP1 PUSH2 0x4C14 JUMP JUMPDEST PUSH2 0x1B04 JUMP JUMPDEST PUSH1 0x40 MLOAD PUSH2 0x400 SWAP2 SWAP1 PUSH2 0x4D1B JUMP JUMPDEST PUSH1 0x40 MLOAD DUP1 SWAP2 SUB SWAP1 RETURN JUMPDEST PUSH2 0x411 PUSH2 0x1B7D JUMP JUMPDEST PUSH1 0x40 MLOAD PUSH2 0x41E SWAP2 SWAP1 PUSH2 0x5186 JUMP JUMPDEST PUSH1 0x40 MLOAD DUP1 SWAP2 SUB SWAP1 RETURN JUMPDEST PUSH2 0x441 PUSH1 0x4 DUP1 CALLDATASIZE SUB DUP2 ADD SWAP1 PUSH2 0x43C SWAP2 SWAP1 PUSH2 0x4C14 JUMP JUMPDEST PUSH2 0x1B86 JUMP JUMPDEST PUSH1 0x40 MLOAD PUSH2 0x451 SWAP5 SWAP4 SWAP3 SWAP2 SWAP1 PUSH2 0x5054 JUMP JUMPDEST PUSH1 0x40 MLOAD DUP1 SWAP2 SUB SWAP1 RETURN JUMPDEST PUSH2 0x474 PUSH1 0x4 DUP1 CALLDATASIZE SUB DUP2 ADD SWAP1 PUSH2 0x46F SWAP2 SWAP1 PUSH2 0x4C14 JUMP JUMPDEST PUSH2 0x2353 JUMP JUMPDEST PUSH1 0x40 MLOAD PUSH2 0x481 SWAP2 SWAP1 PUSH2 0x4D1B JUMP JUMPDEST PUSH1 0x40 MLOAD DUP1 SWAP2 SUB SWAP1 RETURN JUMPDEST PUSH2 0x4A4 PUSH1 0x4 DUP1 CALLDATASIZE SUB DUP2 ADD SWAP1 PUSH2 0x49F SWAP2 SWAP1 PUSH2 0x51A1 JUMP JUMPDEST PUSH2 0x23CC JUMP JUMPDEST STOP JUMPDEST PUSH2 0x4C0 PUSH1 0x4 DUP1 CALLDATASIZE SUB DUP2 ADD SWAP1 PUSH2 0x4BB SWAP2 SWAP1 PUSH2 0x4C14 JUMP JUMPDEST PUSH2 0x25D4 JUMP JUMPDEST PUSH1 0x40 MLOAD PUSH2 0x4CE SWAP3 SWAP2 SWAP1 PUSH2 0x5292 JUMP JUMPDEST PUSH1 0x40 MLOAD DUP1 SWAP2 SUB SWAP1 RETURN JUMPDEST PUSH2 0x4F1 PUSH1 0x4 DUP1 CALLDATASIZE SUB DUP2 ADD SWAP1 PUSH2 0x4EC SWAP2 SWAP1 PUSH2 0x4EA0 JUMP JUMPDEST PUSH2 0x2700 JUMP JUMPDEST STOP JUMPDEST PUSH2 0x50D PUSH1 0x4 DUP1 CALLDATASIZE SUB DUP2 ADD SWAP1 PUSH2 0x508 SWAP2 SWAP1 PUSH2 0x52C9 JUMP JUMPDEST PUSH2 0x2787 JUMP JUMPDEST PUSH1 0x40 MLOAD PUSH2 0x51C SWAP4 SWAP3 SWAP2 SWAP1 PUSH2 0x52F6 JUMP JUMPDEST PUSH1 0x40 MLOAD DUP1 SWAP2 SUB SWAP1 RETURN JUMPDEST PUSH2 0x53F PUSH1 0x4 DUP1 CALLDATASIZE SUB DUP2 ADD SWAP1 PUSH2 0x53A SWAP2 SWAP1 PUSH2 0x50B5 JUMP JUMPDEST PUSH2 0x298C JUMP JUMPDEST STOP JUMPDEST PUSH2 0x55B PUSH1 0x4 DUP1 CALLDATASIZE SUB DUP2 ADD SWAP1 PUSH2 0x556 SWAP2 SWAP1 PUSH2 0x52C9 JUMP JUMPDEST PUSH2 0x3609 JUMP JUMPDEST PUSH1 0x40 MLOAD PUSH2 0x56D SWAP7 SWAP6 SWAP5 SWAP4 SWAP3 SWAP2 SWAP1 PUSH2 0x5342 JUMP JUMPDEST PUSH1 0x40 MLOAD DUP1 SWAP2 SUB SWAP1 RETURN JUMPDEST PUSH2 0x590 PUSH1 0x4 DUP1 CALLDATASIZE SUB DUP2 ADD SWAP1 PUSH2 0x58B SWAP2 SWAP1 PUSH2 0x4C14 JUMP JUMPDEST PUSH2 0x396C JUMP JUMPDEST PUSH1 0x40 MLOAD PUSH2 0x59E SWAP3 SWAP2 SWAP1 PUSH2 0x5292 JUMP JUMPDEST PUSH1 0x40 MLOAD DUP1 SWAP2 SUB SWAP1 RETURN JUMPDEST PUSH2 0x5C1 PUSH1 0x4 DUP1 CALLDATASIZE SUB DUP2 ADD SWAP1 PUSH2 0x5BC SWAP2 SWAP1 PUSH2 0x4C14 JUMP JUMPDEST PUSH2 0x3A98 JUMP JUMPDEST PUSH1 0x40 MLOAD PUSH2 0x5D0 SWAP4 SWAP3 SWAP2 SWAP1 PUSH2 0x53C6 JUMP JUMPDEST PUSH1 0x40 MLOAD DUP1 SWAP2 SUB SWAP1 RETURN JUMPDEST PUSH2 0x5F3 PUSH1 0x4 DUP1 CALLDATASIZE SUB DUP2 ADD SWAP1 PUSH2 0x5EE SWAP2 SWAP1 PUSH2 0x4C14 JUMP JUMPDEST PUSH2 0x4113 JUMP JUMPDEST PUSH1 0x40 MLOAD PUSH2 0x600 SWAP2 SWAP1 PUSH2 0x4D1B JUMP JUMPDEST PUSH1 0x40 MLOAD DUP1 SWAP2 SUB SWAP1 RETURN JUMPDEST PUSH2 0x623 PUSH1 0x4 DUP1 CALLDATASIZE SUB DUP2 ADD SWAP1 PUSH2 0x61E SWAP2 SWAP1 PUSH2 0x4C14 JUMP JUMPDEST PUSH2 0x418C JUMP JUMPDEST PUSH1 0x40 MLOAD PUSH2 0x631 SWAP3 SWAP2 SWAP1 PUSH2 0x5292 JUMP JUMPDEST PUSH1 0x40 MLOAD DUP1 SWAP2 SUB SWAP1 RETURN JUMPDEST PUSH2 0x654 PUSH1 0x4 DUP1 CALLDATASIZE SUB DUP2 ADD SWAP1 PUSH2 0x64F SWAP2 SWAP1 PUSH2 0x4C14 JUMP JUMPDEST PUSH2 0x42D8 JUMP JUMPDEST PUSH1 0x40 MLOAD PUSH2 0x664 SWAP5 SWAP4 SWAP3 SWAP2 SWAP1 PUSH2 0x5054 JUMP JUMPDEST PUSH1 0x40 MLOAD DUP1 SWAP2 SUB SWAP1 RETURN JUMPDEST PUSH1 0x1 PUSH1 0x0 DUP4 DUP2 MSTORE PUSH1 0x20 ADD SWAP1 DUP2 MSTORE PUSH1 0x20 ADD PUSH1 0x0 KECCAK256 PUSH1 0x5 ADD DUP2 PUSH1 0x40 MLOAD PUSH1 0x20 ADD PUSH2 0x694 SWAP2 SWAP1 PUSH2 0x5474 JUMP JUMPDEST PUSH1 0x40 MLOAD PUSH1 0x20 DUP2 DUP4 SUB SUB DUP2 MSTORE SWAP1 PUSH1 0x40 MSTORE SWAP1 DUP1 PUSH1 0x1 DUP2 SLOAD ADD DUP1 DUP3 SSTORE DUP1 SWAP2 POP POP PUSH1 0x1 SWAP1 SUB SWAP1 PUSH1 0x0 MSTORE PUSH1 0x20 PUSH1 0x0 KECCAK256 ADD PUSH1 0x0 SWAP1 SWAP2 SWAP1 SWAP2 SWAP1 SWAP2 POP SWAP1 DUP2 PUSH2 0x6D4 SWAP2 SWAP1 PUSH2 0x56A6 JUMP JUMPDEST POP PUSH1 0x1 PUSH1 0x0 DUP4 DUP2 MSTORE PUSH1 0x20 ADD SWAP1 DUP2 MSTORE PUSH1 0x20 ADD PUSH1 0x0 KECCAK256 PUSH1 0x6 ADD TIMESTAMP SWAP1 DUP1 PUSH1 0x1 DUP2 SLOAD ADD DUP1 DUP3 SSTORE DUP1 SWAP2 POP POP PUSH1 0x1 SWAP1 SUB SWAP1 PUSH1 0x0 MSTORE PUSH1 0x20 PUSH1 0x0 KECCAK256 ADD PUSH1 0x0 SWAP1 SWAP2 SWAP1 SWAP2 SWAP1 SWAP2 POP SSTORE PUSH1 0x4 DUP2 PUSH1 0x40 MLOAD PUSH2 0x722 SWAP2 SWAP1 PUSH2 0x5778 JUMP JUMPDEST SWAP1 DUP2 MSTORE PUSH1 0x20 ADD PUSH1 0x40 MLOAD DUP1 SWAP2 SUB SWAP1 KECCAK256 PUSH1 0x2 ADD DUP3 SWAP1 DUP1 PUSH1 0x1 DUP2 SLOAD ADD DUP1 DUP3 SSTORE DUP1 SWAP2 POP POP PUSH1 0x1 SWAP1 SUB SWAP1 PUSH1 0x0 MSTORE PUSH1 0x20 PUSH1 0x0 KECCAK256 ADD PUSH1 0x0 SWAP1 SWAP2 SWAP1 SWAP2 SWAP1 SWAP2 POP SSTORE POP POP JUMP JUMPDEST PUSH1 0x1 PUSH1 0x0 DUP4 DUP2 MSTORE PUSH1 0x20 ADD SWAP1 DUP2 MSTORE PUSH1 0x20 ADD PUSH1 0x0 KECCAK256 PUSH1 0x5 ADD DUP2 PUSH1 0x40 MLOAD PUSH1 0x20 ADD PUSH2 0x785 SWAP2 SWAP1 PUSH2 0x57B5 JUMP JUMPDEST PUSH1 0x40 MLOAD PUSH1 0x20 DUP2 DUP4 SUB SUB DUP2 MSTORE SWAP1 PUSH1 0x40 MSTORE SWAP1 DUP1 PUSH1 0x1 DUP2 SLOAD ADD DUP1 DUP3 SSTORE DUP1 SWAP2 POP POP PUSH1 0x1 SWAP1 SUB SWAP1 PUSH1 0x0 MSTORE PUSH1 0x20 PUSH1 0x0 KECCAK256 ADD PUSH1 0x0 SWAP1 SWAP2 SWAP1 SWAP2 SWAP1 SWAP2 POP SWAP1 DUP2 PUSH2 0x7C5 SWAP2 SWAP1 PUSH2 0x56A6 JUMP JUMPDEST POP PUSH1 0x1 PUSH1 0x0 DUP4 DUP2 MSTORE PUSH1 0x20 ADD SWAP1 DUP2 MSTORE PUSH1 0x20 ADD PUSH1 0x0 KECCAK256 PUSH1 0x6 ADD TIMESTAMP SWAP1 DUP1 PUSH1 0x1 DUP2 SLOAD ADD DUP1 DUP3 SSTORE DUP1 SWAP2 POP POP PUSH1 0x1 SWAP1 SUB SWAP1 PUSH1 0x0 MSTORE PUSH1 0x20 PUSH1 0x0 KECCAK256 ADD PUSH1 0x0 SWAP1 SWAP2 SWAP1 SWAP2 SWAP1 SWAP2 POP SSTORE PUSH1 0x3 DUP2 PUSH1 0x40 MLOAD PUSH2 0x813 SWAP2 SWAP1 PUSH2 0x5778 JUMP JUMPDEST SWAP1 DUP2 MSTORE PUSH1 0x20 ADD PUSH1 0x40 MLOAD DUP1 SWAP2 SUB SWAP1 KECCAK256 PUSH1 0x3 ADD DUP3 SWAP1 DUP1 PUSH1 0x1 DUP2 SLOAD ADD DUP1 DUP3 SSTORE DUP1 SWAP2 POP POP PUSH1 0x1 SWAP1 SUB SWAP1 PUSH1 0x0 MSTORE PUSH1 0x20 PUSH1 0x0 KECCAK256 ADD PUSH1 0x0 SWAP1 SWAP2 SWAP1 SWAP2 SWAP1 SWAP2 POP SSTORE POP POP JUMP JUMPDEST PUSH1 0x60 PUSH1 0x3 DUP3 PUSH1 0x40 MLOAD PUSH2 0x861 SWAP2 SWAP1 PUSH2 0x5778 JUMP JUMPDEST SWAP1 DUP2 MSTORE PUSH1 0x20 ADD PUSH1 0x40 MLOAD DUP1 SWAP2 SUB SWAP1 KECCAK256 PUSH1 0x8 ADD DUP1 SLOAD DUP1 PUSH1 0x20 MUL PUSH1 0x20 ADD PUSH1 0x40 MLOAD SWAP1 DUP2 ADD PUSH1 0x40 MSTORE DUP1 SWAP3 SWAP2 SWAP1 DUP2 DUP2 MSTORE PUSH1 0x20 ADD DUP3 DUP1 SLOAD DUP1 ISZERO PUSH2 0x8BC JUMPI PUSH1 0x20 MUL DUP3 ADD SWAP2 SWAP1 PUSH1 0x0 MSTORE PUSH1 0x20 PUSH1 0x0 KECCAK256 SWAP1 JUMPDEST DUP2 SLOAD DUP2 MSTORE PUSH1 0x20 ADD SWAP1 PUSH1 0x1 ADD SWAP1 DUP1 DUP4 GT PUSH2 0x8A8 JUMPI JUMPDEST POP POP POP POP POP SWAP1 POP SWAP2 SWAP1 POP JUMP JUMPDEST PUSH1 0x60 PUSH1 0x3 DUP1 DUP4 PUSH1 0x40 MLOAD PUSH2 0x8DB SWAP2 SWAP1 PUSH2 0x5778 JUMP JUMPDEST SWAP1 DUP2 MSTORE PUSH1 0x20 ADD PUSH1 0x40 MLOAD DUP1 SWAP2 SUB SWAP1 KECCAK256 PUSH1 0x6 ADD PUSH1 0x40 MLOAD PUSH2 0x8F9 SWAP2 SWAP1 PUSH2 0x585E JUMP JUMPDEST SWAP1 DUP2 MSTORE PUSH1 0x20 ADD PUSH1 0x40 MLOAD DUP1 SWAP2 SUB SWAP1 KECCAK256 PUSH1 0x8 ADD DUP1 SLOAD DUP1 PUSH1 0x20 MUL PUSH1 0x20 ADD PUSH1 0x40 MLOAD SWAP1 DUP2 ADD PUSH1 0x40 MSTORE DUP1 SWAP3 SWAP2 SWAP1 DUP2 DUP2 MSTORE PUSH1 0x20 ADD DUP3 DUP1 SLOAD DUP1 ISZERO PUSH2 0x954 JUMPI PUSH1 0x20 MUL DUP3 ADD SWAP2 SWAP1 PUSH1 0x0 MSTORE PUSH1 0x20 PUSH1 0x0 KECCAK256 SWAP1 JUMPDEST DUP2 SLOAD DUP2 MSTORE PUSH1 0x20 ADD SWAP1 PUSH1 0x1 ADD SWAP1 DUP1 DUP4 GT PUSH2 0x940 JUMPI JUMPDEST POP POP POP POP POP SWAP1 POP SWAP2 SWAP1 POP JUMP JUMPDEST PUSH1 0x60 PUSH1 0x3 DUP3 PUSH1 0x40 MLOAD PUSH2 0x972 SWAP2 SWAP1 PUSH2 0x5778 JUMP JUMPDEST SWAP1 DUP2 MSTORE PUSH1 0x20 ADD PUSH1 0x40 MLOAD DUP1 SWAP2 SUB SWAP1 KECCAK256 PUSH1 0x7 ADD DUP1 SLOAD DUP1 PUSH1 0x20 MUL PUSH1 0x20 ADD PUSH1 0x40 MLOAD SWAP1 DUP2 ADD PUSH1 0x40 MSTORE DUP1 SWAP3 SWAP2 SWAP1 DUP2 DUP2 MSTORE PUSH1 0x20 ADD DUP3 DUP1 SLOAD DUP1 ISZERO PUSH2 0x9CD JUMPI PUSH1 0x20 MUL DUP3 ADD SWAP2 SWAP1 PUSH1 0x0 MSTORE PUSH1 0x20 PUSH1 0x0 KECCAK256 SWAP1 JUMPDEST DUP2 SLOAD DUP2 MSTORE PUSH1 0x20 ADD SWAP1 PUSH1 0x1 ADD SWAP1 DUP1 DUP4 GT PUSH2 0x9B9 JUMPI JUMPDEST POP POP POP POP POP SWAP1 POP SWAP2 SWAP1 POP JUMP JUMPDEST PUSH1 0x60 PUSH1 0x2 DUP3 PUSH1 0x40 MLOAD PUSH2 0x9EB SWAP2 SWAP1 PUSH2 0x5778 JUMP JUMPDEST SWAP1 DUP2 MSTORE PUSH1 0x20 ADD PUSH1 0x40 MLOAD DUP1 SWAP2 SUB SWAP1 KECCAK256 PUSH1 0x3 ADD DUP1 SLOAD DUP1 PUSH1 0x20 MUL PUSH1 0x20 ADD PUSH1 0x40 MLOAD SWAP1 DUP2 ADD PUSH1 0x40 MSTORE DUP1 SWAP3 SWAP2 SWAP1 DUP2 DUP2 MSTORE PUSH1 0x20 ADD DUP3 DUP1 SLOAD DUP1 ISZERO PUSH2 0xA46 JUMPI PUSH1 0x20 MUL DUP3 ADD SWAP2 SWAP1 PUSH1 0x0 MSTORE PUSH1 0x20 PUSH1 0x0 KECCAK256 SWAP1 JUMPDEST DUP2 SLOAD DUP2 MSTORE PUSH1 0x20 ADD SWAP1 PUSH1 0x1 ADD SWAP1 DUP1 DUP4 GT PUSH2 0xA32 JUMPI JUMPDEST POP POP POP POP POP SWAP1 POP SWAP2 SWAP1 POP JUMP JUMPDEST PUSH1 0x60 PUSH1 0x4 DUP3 PUSH1 0x40 MLOAD PUSH2 0xA64 SWAP2 SWAP1 PUSH2 0x5778 JUMP JUMPDEST SWAP1 DUP2 MSTORE PUSH1 0x20 ADD PUSH1 0x40 MLOAD DUP1 SWAP2 SUB SWAP1 KECCAK256 PUSH1 0x4 ADD DUP1 SLOAD DUP1 PUSH1 0x20 MUL PUSH1 0x20 ADD PUSH1 0x40 MLOAD SWAP1 DUP2 ADD PUSH1 0x40 MSTORE DUP1 SWAP3 SWAP2 SWAP1 DUP2 DUP2 MSTORE PUSH1 0x20 ADD PUSH1 0x0 SWAP1 JUMPDEST DUP3 DUP3 LT ISZERO PUSH2 0xB41 JUMPI DUP4 DUP3 SWAP1 PUSH1 0x0 MSTORE PUSH1 0x20 PUSH1 0x0 KECCAK256 ADD DUP1 SLOAD PUSH2 0xAB4 SWAP1 PUSH2 0x54C9 JUMP JUMPDEST DUP1 PUSH1 0x1F ADD PUSH1 0x20 DUP1 SWAP2 DIV MUL PUSH1 0x20 ADD PUSH1 0x40 MLOAD SWAP1 DUP2 ADD PUSH1 0x40 MSTORE DUP1 SWAP3 SWAP2 SWAP1 DUP2 DUP2 MSTORE PUSH1 0x20 ADD DUP3 DUP1 SLOAD PUSH2 0xAE0 SWAP1 PUSH2 0x54C9 JUMP JUMPDEST DUP1 ISZERO PUSH2 0xB2D JUMPI DUP1 PUSH1 0x1F LT PUSH2 0xB02 JUMPI PUSH2 0x100 DUP1 DUP4 SLOAD DIV MUL DUP4 MSTORE SWAP2 PUSH1 0x20 ADD SWAP2 PUSH2 0xB2D JUMP JUMPDEST DUP3 ADD SWAP2 SWAP1 PUSH1 0x0 MSTORE PUSH1 0x20 PUSH1 0x0 KECCAK256 SWAP1 JUMPDEST DUP2 SLOAD DUP2 MSTORE SWAP1 PUSH1 0x1 ADD SWAP1 PUSH1 0x20 ADD DUP1 DUP4 GT PUSH2 0xB10 JUMPI DUP3 SWAP1 SUB PUSH1 0x1F AND DUP3 ADD SWAP2 JUMPDEST POP POP POP POP POP DUP2 MSTORE PUSH1 0x20 ADD SWAP1 PUSH1 0x1 ADD SWAP1 PUSH2 0xA95 JUMP JUMPDEST POP POP POP POP SWAP1 POP SWAP2 SWAP1 POP JUMP JUMPDEST DUP1 PUSH1 0x3 DUP4 PUSH1 0x40 MLOAD PUSH2 0xB5D SWAP2 SWAP1 PUSH2 0x5778 JUMP JUMPDEST SWAP1 DUP2 MSTORE PUSH1 0x20 ADD PUSH1 0x40 MLOAD DUP1 SWAP2 SUB SWAP1 KECCAK256 PUSH1 0x6 ADD SWAP1 DUP2 PUSH2 0xB7A SWAP2 SWAP1 PUSH2 0x56A6 JUMP JUMPDEST POP PUSH1 0x4 DUP2 PUSH1 0x40 MLOAD PUSH2 0xB8B SWAP2 SWAP1 PUSH2 0x5778 JUMP JUMPDEST SWAP1 DUP2 MSTORE PUSH1 0x20 ADD PUSH1 0x40 MLOAD DUP1 SWAP2 SUB SWAP1 KECCAK256 PUSH1 0x4 ADD DUP3 SWAP1 DUP1 PUSH1 0x1 DUP2 SLOAD ADD DUP1 DUP3 SSTORE DUP1 SWAP2 POP POP PUSH1 0x1 SWAP1 SUB SWAP1 PUSH1 0x0 MSTORE PUSH1 0x20 PUSH1 0x0 KECCAK256 ADD PUSH1 0x0 SWAP1 SWAP2 SWAP1 SWAP2 SWAP1 SWAP2 POP SWAP1 DUP2 PUSH2 0xBCE SWAP2 SWAP1 PUSH2 0x56A6 JUMP JUMPDEST POP POP POP JUMP JUMPDEST PUSH2 0xBDB PUSH2 0x4A01 JUMP JUMPDEST PUSH1 0x60 DUP1 PUSH1 0x60 PUSH1 0x0 DUP1 PUSH1 0x3 DUP8 PUSH1 0x40 MLOAD PUSH2 0xBF3 SWAP2 SWAP1 PUSH2 0x5778 JUMP JUMPDEST SWAP1 DUP2 MSTORE PUSH1 0x20 ADD PUSH1 0x40 MLOAD DUP1 SWAP2 SUB SWAP1 KECCAK256 PUSH1 0x4 ADD DUP1 SLOAD SWAP1 POP SWAP1 POP PUSH1 0x0 DUP2 PUSH8 0xFFFFFFFFFFFFFFFF DUP2 GT ISZERO PUSH2 0xC26 JUMPI PUSH2 0xC25 PUSH2 0x4A8D JUMP JUMPDEST JUMPDEST PUSH1 0x40 MLOAD SWAP1 DUP1 DUP3 MSTORE DUP1 PUSH1 0x20 MUL PUSH1 0x20 ADD DUP3 ADD PUSH1 0x40 MSTORE DUP1 ISZERO PUSH2 0xC59 JUMPI DUP2 PUSH1 0x20 ADD JUMPDEST PUSH1 0x60 DUP2 MSTORE PUSH1 0x20 ADD SWAP1 PUSH1 0x1 SWAP1 SUB SWAP1 DUP2 PUSH2 0xC44 JUMPI SWAP1 POP JUMPDEST POP SWAP1 POP PUSH1 0x0 DUP3 PUSH8 0xFFFFFFFFFFFFFFFF DUP2 GT ISZERO PUSH2 0xC78 JUMPI PUSH2 0xC77 PUSH2 0x4A8D JUMP JUMPDEST JUMPDEST PUSH1 0x40 MLOAD SWAP1 DUP1 DUP3 MSTORE DUP1 PUSH1 0x20 MUL PUSH1 0x20 ADD DUP3 ADD PUSH1 0x40 MSTORE DUP1 ISZERO PUSH2 0xCAB JUMPI DUP2 PUSH1 0x20 ADD JUMPDEST PUSH1 0x60 DUP2 MSTORE PUSH1 0x20 ADD SWAP1 PUSH1 0x1 SWAP1 SUB SWAP1 DUP2 PUSH2 0xC96 JUMPI SWAP1 POP JUMPDEST POP SWAP1 POP PUSH1 0x0 DUP4 PUSH8 0xFFFFFFFFFFFFFFFF DUP2 GT ISZERO PUSH2 0xCCA JUMPI PUSH2 0xCC9 PUSH2 0x4A8D JUMP JUMPDEST JUMPDEST PUSH1 0x40 MLOAD SWAP1 DUP1 DUP3 MSTORE DUP1 PUSH1 0x20 MUL PUSH1 0x20 ADD DUP3 ADD PUSH1 0x40 MSTORE DUP1 ISZERO PUSH2 0xCF8 JUMPI DUP2 PUSH1 0x20 ADD PUSH1 0x20 DUP3 MUL DUP1 CALLDATASIZE DUP4 CALLDATACOPY DUP1 DUP3 ADD SWAP2 POP POP SWAP1 POP JUMPDEST POP SWAP1 POP PUSH1 0x0 DUP5 PUSH8 0xFFFFFFFFFFFFFFFF DUP2 GT ISZERO PUSH2 0xD17 JUMPI PUSH2 0xD16 PUSH2 0x4A8D JUMP JUMPDEST JUMPDEST PUSH1 0x40 MLOAD SWAP1 DUP1 DUP3 MSTORE DUP1 PUSH1 0x20 MUL PUSH1 0x20 ADD DUP3 ADD PUSH1 0x40 MSTORE DUP1 ISZERO PUSH2 0xD45 JUMPI DUP2 PUSH1 0x20 ADD PUSH1 0x20 DUP3 MUL DUP1 CALLDATASIZE DUP4 CALLDATACOPY DUP1 DUP3 ADD SWAP2 POP POP SWAP1 POP JUMPDEST POP SWAP1 POP PUSH1 0x0 DUP6 PUSH8 0xFFFFFFFFFFFFFFFF DUP2 GT ISZERO PUSH2 0xD64 JUMPI PUSH2 0xD63 PUSH2 0x4A8D JUMP JUMPDEST JUMPDEST PUSH1 0x40 MLOAD SWAP1 DUP1 DUP3 MSTORE DUP1 PUSH1 0x20 MUL PUSH1 0x20 ADD DUP3 ADD PUSH1 0x40 MSTORE DUP1 ISZERO PUSH2 0xD97 JUMPI DUP2 PUSH1 0x20 ADD JUMPDEST PUSH1 0x60 DUP2 MSTORE PUSH1 0x20 ADD SWAP1 PUSH1 0x1 SWAP1 SUB SWAP1 DUP2 PUSH2 0xD82 JUMPI SWAP1 POP JUMPDEST POP SWAP1 POP PUSH1 0x0 DUP7 PUSH8 0xFFFFFFFFFFFFFFFF DUP2 GT ISZERO PUSH2 0xDB6 JUMPI PUSH2 0xDB5 PUSH2 0x4A8D JUMP JUMPDEST JUMPDEST PUSH1 0x40 MLOAD SWAP1 DUP1 DUP3 MSTORE DUP1 PUSH1 0x20 MUL PUSH1 0x20 ADD DUP3 ADD PUSH1 0x40 MSTORE DUP1 ISZERO PUSH2 0xDE9 JUMPI DUP2 PUSH1 0x20 ADD JUMPDEST PUSH1 0x60 DUP2 MSTORE PUSH1 0x20 ADD SWAP1 PUSH1 0x1 SWAP1 SUB SWAP1 DUP2 PUSH2 0xDD4 JUMPI SWAP1 POP JUMPDEST POP SWAP1 POP PUSH1 0x0 SWAP8 POP JUMPDEST DUP7 DUP9 LT ISZERO PUSH2 0x12C7 JUMPI PUSH1 0x1 PUSH1 0x0 PUSH1 0x3 DUP16 PUSH1 0x40 MLOAD PUSH2 0xE0D SWAP2 SWAP1 PUSH2 0x5778 JUMP JUMPDEST SWAP1 DUP2 MSTORE PUSH1 0x20 ADD PUSH1 0x40 MLOAD DUP1 SWAP2 SUB SWAP1 KECCAK256 PUSH1 0x4 ADD DUP11 DUP2 SLOAD DUP2 LT PUSH2 0xE30 JUMPI PUSH2 0xE2F PUSH2 0x5875 JUMP JUMPDEST JUMPDEST SWAP1 PUSH1 0x0 MSTORE PUSH1 0x20 PUSH1 0x0 KECCAK256 ADD SLOAD DUP2 MSTORE PUSH1 0x20 ADD SWAP1 DUP2 MSTORE PUSH1 0x20 ADD PUSH1 0x0 KECCAK256 PUSH1 0x1 ADD DUP1 SLOAD PUSH2 0xE57 SWAP1 PUSH2 0x54C9 JUMP JUMPDEST DUP1 PUSH1 0x1F ADD PUSH1 0x20 DUP1 SWAP2 DIV MUL PUSH1 0x20 ADD PUSH1 0x40 MLOAD SWAP1 DUP2 ADD PUSH1 0x40 MSTORE DUP1 SWAP3 SWAP2 SWAP1 DUP2 DUP2 MSTORE PUSH1 0x20 ADD DUP3 DUP1 SLOAD PUSH2 0xE83 SWAP1 PUSH2 0x54C9 JUMP JUMPDEST DUP1 ISZERO PUSH2 0xED0 JUMPI DUP1 PUSH1 0x1F LT PUSH2 0xEA5 JUMPI PUSH2 0x100 DUP1 DUP4 SLOAD DIV MUL DUP4 MSTORE SWAP2 PUSH1 0x20 ADD SWAP2 PUSH2 0xED0 JUMP JUMPDEST DUP3 ADD SWAP2 SWAP1 PUSH1 0x0 MSTORE PUSH1 0x20 PUSH1 0x0 KECCAK256 SWAP1 JUMPDEST DUP2 SLOAD DUP2 MSTORE SWAP1 PUSH1 0x1 ADD SWAP1 PUSH1 0x20 ADD DUP1 DUP4 GT PUSH2 0xEB3 JUMPI DUP3 SWAP1 SUB PUSH1 0x1F AND DUP3 ADD SWAP2 JUMPDEST POP POP POP POP POP DUP7 DUP10 DUP2 MLOAD DUP2 LT PUSH2 0xEE8 JUMPI PUSH2 0xEE7 PUSH2 0x5875 JUMP JUMPDEST JUMPDEST PUSH1 0x20 MUL PUSH1 0x20 ADD ADD DUP2 SWAP1 MSTORE POP PUSH1 0x1 PUSH1 0x0 PUSH1 0x3 DUP16 PUSH1 0x40 MLOAD PUSH2 0xF07 SWAP2 SWAP1 PUSH2 0x5778 JUMP JUMPDEST SWAP1 DUP2 MSTORE PUSH1 0x20 ADD PUSH1 0x40 MLOAD DUP1 SWAP2 SUB SWAP1 KECCAK256 PUSH1 0x4 ADD DUP11 DUP2 SLOAD DUP2 LT PUSH2 0xF2A JUMPI PUSH2 0xF29 PUSH2 0x5875 JUMP JUMPDEST JUMPDEST SWAP1 PUSH1 0x0 MSTORE PUSH1 0x20 PUSH1 0x0 KECCAK256 ADD SLOAD DUP2 MSTORE PUSH1 0x20 ADD SWAP1 DUP2 MSTORE PUSH1 0x20 ADD PUSH1 0x0 KECCAK256 PUSH1 0x2 ADD DUP1 SLOAD PUSH2 0xF51 SWAP1 PUSH2 0x54C9 JUMP JUMPDEST DUP1 PUSH1 0x1F ADD PUSH1 0x20 DUP1 SWAP2 DIV MUL PUSH1 0x20 ADD PUSH1 0x40 MLOAD SWAP1 DUP2 ADD PUSH1 0x40 MSTORE DUP1 SWAP3 SWAP2 SWAP1 DUP2 DUP2 MSTORE PUSH1 0x20 ADD DUP3 DUP1 SLOAD PUSH2 0xF7D SWAP1 PUSH2 0x54C9 JUMP JUMPDEST DUP1 ISZERO PUSH2 0xFCA JUMPI DUP1 PUSH1 0x1F LT PUSH2 0xF9F JUMPI PUSH2 0x100 DUP1 DUP4 SLOAD DIV MUL DUP4 MSTORE SWAP2 PUSH1 0x20 ADD SWAP2 PUSH2 0xFCA JUMP JUMPDEST DUP3 ADD SWAP2 SWAP1 PUSH1 0x0 MSTORE PUSH1 0x20 PUSH1 0x0 KECCAK256 SWAP1 JUMPDEST DUP2 SLOAD DUP2 MSTORE SWAP1 PUSH1 0x1 ADD SWAP1 PUSH1 0x20 ADD DUP1 DUP4 GT PUSH2 0xFAD JUMPI DUP3 SWAP1 SUB PUSH1 0x1F AND DUP3 ADD SWAP2 JUMPDEST POP POP POP POP POP DUP6 DUP10 DUP2 MLOAD DUP2 LT PUSH2 0xFE2 JUMPI PUSH2 0xFE1 PUSH2 0x5875 JUMP JUMPDEST JUMPDEST PUSH1 0x20 MUL PUSH1 0x20 ADD ADD DUP2 SWAP1 MSTORE POP PUSH1 0x1 PUSH1 0x0 PUSH1 0x3 DUP16 PUSH1 0x40 MLOAD PUSH2 0x1001 SWAP2 SWAP1 PUSH2 0x5778 JUMP JUMPDEST SWAP1 DUP2 MSTORE PUSH1 0x20 ADD PUSH1 0x40 MLOAD DUP1 SWAP2 SUB SWAP1 KECCAK256 PUSH1 0x4 ADD DUP11 DUP2 SLOAD DUP2 LT PUSH2 0x1024 JUMPI PUSH2 0x1023 PUSH2 0x5875 JUMP JUMPDEST JUMPDEST SWAP1 PUSH1 0x0 MSTORE PUSH1 0x20 PUSH1 0x0 KECCAK256 ADD SLOAD DUP2 MSTORE PUSH1 0x20 ADD SWAP1 DUP2 MSTORE PUSH1 0x20 ADD PUSH1 0x0 KECCAK256 PUSH1 0x8 ADD PUSH1 0x0 ADD SLOAD DUP5 DUP10 DUP2 MLOAD DUP2 LT PUSH2 0x1057 JUMPI PUSH2 0x1056 PUSH2 0x5875 JUMP JUMPDEST JUMPDEST PUSH1 0x20 MUL PUSH1 0x20 ADD ADD DUP2 DUP2 MSTORE POP POP PUSH1 0x1 PUSH1 0x0 PUSH1 0x3 DUP16 PUSH1 0x40 MLOAD PUSH2 0x1077 SWAP2 SWAP1 PUSH2 0x5778 JUMP JUMPDEST SWAP1 DUP2 MSTORE PUSH1 0x20 ADD PUSH1 0x40 MLOAD DUP1 SWAP2 SUB SWAP1 KECCAK256 PUSH1 0x4 ADD DUP11 DUP2 SLOAD DUP2 LT PUSH2 0x109A JUMPI PUSH2 0x1099 PUSH2 0x5875 JUMP JUMPDEST JUMPDEST SWAP1 PUSH1 0x0 MSTORE PUSH1 0x20 PUSH1 0x0 KECCAK256 ADD SLOAD DUP2 MSTORE PUSH1 0x20 ADD SWAP1 DUP2 MSTORE PUSH1 0x20 ADD PUSH1 0x0 KECCAK256 PUSH1 0x3 ADD DUP1 SLOAD PUSH2 0x10C1 SWAP1 PUSH2 0x54C9 JUMP JUMPDEST DUP1 PUSH1 0x1F ADD PUSH1 0x20 DUP1 SWAP2 DIV MUL PUSH1 0x20 ADD PUSH1 0x40 MLOAD SWAP1 DUP2 ADD PUSH1 0x40 MSTORE DUP1 SWAP3 SWAP2 SWAP1 DUP2 DUP2 MSTORE PUSH1 0x20 ADD DUP3 DUP1 SLOAD PUSH2 0x10ED SWAP1 PUSH2 0x54C9 JUMP JUMPDEST DUP1 ISZERO PUSH2 0x113A JUMPI DUP1 PUSH1 0x1F LT PUSH2 0x110F JUMPI PUSH2 0x100 DUP1 DUP4 SLOAD DIV MUL DUP4 MSTORE SWAP2 PUSH1 0x20 ADD SWAP2 PUSH2 0x113A JUMP JUMPDEST DUP3 ADD SWAP2 SWAP1 PUSH1 0x0 MSTORE PUSH1 0x20 PUSH1 0x0 KECCAK256 SWAP1 JUMPDEST DUP2 SLOAD DUP2 MSTORE SWAP1 PUSH1 0x1 ADD SWAP1 PUSH1 0x20 ADD DUP1 DUP4 GT PUSH2 0x111D JUMPI DUP3 SWAP1 SUB PUSH1 0x1F AND DUP3 ADD SWAP2 JUMPDEST POP POP POP POP POP DUP3 DUP10 DUP2 MLOAD DUP2 LT PUSH2 0x1152 JUMPI PUSH2 0x1151 PUSH2 0x5875 JUMP JUMPDEST JUMPDEST PUSH1 0x20 MUL PUSH1 0x20 ADD ADD DUP2 SWAP1 MSTORE POP PUSH1 0x3 DUP14 PUSH1 0x40 MLOAD PUSH2 0x116D SWAP2 SWAP1 PUSH2 0x5778 JUMP JUMPDEST SWAP1 DUP2 MSTORE PUSH1 0x20 ADD PUSH1 0x40 MLOAD DUP1 SWAP2 SUB SWAP1 KECCAK256 PUSH1 0x4 ADD DUP9 DUP2 SLOAD DUP2 LT PUSH2 0x1190 JUMPI PUSH2 0x118F PUSH2 0x5875 JUMP JUMPDEST JUMPDEST SWAP1 PUSH1 0x0 MSTORE PUSH1 0x20 PUSH1 0x0 KECCAK256 ADD SLOAD DUP4 DUP10 DUP2 MLOAD DUP2 LT PUSH2 0x11AE JUMPI PUSH2 0x11AD PUSH2 0x5875 JUMP JUMPDEST JUMPDEST PUSH1 0x20 MUL PUSH1 0x20 ADD ADD DUP2 DUP2 MSTORE POP POP PUSH1 0x1 PUSH1 0x0 PUSH1 0x3 DUP16 PUSH1 0x40 MLOAD PUSH2 0x11CE SWAP2 SWAP1 PUSH2 0x5778 JUMP JUMPDEST SWAP1 DUP2 MSTORE PUSH1 0x20 ADD PUSH1 0x40 MLOAD DUP1 SWAP2 SUB SWAP1 KECCAK256 PUSH1 0x4 ADD DUP11 DUP2 SLOAD DUP2 LT PUSH2 0x11F1 JUMPI PUSH2 0x11F0 PUSH2 0x5875 JUMP JUMPDEST JUMPDEST SWAP1 PUSH1 0x0 MSTORE PUSH1 0x20 PUSH1 0x0 KECCAK256 ADD SLOAD DUP2 MSTORE PUSH1 0x20 ADD SWAP1 DUP2 MSTORE PUSH1 0x20 ADD PUSH1 0x0 KECCAK256 PUSH1 0x4 ADD DUP1 SLOAD PUSH2 0x1218 SWAP1 PUSH2 0x54C9 JUMP JUMPDEST DUP1 PUSH1 0x1F ADD PUSH1 0x20 DUP1 SWAP2 DIV MUL PUSH1 0x20 ADD PUSH1 0x40 MLOAD SWAP1 DUP2 ADD PUSH1 0x40 MSTORE DUP1 SWAP3 SWAP2 SWAP1 DUP2 DUP2 MSTORE PUSH1 0x20 ADD DUP3 DUP1 SLOAD PUSH2 0x1244 SWAP1 PUSH2 0x54C9 JUMP JUMPDEST DUP1 ISZERO PUSH2 0x1291 JUMPI DUP1 PUSH1 0x1F LT PUSH2 0x1266 JUMPI PUSH2 0x100 DUP1 DUP4 SLOAD DIV MUL DUP4 MSTORE SWAP2 PUSH1 0x20 ADD SWAP2 PUSH2 0x1291 JUMP JUMPDEST DUP3 ADD SWAP2 SWAP1 PUSH1 0x0 MSTORE PUSH1 0x20 PUSH1 0x0 KECCAK256 SWAP1 JUMPDEST DUP2 SLOAD DUP2 MSTORE SWAP1 PUSH1 0x1 ADD SWAP1 PUSH1 0x20 ADD DUP1 DUP4 GT PUSH2 0x1274 JUMPI DUP3 SWAP1 SUB PUSH1 0x1F AND DUP3 ADD SWAP2 JUMPDEST POP POP POP POP POP DUP2 DUP10 DUP2 MLOAD DUP2 LT PUSH2 0x12A9 JUMPI PUSH2 0x12A8 PUSH2 0x5875 JUMP JUMPDEST JUMPDEST PUSH1 0x20 MUL PUSH1 0x20 ADD ADD DUP2 SWAP1 MSTORE POP DUP8 DUP1 PUSH2 0x12BF SWAP1 PUSH2 0x58D3 JUMP JUMPDEST SWAP9 POP POP PUSH2 0xDF1 JUMP JUMPDEST PUSH1 0x40 MLOAD DUP1 PUSH1 0x60 ADD PUSH1 0x40 MSTORE DUP1 DUP8 DUP2 MSTORE PUSH1 0x20 ADD DUP7 DUP2 MSTORE PUSH1 0x20 ADD DUP4 DUP2 MSTORE POP DUP4 DUP6 DUP4 SWAP12 POP SWAP12 POP SWAP12 POP SWAP12 POP POP POP POP POP POP POP POP POP SWAP2 SWAP4 POP SWAP2 SWAP4 JUMP JUMPDEST PUSH1 0x40 MLOAD DUP1 PUSH1 0x40 ADD PUSH1 0x40 MSTORE DUP1 PUSH1 0x8 DUP2 MSTORE PUSH1 0x20 ADD PUSH32 0x6163636570746564000000000000000000000000000000000000000000000000 DUP2 MSTORE POP PUSH1 0x1 PUSH1 0x0 DUP6 DUP2 MSTORE PUSH1 0x20 ADD SWAP1 DUP2 MSTORE PUSH1 0x20 ADD PUSH1 0x0 KECCAK256 PUSH1 0x3 ADD SWAP1 DUP2 PUSH2 0x1354 SWAP2 SWAP1 PUSH2 0x56A6 JUMP JUMPDEST POP PUSH1 0x1 PUSH1 0x0 DUP5 DUP2 MSTORE PUSH1 0x20 ADD SWAP1 DUP2 MSTORE PUSH1 0x20 ADD PUSH1 0x0 KECCAK256 PUSH1 0x5 ADD DUP3 PUSH1 0x40 MLOAD PUSH1 0x20 ADD PUSH2 0x137C SWAP2 SWAP1 PUSH2 0x5941 JUMP JUMPDEST PUSH1 0x40 MLOAD PUSH1 0x20 DUP2 DUP4 SUB SUB DUP2 MSTORE SWAP1 PUSH1 0x40 MSTORE SWAP1 DUP1 PUSH1 0x1 DUP2 SLOAD ADD DUP1 DUP3 SSTORE DUP1 SWAP2 POP POP PUSH1 0x1 SWAP1 SUB SWAP1 PUSH1 0x0 MSTORE PUSH1 0x20 PUSH1 0x0 KECCAK256 ADD PUSH1 0x0 SWAP1 SWAP2 SWAP1 SWAP2 SWAP1 SWAP2 POP SWAP1 DUP2 PUSH2 0x13BC SWAP2 SWAP1 PUSH2 0x56A6 JUMP JUMPDEST POP PUSH1 0x1 PUSH1 0x0 DUP5 DUP2 MSTORE PUSH1 0x20 ADD SWAP1 DUP2 MSTORE PUSH1 0x20 ADD PUSH1 0x0 KECCAK256 PUSH1 0x6 ADD TIMESTAMP SWAP1 DUP1 PUSH1 0x1 DUP2 SLOAD ADD DUP1 DUP3 SSTORE DUP1 SWAP2 POP POP PUSH1 0x1 SWAP1 SUB SWAP1 PUSH1 0x0 MSTORE PUSH1 0x20 PUSH1 0x0 KECCAK256 ADD PUSH1 0x0 SWAP1 SWAP2 SWAP1 SWAP2 SWAP1 SWAP2 POP SSTORE DUP2 PUSH1 0x1 PUSH1 0x0 DUP6 DUP2 MSTORE PUSH1 0x20 ADD SWAP1 DUP2 MSTORE PUSH1 0x20 ADD PUSH1 0x0 KECCAK256 PUSH1 0x7 ADD SWAP1 DUP2 PUSH2 0x141D SWAP2 SWAP1 PUSH2 0x56A6 JUMP JUMPDEST POP PUSH1 0x3 DUP2 PUSH1 0x40 MLOAD PUSH2 0x142E SWAP2 SWAP1 PUSH2 0x5778 JUMP JUMPDEST SWAP1 DUP2 MSTORE PUSH1 0x20 ADD PUSH1 0x40 MLOAD DUP1 SWAP2 SUB SWAP1 KECCAK256 PUSH1 0x7 ADD DUP4 SWAP1 DUP1 PUSH1 0x1 DUP2 SLOAD ADD DUP1 DUP3 SSTORE DUP1 SWAP2 POP POP PUSH1 0x1 SWAP1 SUB SWAP1 PUSH1 0x0 MSTORE PUSH1 0x20 PUSH1 0x0 KECCAK256 ADD PUSH1 0x0 SWAP1 SWAP2 SWAP1 SWAP2 SWAP1 SWAP2 POP SSTORE PUSH1 0x4 DUP3 PUSH1 0x40 MLOAD PUSH2 0x1476 SWAP2 SWAP1 PUSH2 0x5778 JUMP JUMPDEST SWAP1 DUP2 MSTORE PUSH1 0x20 ADD PUSH1 0x40 MLOAD DUP1 SWAP2 SUB SWAP1 KECCAK256 PUSH1 0x5 ADD DUP4 SWAP1 DUP1 PUSH1 0x1 DUP2 SLOAD ADD DUP1 DUP3 SSTORE DUP1 SWAP2 POP POP PUSH1 0x1 SWAP1 SUB SWAP1 PUSH1 0x0 MSTORE PUSH1 0x20 PUSH1 0x0 KECCAK256 ADD PUSH1 0x0 SWAP1 SWAP2 SWAP1 SWAP2 SWAP1 SWAP2 POP SSTORE PUSH1 0x0 JUMPDEST PUSH1 0x3 DUP3 PUSH1 0x40 MLOAD PUSH2 0x14C1 SWAP2 SWAP1 PUSH2 0x5778 JUMP JUMPDEST SWAP1 DUP2 MSTORE PUSH1 0x20 ADD PUSH1 0x40 MLOAD DUP1 SWAP2 SUB SWAP1 KECCAK256 PUSH1 0x4 ADD DUP1 SLOAD SWAP1 POP DUP2 LT ISZERO PUSH2 0x16A1 JUMPI DUP4 PUSH1 0x3 DUP4 PUSH1 0x40 MLOAD PUSH2 0x14EE SWAP2 SWAP1 PUSH2 0x5778 JUMP JUMPDEST SWAP1 DUP2 MSTORE PUSH1 0x20 ADD PUSH1 0x40 MLOAD DUP1 SWAP2 SUB SWAP1 KECCAK256 PUSH1 0x4 ADD DUP3 DUP2 SLOAD DUP2 LT PUSH2 0x1511 JUMPI PUSH2 0x1510 PUSH2 0x5875 JUMP JUMPDEST JUMPDEST SWAP1 PUSH1 0x0 MSTORE PUSH1 0x20 PUSH1 0x0 KECCAK256 ADD SLOAD SUB PUSH2 0x168E JUMPI PUSH1 0x3 DUP3 PUSH1 0x40 MLOAD PUSH2 0x1531 SWAP2 SWAP1 PUSH2 0x5778 JUMP JUMPDEST SWAP1 DUP2 MSTORE PUSH1 0x20 ADD PUSH1 0x40 MLOAD DUP1 SWAP2 SUB SWAP1 KECCAK256 PUSH1 0x4 ADD PUSH1 0x1 PUSH1 0x3 DUP5 PUSH1 0x40 MLOAD PUSH2 0x1554 SWAP2 SWAP1 PUSH2 0x5778 JUMP JUMPDEST SWAP1 DUP2 MSTORE PUSH1 0x20 ADD PUSH1 0x40 MLOAD DUP1 SWAP2 SUB SWAP1 KECCAK256 PUSH1 0x4 ADD DUP1 SLOAD SWAP1 POP PUSH2 0x1573 SWAP2 SWAP1 PUSH2 0x5967 JUMP JUMPDEST DUP2 SLOAD DUP2 LT PUSH2 0x1584 JUMPI PUSH2 0x1583 PUSH2 0x5875 JUMP JUMPDEST JUMPDEST SWAP1 PUSH1 0x0 MSTORE PUSH1 0x20 PUSH1 0x0 KECCAK256 ADD SLOAD PUSH1 0x3 DUP4 PUSH1 0x40 MLOAD PUSH2 0x159F SWAP2 SWAP1 PUSH2 0x5778 JUMP JUMPDEST SWAP1 DUP2 MSTORE PUSH1 0x20 ADD PUSH1 0x40 MLOAD DUP1 SWAP2 SUB SWAP1 KECCAK256 PUSH1 0x4 ADD DUP3 DUP2 SLOAD DUP2 LT PUSH2 0x15C2 JUMPI PUSH2 0x15C1 PUSH2 0x5875 JUMP JUMPDEST JUMPDEST SWAP1 PUSH1 0x0 MSTORE PUSH1 0x20 PUSH1 0x0 KECCAK256 ADD DUP2 SWAP1 SSTORE POP DUP4 PUSH1 0x3 DUP4 PUSH1 0x40 MLOAD PUSH2 0x15E1 SWAP2 SWAP1 PUSH2 0x5778 JUMP JUMPDEST SWAP1 DUP2 MSTORE PUSH1 0x20 ADD PUSH1 0x40 MLOAD DUP1 SWAP2 SUB SWAP1 KECCAK256 PUSH1 0x4 ADD PUSH1 0x1 PUSH1 0x3 DUP6 PUSH1 0x40 MLOAD PUSH2 0x1604 SWAP2 SWAP1 PUSH2 0x5778 JUMP JUMPDEST SWAP1 DUP2 MSTORE PUSH1 0x20 ADD PUSH1 0x40 MLOAD DUP1 SWAP2 SUB SWAP1 KECCAK256 PUSH1 0x4 ADD DUP1 SLOAD SWAP1 POP PUSH2 0x1623 SWAP2 SWAP1 PUSH2 0x5967 JUMP JUMPDEST DUP2 SLOAD DUP2 LT PUSH2 0x1634 JUMPI PUSH2 0x1633 PUSH2 0x5875 JUMP JUMPDEST JUMPDEST SWAP1 PUSH1 0x0 MSTORE PUSH1 0x20 PUSH1 0x0 KECCAK256 ADD DUP2 SWAP1 SSTORE POP PUSH1 0x3 DUP3 PUSH1 0x40 MLOAD PUSH2 0x1652 SWAP2 SWAP1 PUSH2 0x5778 JUMP JUMPDEST SWAP1 DUP2 MSTORE PUSH1 0x20 ADD PUSH1 0x40 MLOAD DUP1 SWAP2 SUB SWAP1 KECCAK256 PUSH1 0x4 ADD DUP1 SLOAD DUP1 PUSH2 0x1673 JUMPI PUSH2 0x1672 PUSH2 0x599B JUMP JUMPDEST JUMPDEST PUSH1 0x1 SWAP1 SUB DUP2 DUP2 SWAP1 PUSH1 0x0 MSTORE PUSH1 0x20 PUSH1 0x0 KECCAK256 ADD PUSH1 0x0 SWAP1 SSTORE SWAP1 SSTORE PUSH2 0x16A1 JUMP JUMPDEST DUP1 DUP1 PUSH2 0x1699 SWAP1 PUSH2 0x58D3 JUMP JUMPDEST SWAP2 POP POP PUSH2 0x14B1 JUMP JUMPDEST POP POP POP POP JUMP JUMPDEST PUSH1 0x1 PUSH1 0x0 DUP4 DUP2 MSTORE PUSH1 0x20 ADD SWAP1 DUP2 MSTORE PUSH1 0x20 ADD PUSH1 0x0 KECCAK256 PUSH1 0x5 ADD DUP2 PUSH1 0x40 MLOAD PUSH1 0x20 ADD PUSH2 0x16CE SWAP2 SWAP1 PUSH2 0x59F0 JUMP JUMPDEST PUSH1 0x40 MLOAD PUSH1 0x20 DUP2 DUP4 SUB SUB DUP2 MSTORE SWAP1 PUSH1 0x40 MSTORE SWAP1 DUP1 PUSH1 0x1 DUP2 SLOAD ADD DUP1 DUP3 SSTORE DUP1 SWAP2 POP POP PUSH1 0x1 SWAP1 SUB SWAP1 PUSH1 0x0 MSTORE PUSH1 0x20 PUSH1 0x0 KECCAK256 ADD PUSH1 0x0 SWAP1 SWAP2 SWAP1 SWAP2 SWAP1 SWAP2 POP SWAP1 DUP2 PUSH2 0x170E SWAP2 SWAP1 PUSH2 0x56A6 JUMP JUMPDEST POP PUSH1 0x1 PUSH1 0x0 DUP4 DUP2 MSTORE PUSH1 0x20 ADD SWAP1 DUP2 MSTORE PUSH1 0x20 ADD PUSH1 0x0 KECCAK256 PUSH1 0x6 ADD TIMESTAMP SWAP1 DUP1 PUSH1 0x1 DUP2 SLOAD ADD DUP1 DUP3 SSTORE DUP1 SWAP2 POP POP PUSH1 0x1 SWAP1 SUB SWAP1 PUSH1 0x0 MSTORE PUSH1 0x20 PUSH1 0x0 KECCAK256 ADD PUSH1 0x0 SWAP1 SWAP2 SWAP1 SWAP2 SWAP1 SWAP2 POP SSTORE PUSH1 0x3 DUP2 PUSH1 0x40 MLOAD PUSH2 0x175C SWAP2 SWAP1 PUSH2 0x5778 JUMP JUMPDEST SWAP1 DUP2 MSTORE PUSH1 0x20 ADD PUSH1 0x40 MLOAD DUP1 SWAP2 SUB SWAP1 KECCAK256 PUSH1 0x4 ADD DUP3 SWAP1 DUP1 PUSH1 0x1 DUP2 SLOAD ADD DUP1 DUP3 SSTORE DUP1 SWAP2 POP POP PUSH1 0x1 SWAP1 SUB SWAP1 PUSH1 0x0 MSTORE PUSH1 0x20 PUSH1 0x0 KECCAK256 ADD PUSH1 0x0 SWAP1 SWAP2 SWAP1 SWAP2 SWAP1 SWAP2 POP SSTORE PUSH1 0x0 JUMPDEST PUSH1 0x3 DUP3 PUSH1 0x40 MLOAD PUSH2 0x17A7 SWAP2 SWAP1 PUSH2 0x5778 JUMP JUMPDEST SWAP1 DUP2 MSTORE PUSH1 0x20 ADD PUSH1 0x40 MLOAD DUP1 SWAP2 SUB SWAP1 KECCAK256 PUSH1 0x3 ADD DUP1 SLOAD SWAP1 POP DUP2 LT ISZERO PUSH2 0x1911 JUMPI DUP3 PUSH1 0x3 DUP4 PUSH1 0x40 MLOAD PUSH2 0x17D4 SWAP2 SWAP1 PUSH2 0x5778 JUMP JUMPDEST SWAP1 DUP2 MSTORE PUSH1 0x20 ADD PUSH1 0x40 MLOAD DUP1 SWAP2 SUB SWAP1 KECCAK256 PUSH1 0x3 ADD DUP3 DUP2 SLOAD DUP2 LT PUSH2 0x17F7 JUMPI PUSH2 0x17F6 PUSH2 0x5875 JUMP JUMPDEST JUMPDEST SWAP1 PUSH1 0x0 MSTORE PUSH1 0x20 PUSH1 0x0 KECCAK256 ADD SLOAD SUB PUSH2 0x18FE JUMPI PUSH1 0x3 DUP3 PUSH1 0x40 MLOAD PUSH2 0x1817 SWAP2 SWAP1 PUSH2 0x5778 JUMP JUMPDEST SWAP1 DUP2 MSTORE PUSH1 0x20 ADD PUSH1 0x40 MLOAD DUP1 SWAP2 SUB SWAP1 KECCAK256 PUSH1 0x3 ADD PUSH1 0x1 PUSH1 0x3 DUP5 PUSH1 0x40 MLOAD PUSH2 0x183A SWAP2 SWAP1 PUSH2 0x5778 JUMP JUMPDEST SWAP1 DUP2 MSTORE PUSH1 0x20 ADD PUSH1 0x40 MLOAD DUP1 SWAP2 SUB SWAP1 KECCAK256 PUSH1 0x3 ADD DUP1 SLOAD SWAP1 POP PUSH2 0x1859 SWAP2 SWAP1 PUSH2 0x5967 JUMP JUMPDEST DUP2 SLOAD DUP2 LT PUSH2 0x186A JUMPI PUSH2 0x1869 PUSH2 0x5875 JUMP JUMPDEST JUMPDEST SWAP1 PUSH1 0x0 MSTORE PUSH1 0x20 PUSH1 0x0 KECCAK256 ADD SLOAD PUSH1 0x3 DUP4 PUSH1 0x40 MLOAD PUSH2 0x1885 SWAP2 SWAP1 PUSH2 0x5778 JUMP JUMPDEST SWAP1 DUP2 MSTORE PUSH1 0x20 ADD PUSH1 0x40 MLOAD DUP1 SWAP2 SUB SWAP1 KECCAK256 PUSH1 0x3 ADD DUP3 DUP2 SLOAD DUP2 LT PUSH2 0x18A8 JUMPI PUSH2 0x18A7 PUSH2 0x5875 JUMP JUMPDEST JUMPDEST SWAP1 PUSH1 0x0 MSTORE PUSH1 0x20 PUSH1 0x0 KECCAK256 ADD DUP2 SWAP1 SSTORE POP PUSH1 0x3 DUP3 PUSH1 0x40 MLOAD PUSH2 0x18C6 SWAP2 SWAP1 PUSH2 0x5778 JUMP JUMPDEST SWAP1 DUP2 MSTORE PUSH1 0x20 ADD PUSH1 0x40 MLOAD DUP1 SWAP2 SUB SWAP1 KECCAK256 PUSH1 0x3 ADD DUP1 SLOAD DUP1 PUSH2 0x18E7 JUMPI PUSH2 0x18E6 PUSH2 0x599B JUMP JUMPDEST JUMPDEST PUSH1 0x1 SWAP1 SUB DUP2 DUP2 SWAP1 PUSH1 0x0 MSTORE PUSH1 0x20 PUSH1 0x0 KECCAK256 ADD PUSH1 0x0 SWAP1 SSTORE SWAP1 SSTORE JUMPDEST DUP1 DUP1 PUSH2 0x1909 SWAP1 PUSH2 0x58D3 JUMP JUMPDEST SWAP2 POP POP PUSH2 0x1797 JUMP JUMPDEST POP POP POP JUMP JUMPDEST PUSH1 0x60 DUP1 PUSH1 0x4 DUP5 PUSH1 0x40 MLOAD PUSH2 0x1929 SWAP2 SWAP1 PUSH2 0x5778 JUMP JUMPDEST SWAP1 DUP2 MSTORE PUSH1 0x20 ADD PUSH1 0x40 MLOAD DUP1 SWAP2 SUB SWAP1 KECCAK256 PUSH1 0x5 ADD PUSH1 0x3 DUP5 PUSH1 0x40 MLOAD PUSH2 0x194A SWAP2 SWAP1 PUSH2 0x5778 JUMP JUMPDEST SWAP1 DUP2 MSTORE PUSH1 0x20 ADD PUSH1 0x40 MLOAD DUP1 SWAP2 SUB SWAP1 KECCAK256 PUSH1 0x7 ADD DUP2 DUP1 SLOAD DUP1 PUSH1 0x20 MUL PUSH1 0x20 ADD PUSH1 0x40 MLOAD SWAP1 DUP2 ADD PUSH1 0x40 MSTORE DUP1 SWAP3 SWAP2 SWAP1 DUP2 DUP2 MSTORE PUSH1 0x20 ADD DUP3 DUP1 SLOAD DUP1 ISZERO PUSH2 0x19A6 JUMPI PUSH1 0x20 MUL DUP3 ADD SWAP2 SWAP1 PUSH1 0x0 MSTORE PUSH1 0x20 PUSH1 0x0 KECCAK256 SWAP1 JUMPDEST DUP2 SLOAD DUP2 MSTORE PUSH1 0x20 ADD SWAP1 PUSH1 0x1 ADD SWAP1 DUP1 DUP4 GT PUSH2 0x1992 JUMPI JUMPDEST POP POP POP POP POP SWAP2 POP DUP1 DUP1 SLOAD DUP1 PUSH1 0x20 MUL PUSH1 0x20 ADD PUSH1 0x40 MLOAD SWAP1 DUP2 ADD PUSH1 0x40 MSTORE DUP1 SWAP3 SWAP2 SWAP1 DUP2 DUP2 MSTORE PUSH1 0x20 ADD DUP3 DUP1 SLOAD DUP1 ISZERO PUSH2 0x19F8 JUMPI PUSH1 0x20 MUL DUP3 ADD SWAP2 SWAP1 PUSH1 0x0 MSTORE PUSH1 0x20 PUSH1 0x0 KECCAK256 SWAP1 JUMPDEST DUP2 SLOAD DUP2 MSTORE PUSH1 0x20 ADD SWAP1 PUSH1 0x1 ADD SWAP1 DUP1 DUP4 GT PUSH2 0x19E4 JUMPI JUMPDEST POP POP POP POP POP SWAP1 POP SWAP2 POP SWAP2 POP SWAP3 POP SWAP3 SWAP1 POP JUMP JUMPDEST PUSH1 0x60 PUSH1 0x3 DUP3 PUSH1 0x40 MLOAD PUSH2 0x1A1C SWAP2 SWAP1 PUSH2 0x5778 JUMP JUMPDEST SWAP1 DUP2 MSTORE PUSH1 0x20 ADD PUSH1 0x40 MLOAD DUP1 SWAP2 SUB SWAP1 KECCAK256 PUSH1 0x5 ADD DUP1 SLOAD DUP1 PUSH1 0x20 MUL PUSH1 0x20 ADD PUSH1 0x40 MLOAD SWAP1 DUP2 ADD PUSH1 0x40 MSTORE DUP1 SWAP3 SWAP2 SWAP1 DUP2 DUP2 MSTORE PUSH1 0x20 ADD PUSH1 0x0 SWAP1 JUMPDEST DUP3 DUP3 LT ISZERO PUSH2 0x1AF9 JUMPI DUP4 DUP3 SWAP1 PUSH1 0x0 MSTORE PUSH1 0x20 PUSH1 0x0 KECCAK256 ADD DUP1 SLOAD PUSH2 0x1A6C SWAP1 PUSH2 0x54C9 JUMP JUMPDEST DUP1 PUSH1 0x1F ADD PUSH1 0x20 DUP1 SWAP2 DIV MUL PUSH1 0x20 ADD PUSH1 0x40 MLOAD SWAP1 DUP2 ADD PUSH1 0x40 MSTORE DUP1 SWAP3 SWAP2 SWAP1 DUP2 DUP2 MSTORE PUSH1 0x20 ADD DUP3 DUP1 SLOAD PUSH2 0x1A98 SWAP1 PUSH2 0x54C9 JUMP JUMPDEST DUP1 ISZERO PUSH2 0x1AE5 JUMPI DUP1 PUSH1 0x1F LT PUSH2 0x1ABA JUMPI PUSH2 0x100 DUP1 DUP4 SLOAD DIV MUL DUP4 MSTORE SWAP2 PUSH1 0x20 ADD SWAP2 PUSH2 0x1AE5 JUMP JUMPDEST DUP3 ADD SWAP2 SWAP1 PUSH1 0x0 MSTORE PUSH1 0x20 PUSH1 0x0 KECCAK256 SWAP1 JUMPDEST DUP2 SLOAD DUP2 MSTORE SWAP1 PUSH1 0x1 ADD SWAP1 PUSH1 0x20 ADD DUP1 DUP4 GT PUSH2 0x1AC8 JUMPI DUP3 SWAP1 SUB PUSH1 0x1F AND DUP3 ADD SWAP2 JUMPDEST POP POP POP POP POP DUP2 MSTORE PUSH1 0x20 ADD SWAP1 PUSH1 0x1 ADD SWAP1 PUSH2 0x1A4D JUMP JUMPDEST POP POP POP POP SWAP1 POP SWAP2 SWAP1 POP JUMP JUMPDEST PUSH1 0x60 PUSH1 0x4 DUP3 PUSH1 0x40 MLOAD PUSH2 0x1B16 SWAP2 SWAP1 PUSH2 0x5778 JUMP JUMPDEST SWAP1 DUP2 MSTORE PUSH1 0x20 ADD PUSH1 0x40 MLOAD DUP1 SWAP2 SUB SWAP1 KECCAK256 PUSH1 0x2 ADD DUP1 SLOAD DUP1 PUSH1 0x20 MUL PUSH1 0x20 ADD PUSH1 0x40 MLOAD SWAP1 DUP2 ADD PUSH1 0x40 MSTORE DUP1 SWAP3 SWAP2 SWAP1 DUP2 DUP2 MSTORE PUSH1 0x20 ADD DUP3 DUP1 SLOAD DUP1 ISZERO PUSH2 0x1B71 JUMPI PUSH1 0x20 MUL DUP3 ADD SWAP2 SWAP1 PUSH1 0x0 MSTORE PUSH1 0x20 PUSH1 0x0 KECCAK256 SWAP1 JUMPDEST DUP2 SLOAD DUP2 MSTORE PUSH1 0x20 ADD SWAP1 PUSH1 0x1 ADD SWAP1 DUP1 DUP4 GT PUSH2 0x1B5D JUMPI JUMPDEST POP POP POP POP POP SWAP1 POP SWAP2 SWAP1 POP JUMP JUMPDEST PUSH1 0x0 DUP1 SLOAD SWAP1 POP SWAP1 JUMP JUMPDEST PUSH2 0x1B8E PUSH2 0x4A01 JUMP JUMPDEST PUSH1 0x60 DUP1 PUSH1 0x60 PUSH1 0x0 DUP1 PUSH1 0x2 DUP8 PUSH1 0x40 MLOAD PUSH2 0x1BA6 SWAP2 SWAP1 PUSH2 0x5778 JUMP JUMPDEST SWAP1 DUP2 MSTORE PUSH1 0x20 ADD PUSH1 0x40 MLOAD DUP1 SWAP2 SUB SWAP1 KECCAK256 PUSH1 0x1 ADD DUP1 SLOAD SWAP1 POP SWAP1 POP PUSH1 0x0 DUP2 PUSH8 0xFFFFFFFFFFFFFFFF DUP2 GT ISZERO PUSH2 0x1BD9 JUMPI PUSH2 0x1BD8 PUSH2 0x4A8D JUMP JUMPDEST JUMPDEST PUSH1 0x40 MLOAD SWAP1 DUP1 DUP3 MSTORE DUP1 PUSH1 0x20 MUL PUSH1 0x20 ADD DUP3 ADD PUSH1 0x40 MSTORE DUP1 ISZERO PUSH2 0x1C0C JUMPI DUP2 PUSH1 0x20 ADD JUMPDEST PUSH1 0x60 DUP2 MSTORE PUSH1 0x20 ADD SWAP1 PUSH1 0x1 SWAP1 SUB SWAP1 DUP2 PUSH2 0x1BF7 JUMPI SWAP1 POP JUMPDEST POP SWAP1 POP PUSH1 0x0 DUP3 PUSH8 0xFFFFFFFFFFFFFFFF DUP2 GT ISZERO PUSH2 0x1C2B JUMPI PUSH2 0x1C2A PUSH2 0x4A8D JUMP JUMPDEST JUMPDEST PUSH1 0x40 MLOAD SWAP1 DUP1 DUP3 MSTORE DUP1 PUSH1 0x20 MUL PUSH1 0x20 ADD DUP3 ADD PUSH1 0x40 MSTORE DUP1 ISZERO PUSH2 0x1C5E JUMPI DUP2 PUSH1 0x20 ADD JUMPDEST PUSH1 0x60 DUP2 MSTORE PUSH1 0x20 ADD SWAP1 PUSH1 0x1 SWAP1 SUB SWAP1 DUP2 PUSH2 0x1C49 JUMPI SWAP1 POP JUMPDEST POP SWAP1 POP PUSH1 0x0 DUP4 PUSH8 0xFFFFFFFFFFFFFFFF DUP2 GT ISZERO PUSH2 0x1C7D JUMPI PUSH2 0x1C7C PUSH2 0x4A8D JUMP JUMPDEST JUMPDEST PUSH1 0x40 MLOAD SWAP1 DUP1 DUP3 MSTORE DUP1 PUSH1 0x20 MUL PUSH1 0x20 ADD DUP3 ADD PUSH1 0x40 MSTORE DUP1 ISZERO PUSH2 0x1CAB JUMPI DUP2 PUSH1 0x20 ADD PUSH1 0x20 DUP3 MUL DUP1 CALLDATASIZE DUP4 CALLDATACOPY DUP1 DUP3 ADD SWAP2 POP POP SWAP1 POP JUMPDEST POP SWAP1 POP PUSH1 0x0 DUP5 PUSH8 0xFFFFFFFFFFFFFFFF DUP2 GT ISZERO PUSH2 0x1CCA JUMPI PUSH2 0x1CC9 PUSH2 0x4A8D JUMP JUMPDEST JUMPDEST PUSH1 0x40 MLOAD SWAP1 DUP1 DUP3 MSTORE DUP1 PUSH1 0x20 MUL PUSH1 0x20 ADD DUP3 ADD PUSH1 0x40 MSTORE DUP1 ISZERO PUSH2 0x1CF8 JUMPI DUP2 PUSH1 0x20 ADD PUSH1 0x20 DUP3 MUL DUP1 CALLDATASIZE DUP4 CALLDATACOPY DUP1 DUP3 ADD SWAP2 POP POP SWAP1 POP JUMPDEST POP SWAP1 POP PUSH1 0x0 DUP6 PUSH8 0xFFFFFFFFFFFFFFFF DUP2 GT ISZERO PUSH2 0x1D17 JUMPI PUSH2 0x1D16 PUSH2 0x4A8D JUMP JUMPDEST JUMPDEST PUSH1 0x40 MLOAD SWAP1 DUP1 DUP3 MSTORE DUP1 PUSH1 0x20 MUL PUSH1 0x20 ADD DUP3 ADD PUSH1 0x40 MSTORE DUP1 ISZERO PUSH2 0x1D4A JUMPI DUP2 PUSH1 0x20 ADD JUMPDEST PUSH1 0x60 DUP2 MSTORE PUSH1 0x20 ADD SWAP1 PUSH1 0x1 SWAP1 SUB SWAP1 DUP2 PUSH2 0x1D35 JUMPI SWAP1 POP JUMPDEST POP SWAP1 POP PUSH1 0x0 DUP7 PUSH8 0xFFFFFFFFFFFFFFFF DUP2 GT ISZERO PUSH2 0x1D69 JUMPI PUSH2 0x1D68 PUSH2 0x4A8D JUMP JUMPDEST JUMPDEST PUSH1 0x40 MLOAD SWAP1 DUP1 DUP3 MSTORE DUP1 PUSH1 0x20 MUL PUSH1 0x20 ADD DUP3 ADD PUSH1 0x40 MSTORE DUP1 ISZERO PUSH2 0x1D9C JUMPI DUP2 PUSH1 0x20 ADD JUMPDEST PUSH1 0x60 DUP2 MSTORE PUSH1 0x20 ADD SWAP1 PUSH1 0x1 SWAP1 SUB SWAP1 DUP2 PUSH2 0x1D87 JUMPI SWAP1 POP JUMPDEST POP SWAP1 POP PUSH1 0x0 SWAP8 POP JUMPDEST DUP7 DUP9 LT ISZERO PUSH2 0x231E JUMPI PUSH1 0x1 PUSH1 0x0 PUSH1 0x2 DUP16 PUSH1 0x40 MLOAD PUSH2 0x1DC0 SWAP2 SWAP1 PUSH2 0x5778 JUMP JUMPDEST SWAP1 DUP2 MSTORE PUSH1 0x20 ADD PUSH1 0x40 MLOAD DUP1 SWAP2 SUB SWAP1 KECCAK256 PUSH1 0x1 ADD DUP11 DUP2 SLOAD DUP2 LT PUSH2 0x1DE3 JUMPI PUSH2 0x1DE2 PUSH2 0x5875 JUMP JUMPDEST JUMPDEST SWAP1 PUSH1 0x0 MSTORE PUSH1 0x20 PUSH1 0x0 KECCAK256 ADD SLOAD DUP2 MSTORE PUSH1 0x20 ADD SWAP1 DUP2 MSTORE PUSH1 0x20 ADD PUSH1 0x0 KECCAK256 PUSH1 0x3 ADD PUSH1 0x40 MLOAD PUSH1 0x20 ADD PUSH2 0x1E0F SWAP2 SWAP1 PUSH2 0x585E JUMP JUMPDEST PUSH1 0x40 MLOAD PUSH1 0x20 DUP2 DUP4 SUB SUB DUP2 MSTORE SWAP1 PUSH1 0x40 MSTORE DUP1 MLOAD SWAP1 PUSH1 0x20 ADD KECCAK256 PUSH1 0x40 MLOAD PUSH1 0x20 ADD PUSH2 0x1E34 SWAP1 PUSH2 0x5A62 JUMP JUMPDEST PUSH1 0x40 MLOAD PUSH1 0x20 DUP2 DUP4 SUB SUB DUP2 MSTORE SWAP1 PUSH1 0x40 MSTORE DUP1 MLOAD SWAP1 PUSH1 0x20 ADD KECCAK256 SUB PUSH2 0x230B JUMPI PUSH1 0x1 PUSH1 0x0 PUSH1 0x2 DUP16 PUSH1 0x40 MLOAD PUSH2 0x1E63 SWAP2 SWAP1 PUSH2 0x5778 JUMP JUMPDEST SWAP1 DUP2 MSTORE PUSH1 0x20 ADD PUSH1 0x40 MLOAD DUP1 SWAP2 SUB SWAP1 KECCAK256 PUSH1 0x1 ADD DUP11 DUP2 SLOAD DUP2 LT PUSH2 0x1E86 JUMPI PUSH2 0x1E85 PUSH2 0x5875 JUMP JUMPDEST JUMPDEST SWAP1 PUSH1 0x0 MSTORE PUSH1 0x20 PUSH1 0x0 KECCAK256 ADD SLOAD DUP2 MSTORE PUSH1 0x20 ADD SWAP1 DUP2 MSTORE PUSH1 0x20 ADD PUSH1 0x0 KECCAK256 PUSH1 0x1 ADD DUP1 SLOAD PUSH2 0x1EAD SWAP1 PUSH2 0x54C9 JUMP JUMPDEST DUP1 PUSH1 0x1F ADD PUSH1 0x20 DUP1 SWAP2 DIV MUL PUSH1 0x20 ADD PUSH1 0x40 MLOAD SWAP1 DUP2 ADD PUSH1 0x40 MSTORE DUP1 SWAP3 SWAP2 SWAP1 DUP2 DUP2 MSTORE PUSH1 0x20 ADD DUP3 DUP1 SLOAD PUSH2 0x1ED9 SWAP1 PUSH2 0x54C9 JUMP JUMPDEST DUP1 ISZERO PUSH2 0x1F26 JUMPI DUP1 PUSH1 0x1F LT PUSH2 0x1EFB JUMPI PUSH2 0x100 DUP1 DUP4 SLOAD DIV MUL DUP4 MSTORE SWAP2 PUSH1 0x20 ADD SWAP2 PUSH2 0x1F26 JUMP JUMPDEST DUP3 ADD SWAP2 SWAP1 PUSH1 0x0 MSTORE PUSH1 0x20 PUSH1 0x0 KECCAK256 SWAP1 JUMPDEST DUP2 SLOAD DUP2 MSTORE SWAP1 PUSH1 0x1 ADD SWAP1 PUSH1 0x20 ADD DUP1 DUP4 GT PUSH2 0x1F09 JUMPI DUP3 SWAP1 SUB PUSH1 0x1F AND DUP3 ADD SWAP2 JUMPDEST POP POP POP POP POP DUP7 DUP10 DUP2 MLOAD DUP2 LT PUSH2 0x1F3E JUMPI PUSH2 0x1F3D PUSH2 0x5875 JUMP JUMPDEST JUMPDEST PUSH1 0x20 MUL PUSH1 0x20 ADD ADD DUP2 SWAP1 MSTORE POP PUSH1 0x1 PUSH1 0x0 PUSH1 0x2 DUP16 PUSH1 0x40 MLOAD PUSH2 0x1F5D SWAP2 SWAP1 PUSH2 0x5778 JUMP JUMPDEST SWAP1 DUP2 MSTORE PUSH1 0x20 ADD PUSH1 0x40 MLOAD DUP1 SWAP2 SUB SWAP1 KECCAK256 PUSH1 0x1 ADD DUP11 DUP2 SLOAD DUP2 LT PUSH2 0x1F80 JUMPI PUSH2 0x1F7F PUSH2 0x5875 JUMP JUMPDEST JUMPDEST SWAP1 PUSH1 0x0 MSTORE PUSH1 0x20 PUSH1 0x0 KECCAK256 ADD SLOAD DUP2 MSTORE PUSH1 0x20 ADD SWAP1 DUP2 MSTORE PUSH1 0x20 ADD PUSH1 0x0 KECCAK256 PUSH1 0x7 ADD DUP1 SLOAD PUSH2 0x1FA7 SWAP1 PUSH2 0x54C9 JUMP JUMPDEST DUP1 PUSH1 0x1F ADD PUSH1 0x20 DUP1 SWAP2 DIV MUL PUSH1 0x20 ADD PUSH1 0x40 MLOAD SWAP1 DUP2 ADD PUSH1 0x40 MSTORE DUP1 SWAP3 SWAP2 SWAP1 DUP2 DUP2 MSTORE PUSH1 0x20 ADD DUP3 DUP1 SLOAD PUSH2 0x1FD3 SWAP1 PUSH2 0x54C9 JUMP JUMPDEST DUP1 ISZERO PUSH2 0x2020 JUMPI DUP1 PUSH1 0x1F LT PUSH2 0x1FF5 JUMPI PUSH2 0x100 DUP1 DUP4 SLOAD DIV MUL DUP4 MSTORE SWAP2 PUSH1 0x20 ADD SWAP2 PUSH2 0x2020 JUMP JUMPDEST DUP3 ADD SWAP2 SWAP1 PUSH1 0x0 MSTORE PUSH1 0x20 PUSH1 0x0 KECCAK256 SWAP1 JUMPDEST DUP2 SLOAD DUP2 MSTORE SWAP1 PUSH1 0x1 ADD SWAP1 PUSH1 0x20 ADD DUP1 DUP4 GT PUSH2 0x2003 JUMPI DUP3 SWAP1 SUB PUSH1 0x1F AND DUP3 ADD SWAP2 JUMPDEST POP POP POP POP POP DUP2 DUP10 DUP2 MLOAD DUP2 LT PUSH2 0x2038 JUMPI PUSH2 0x2037 PUSH2 0x5875 JUMP JUMPDEST JUMPDEST PUSH1 0x20 MUL PUSH1 0x20 ADD ADD DUP2 SWAP1 MSTORE POP PUSH1 0x1 PUSH1 0x0 PUSH1 0x2 DUP16 PUSH1 0x40 MLOAD PUSH2 0x2057 SWAP2 SWAP1 PUSH2 0x5778 JUMP JUMPDEST SWAP1 DUP2 MSTORE PUSH1 0x20 ADD PUSH1 0x40 MLOAD DUP1 SWAP2 SUB SWAP1 KECCAK256 PUSH1 0x1 ADD DUP11 DUP2 SLOAD DUP2 LT PUSH2 0x207A JUMPI PUSH2 0x2079 PUSH2 0x5875 JUMP JUMPDEST JUMPDEST SWAP1 PUSH1 0x0 MSTORE PUSH1 0x20 PUSH1 0x0 KECCAK256 ADD SLOAD DUP2 MSTORE PUSH1 0x20 ADD SWAP1 DUP2 MSTORE PUSH1 0x20 ADD PUSH1 0x0 KECCAK256 PUSH1 0x2 ADD DUP1 SLOAD PUSH2 0x20A1 SWAP1 PUSH2 0x54C9 JUMP JUMPDEST DUP1 PUSH1 0x1F ADD PUSH1 0x20 DUP1 SWAP2 DIV MUL PUSH1 0x20 ADD PUSH1 0x40 MLOAD SWAP1 DUP2 ADD PUSH1 0x40 MSTORE DUP1 SWAP3 SWAP2 SWAP1 DUP2 DUP2 MSTORE PUSH1 0x20 ADD DUP3 DUP1 SLOAD PUSH2 0x20CD SWAP1 PUSH2 0x54C9 JUMP JUMPDEST DUP1 ISZERO PUSH2 0x211A JUMPI DUP1 PUSH1 0x1F LT PUSH2 0x20EF JUMPI PUSH2 0x100 DUP1 DUP4 SLOAD DIV MUL DUP4 MSTORE SWAP2 PUSH1 0x20 ADD SWAP2 PUSH2 0x211A JUMP JUMPDEST DUP3 ADD SWAP2 SWAP1 PUSH1 0x0 MSTORE PUSH1 0x20 PUSH1 0x0 KECCAK256 SWAP1 JUMPDEST DUP2 SLOAD DUP2 MSTORE SWAP1 PUSH1 0x1 ADD SWAP1 PUSH1 0x20 ADD DUP1 DUP4 GT PUSH2 0x20FD JUMPI DUP3 SWAP1 SUB PUSH1 0x1F AND DUP3 ADD SWAP2 JUMPDEST POP POP POP POP POP DUP6 DUP10 DUP2 MLOAD DUP2 LT PUSH2 0x2132 JUMPI PUSH2 0x2131 PUSH2 0x5875 JUMP JUMPDEST JUMPDEST PUSH1 0x20 MUL PUSH1 0x20 ADD ADD DUP2 SWAP1 MSTORE POP PUSH1 0x1 PUSH1 0x0 PUSH1 0x2 DUP16 PUSH1 0x40 MLOAD PUSH2 0x2151 SWAP2 SWAP1 PUSH2 0x5778 JUMP JUMPDEST SWAP1 DUP2 MSTORE PUSH1 0x20 ADD PUSH1 0x40 MLOAD DUP1 SWAP2 SUB SWAP1 KECCAK256 PUSH1 0x1 ADD DUP11 DUP2 SLOAD DUP2 LT PUSH2 0x2174 JUMPI PUSH2 0x2173 PUSH2 0x5875 JUMP JUMPDEST JUMPDEST SWAP1 PUSH1 0x0 MSTORE PUSH1 0x20 PUSH1 0x0 KECCAK256 ADD SLOAD DUP2 MSTORE PUSH1 0x20 ADD SWAP1 DUP2 MSTORE PUSH1 0x20 ADD PUSH1 0x0 KECCAK256 PUSH1 0x3 ADD DUP1 SLOAD PUSH2 0x219B SWAP1 PUSH2 0x54C9 JUMP JUMPDEST DUP1 PUSH1 0x1F ADD PUSH1 0x20 DUP1 SWAP2 DIV MUL PUSH1 0x20 ADD PUSH1 0x40 MLOAD SWAP1 DUP2 ADD PUSH1 0x40 MSTORE DUP1 SWAP3 SWAP2 SWAP1 DUP2 DUP2 MSTORE PUSH1 0x20 ADD DUP3 DUP1 SLOAD PUSH2 0x21C7 SWAP1 PUSH2 0x54C9 JUMP JUMPDEST DUP1 ISZERO PUSH2 0x2214 JUMPI DUP1 PUSH1 0x1F LT PUSH2 0x21E9 JUMPI PUSH2 0x100 DUP1 DUP4 SLOAD DIV MUL DUP4 MSTORE SWAP2 PUSH1 0x20 ADD SWAP2 PUSH2 0x2214 JUMP JUMPDEST DUP3 ADD SWAP2 SWAP1 PUSH1 0x0 MSTORE PUSH1 0x20 PUSH1 0x0 KECCAK256 SWAP1 JUMPDEST DUP2 SLOAD DUP2 MSTORE SWAP1 PUSH1 0x1 ADD SWAP1 PUSH1 0x20 ADD DUP1 DUP4 GT PUSH2 0x21F7 JUMPI DUP3 SWAP1 SUB PUSH1 0x1F AND DUP3 ADD SWAP2 JUMPDEST POP POP POP POP POP DUP3 DUP10 DUP2 MLOAD DUP2 LT PUSH2 0x222C JUMPI PUSH2 0x222B PUSH2 0x5875 JUMP JUMPDEST JUMPDEST PUSH1 0x20 MUL PUSH1 0x20 ADD ADD DUP2 SWAP1 MSTORE POP PUSH1 0x2 DUP14 PUSH1 0x40 MLOAD PUSH2 0x2247 SWAP2 SWAP1 PUSH2 0x5778 JUMP JUMPDEST SWAP1 DUP2 MSTORE PUSH1 0x20 ADD PUSH1 0x40 MLOAD DUP1 SWAP2 SUB SWAP1 KECCAK256 PUSH1 0x1 ADD DUP9 DUP2 SLOAD DUP2 LT PUSH2 0x226A JUMPI PUSH2 0x2269 PUSH2 0x5875 JUMP JUMPDEST JUMPDEST SWAP1 PUSH1 0x0 MSTORE PUSH1 0x20 PUSH1 0x0 KECCAK256 ADD SLOAD DUP5 DUP10 DUP2 MLOAD DUP2 LT PUSH2 0x2288 JUMPI PUSH2 0x2287 PUSH2 0x5875 JUMP JUMPDEST JUMPDEST PUSH1 0x20 MUL PUSH1 0x20 ADD ADD DUP2 DUP2 MSTORE POP POP PUSH1 0x1 PUSH1 0x0 PUSH1 0x2 DUP16 PUSH1 0x40 MLOAD PUSH2 0x22A8 SWAP2 SWAP1 PUSH2 0x5778 JUMP JUMPDEST SWAP1 DUP2 MSTORE PUSH1 0x20 ADD PUSH1 0x40 MLOAD DUP1 SWAP2 SUB SWAP1 KECCAK256 PUSH1 0x1 ADD DUP11 DUP2 SLOAD DUP2 LT PUSH2 0x22CB JUMPI PUSH2 0x22CA PUSH2 0x5875 JUMP JUMPDEST JUMPDEST SWAP1 PUSH1 0x0 MSTORE PUSH1 0x20 PUSH1 0x0 KECCAK256 ADD SLOAD DUP2 MSTORE PUSH1 0x20 ADD SWAP1 DUP2 MSTORE PUSH1 0x20 ADD PUSH1 0x0 KECCAK256 PUSH1 0x8 ADD PUSH1 0x0 ADD SLOAD DUP4 DUP10 DUP2 MLOAD DUP2 LT PUSH2 0x22FE JUMPI PUSH2 0x22FD PUSH2 0x5875 JUMP JUMPDEST JUMPDEST PUSH1 0x20 MUL PUSH1 0x20 ADD ADD DUP2 DUP2 MSTORE POP POP JUMPDEST DUP8 DUP1 PUSH2 0x2316 SWAP1 PUSH2 0x58D3 JUMP JUMPDEST SWAP9 POP POP PUSH2 0x1DA4 JUMP JUMPDEST PUSH1 0x40 MLOAD DUP1 PUSH1 0x60 ADD PUSH1 0x40 MSTORE DUP1 DUP8 DUP2 MSTORE PUSH1 0x20 ADD DUP7 DUP2 MSTORE PUSH1 0x20 ADD DUP4 DUP2 MSTORE POP DUP5 DUP5 DUP4 SWAP12 POP SWAP12 POP SWAP12 POP SWAP12 POP POP POP POP POP POP POP POP POP SWAP2 SWAP4 POP SWAP2 SWAP4 JUMP JUMPDEST PUSH1 0x60 PUSH1 0x3 DUP3 PUSH1 0x40 MLOAD PUSH2 0x2365 SWAP2 SWAP1 PUSH2 0x5778 JUMP JUMPDEST SWAP1 DUP2 MSTORE PUSH1 0x20 ADD PUSH1 0x40 MLOAD DUP1 SWAP2 SUB SWAP1 KECCAK256 PUSH1 0x3 ADD DUP1 SLOAD DUP1 PUSH1 0x20 MUL PUSH1 0x20 ADD PUSH1 0x40 MLOAD SWAP1 DUP2 ADD PUSH1 0x40 MSTORE DUP1 SWAP3 SWAP2 SWAP1 DUP2 DUP2 MSTORE PUSH1 0x20 ADD DUP3 DUP1 SLOAD DUP1 ISZERO PUSH2 0x23C0 JUMPI PUSH1 0x20 MUL DUP3 ADD SWAP2 SWAP1 PUSH1 0x0 MSTORE PUSH1 0x20 PUSH1 0x0 KECCAK256 SWAP1 JUMPDEST DUP2 SLOAD DUP2 MSTORE PUSH1 0x20 ADD SWAP1 PUSH1 0x1 ADD SWAP1 DUP1 DUP4 GT PUSH2 0x23AC JUMPI JUMPDEST POP POP POP POP POP SWAP1 POP SWAP2 SWAP1 POP JUMP JUMPDEST DUP3 PUSH1 0x1 PUSH1 0x0 DUP1 SLOAD DUP2 MSTORE PUSH1 0x20 ADD SWAP1 DUP2 MSTORE PUSH1 0x20 ADD PUSH1 0x0 KECCAK256 PUSH1 0x1 ADD SWAP1 DUP2 PUSH2 0x23F0 SWAP2 SWAP1 PUSH2 0x56A6 JUMP JUMPDEST POP DUP2 PUSH1 0x1 PUSH1 0x0 DUP1 SLOAD DUP2 MSTORE PUSH1 0x20 ADD SWAP1 DUP2 MSTORE PUSH1 0x20 ADD PUSH1 0x0 KECCAK256 PUSH1 0x2 ADD SWAP1 DUP2 PUSH2 0x2415 SWAP2 SWAP1 PUSH2 0x56A6 JUMP JUMPDEST POP DUP1 PUSH1 0x1 PUSH1 0x0 DUP1 SLOAD DUP2 MSTORE PUSH1 0x20 ADD SWAP1 DUP2 MSTORE PUSH1 0x20 ADD PUSH1 0x0 KECCAK256 PUSH1 0x4 ADD SWAP1 DUP2 PUSH2 0x243A SWAP2 SWAP1 PUSH2 0x56A6 JUMP JUMPDEST POP PUSH1 0x40 MLOAD DUP1 PUSH1 0x40 ADD PUSH1 0x40 MSTORE DUP1 PUSH1 0x7 DUP2 MSTORE PUSH1 0x20 ADD PUSH32 0x70656E64696E6700000000000000000000000000000000000000000000000000 DUP2 MSTORE POP PUSH1 0x1 PUSH1 0x0 DUP1 SLOAD DUP2 MSTORE PUSH1 0x20 ADD SWAP1 DUP2 MSTORE PUSH1 0x20 ADD PUSH1 0x0 KECCAK256 PUSH1 0x3 ADD SWAP1 DUP2 PUSH2 0x2494 SWAP2 SWAP1 PUSH2 0x56A6 JUMP JUMPDEST POP PUSH1 0x1 PUSH1 0x0 DUP1 SLOAD DUP2 MSTORE PUSH1 0x20 ADD SWAP1 DUP2 MSTORE PUSH1 0x20 ADD PUSH1 0x0 KECCAK256 PUSH1 0x5 ADD DUP1 PUSH1 0x1 DUP2 SLOAD ADD DUP1 DUP3 SSTORE DUP1 SWAP2 POP POP PUSH1 0x1 SWAP1 SUB SWAP1 PUSH1 0x0 MSTORE PUSH1 0x20 PUSH1 0x0 KECCAK256 ADD PUSH1 0x0 PUSH1 0x40 MLOAD DUP1 PUSH1 0x40 ADD PUSH1 0x40 MSTORE DUP1 PUSH1 0xC DUP2 MSTORE PUSH1 0x20 ADD PUSH32 0x73656E7420746F20444453540000000000000000000000000000000000000000 DUP2 MSTORE POP SWAP1 SWAP2 SWAP1 SWAP2 POP SWAP1 DUP2 PUSH2 0x2510 SWAP2 SWAP1 PUSH2 0x56A6 JUMP JUMPDEST POP PUSH1 0x2 DUP2 PUSH1 0x40 MLOAD PUSH2 0x2521 SWAP2 SWAP1 PUSH2 0x5778 JUMP JUMPDEST SWAP1 DUP2 MSTORE PUSH1 0x20 ADD PUSH1 0x40 MLOAD DUP1 SWAP2 SUB SWAP1 KECCAK256 PUSH1 0x1 ADD PUSH1 0x0 SLOAD SWAP1 DUP1 PUSH1 0x1 DUP2 SLOAD ADD DUP1 DUP3 SSTORE DUP1 SWAP2 POP POP PUSH1 0x1 SWAP1 SUB SWAP1 PUSH1 0x0 MSTORE PUSH1 0x20 PUSH1 0x0 KECCAK256 ADD PUSH1 0x0 SWAP1 SWAP2 SWAP1 SWAP2 SWAP1 SWAP2 POP SSTORE TIMESTAMP PUSH1 0x1 PUSH1 0x0 DUP1 SLOAD DUP2 MSTORE PUSH1 0x20 ADD SWAP1 DUP2 MSTORE PUSH1 0x20 ADD PUSH1 0x0 KECCAK256 PUSH1 0x8 ADD PUSH1 0x0 ADD DUP2 SWAP1 SSTORE POP PUSH1 0x1 PUSH1 0x0 DUP1 SLOAD DUP2 MSTORE PUSH1 0x20 ADD SWAP1 DUP2 MSTORE PUSH1 0x20 ADD PUSH1 0x0 KECCAK256 PUSH1 0x6 ADD TIMESTAMP SWAP1 DUP1 PUSH1 0x1 DUP2 SLOAD ADD DUP1 DUP3 SSTORE DUP1 SWAP2 POP POP PUSH1 0x1 SWAP1 SUB SWAP1 PUSH1 0x0 MSTORE PUSH1 0x20 PUSH1 0x0 KECCAK256 ADD PUSH1 0x0 SWAP1 SWAP2 SWAP1 SWAP2 SWAP1 SWAP2 POP SSTORE PUSH1 0x0 DUP1 DUP2 SLOAD DUP1 SWAP3 SWAP2 SWAP1 PUSH2 0x25CA SWAP1 PUSH2 0x58D3 JUMP JUMPDEST SWAP2 SWAP1 POP SSTORE POP POP POP POP JUMP JUMPDEST PUSH1 0x60 DUP1 PUSH1 0x2 DUP4 PUSH1 0x40 MLOAD PUSH2 0x25E7 SWAP2 SWAP1 PUSH2 0x5778 JUMP JUMPDEST SWAP1 DUP2 MSTORE PUSH1 0x20 ADD PUSH1 0x40 MLOAD DUP1 SWAP2 SUB SWAP1 KECCAK256 PUSH1 0x2 ADD PUSH1 0x2 DUP5 PUSH1 0x40 MLOAD PUSH2 0x2608 SWAP2 SWAP1 PUSH2 0x5778 JUMP JUMPDEST SWAP1 DUP2 MSTORE PUSH1 0x20 ADD PUSH1 0x40 MLOAD DUP1 SWAP2 SUB SWAP1 KECCAK256 PUSH1 0x1 ADD DUP2 DUP1 SLOAD PUSH2 0x2625 SWAP1 PUSH2 0x54C9 JUMP JUMPDEST DUP1 PUSH1 0x1F ADD PUSH1 0x20 DUP1 SWAP2 DIV MUL PUSH1 0x20 ADD PUSH1 0x40 MLOAD SWAP1 DUP2 ADD PUSH1 0x40 MSTORE DUP1 SWAP3 SWAP2 SWAP1 DUP2 DUP2 MSTORE PUSH1 0x20 ADD DUP3 DUP1 SLOAD PUSH2 0x2651 SWAP1 PUSH2 0x54C9 JUMP JUMPDEST DUP1 ISZERO PUSH2 0x269E JUMPI DUP1 PUSH1 0x1F LT PUSH2 0x2673 JUMPI PUSH2 0x100 DUP1 DUP4 SLOAD DIV MUL DUP4 MSTORE SWAP2 PUSH1 0x20 ADD SWAP2 PUSH2 0x269E JUMP JUMPDEST DUP3 ADD SWAP2 SWAP1 PUSH1 0x0 MSTORE PUSH1 0x20 PUSH1 0x0 KECCAK256 SWAP1 JUMPDEST DUP2 SLOAD DUP2 MSTORE SWAP1 PUSH1 0x1 ADD SWAP1 PUSH1 0x20 ADD DUP1 DUP4 GT PUSH2 0x2681 JUMPI DUP3 SWAP1 SUB PUSH1 0x1F AND DUP3 ADD SWAP2 JUMPDEST POP POP POP POP POP SWAP2 POP DUP1 DUP1 SLOAD DUP1 PUSH1 0x20 MUL PUSH1 0x20 ADD PUSH1 0x40 MLOAD SWAP1 DUP2 ADD PUSH1 0x40 MSTORE DUP1 SWAP3 SWAP2 SWAP1 DUP2 DUP2 MSTORE PUSH1 0x20 ADD DUP3 DUP1 SLOAD DUP1 ISZERO PUSH2 0x26F0 JUMPI PUSH1 0x20 MUL DUP3 ADD SWAP2 SWAP1 PUSH1 0x0 MSTORE PUSH1 0x20 PUSH1 0x0 KECCAK256 SWAP1 JUMPDEST DUP2 SLOAD DUP2 MSTORE PUSH1 0x20 ADD SWAP1 PUSH1 0x1 ADD SWAP1 DUP1 DUP4 GT PUSH2 0x26DC JUMPI JUMPDEST POP POP POP POP POP SWAP1 POP SWAP2 POP SWAP2 POP SWAP2 POP SWAP2 JUMP JUMPDEST DUP1 PUSH1 0x2 DUP4 PUSH1 0x40 MLOAD PUSH2 0x2711 SWAP2 SWAP1 PUSH2 0x5778 JUMP JUMPDEST SWAP1 DUP2 MSTORE PUSH1 0x20 ADD PUSH1 0x40 MLOAD DUP1 SWAP2 SUB SWAP1 KECCAK256 PUSH1 0x2 ADD SWAP1 DUP2 PUSH2 0x272E SWAP2 SWAP1 PUSH2 0x56A6 JUMP JUMPDEST POP PUSH1 0x3 DUP2 PUSH1 0x40 MLOAD PUSH2 0x273F SWAP2 SWAP1 PUSH2 0x5778 JUMP JUMPDEST SWAP1 DUP2 MSTORE PUSH1 0x20 ADD PUSH1 0x40 MLOAD DUP1 SWAP2 SUB SWAP1 KECCAK256 PUSH1 0x5 ADD DUP3 SWAP1 DUP1 PUSH1 0x1 DUP2 SLOAD ADD DUP1 DUP3 SSTORE DUP1 SWAP2 POP POP PUSH1 0x1 SWAP1 SUB SWAP1 PUSH1 0x0 MSTORE PUSH1 0x20 PUSH1 0x0 KECCAK256 ADD PUSH1 0x0 SWAP1 SWAP2 SWAP1 SWAP2 SWAP1 SWAP2 POP SWAP1 DUP2 PUSH2 0x2782 SWAP2 SWAP1 PUSH2 0x56A6 JUMP JUMPDEST POP POP POP JUMP JUMPDEST PUSH1 0x60 DUP1 PUSH1 0x60 PUSH1 0x1 PUSH1 0x0 DUP6 DUP2 MSTORE PUSH1 0x20 ADD SWAP1 DUP2 MSTORE PUSH1 0x20 ADD PUSH1 0x0 KECCAK256 PUSH1 0x3 ADD PUSH1 0x1 PUSH1 0x0 DUP7 DUP2 MSTORE PUSH1 0x20 ADD SWAP1 DUP2 MSTORE PUSH1 0x20 ADD PUSH1 0x0 KECCAK256 PUSH1 0x5 ADD PUSH1 0x1 PUSH1 0x0 DUP8 DUP2 MSTORE PUSH1 0x20 ADD SWAP1 DUP2 MSTORE PUSH1 0x20 ADD PUSH1 0x0 KECCAK256 PUSH1 0x6 ADD DUP3 DUP1 SLOAD PUSH2 0x27DA SWAP1 PUSH2 0x54C9 JUMP JUMPDEST DUP1 PUSH1 0x1F ADD PUSH1 0x20 DUP1 SWAP2 DIV MUL PUSH1 0x20 ADD PUSH1 0x40 MLOAD SWAP1 DUP2 ADD PUSH1 0x40 MSTORE DUP1 SWAP3 SWAP2 SWAP1 DUP2 DUP2 MSTORE PUSH1 0x20 ADD DUP3 DUP1 SLOAD PUSH2 0x2806 SWAP1 PUSH2 0x54C9 JUMP JUMPDEST DUP1 ISZERO PUSH2 0x2853 JUMPI DUP1 PUSH1 0x1F LT PUSH2 0x2828 JUMPI PUSH2 0x100 DUP1 DUP4 SLOAD DIV MUL DUP4 MSTORE SWAP2 PUSH1 0x20 ADD SWAP2 PUSH2 0x2853 JUMP JUMPDEST DUP3 ADD SWAP2 SWAP1 PUSH1 0x0 MSTORE PUSH1 0x20 PUSH1 0x0 KECCAK256 SWAP1 JUMPDEST DUP2 SLOAD DUP2 MSTORE SWAP1 PUSH1 0x1 ADD SWAP1 PUSH1 0x20 ADD DUP1 DUP4 GT PUSH2 0x2836 JUMPI DUP3 SWAP1 SUB PUSH1 0x1F AND DUP3 ADD SWAP2 JUMPDEST POP POP POP POP POP SWAP3 POP DUP2 DUP1 SLOAD DUP1 PUSH1 0x20 MUL PUSH1 0x20 ADD PUSH1 0x40 MLOAD SWAP1 DUP2 ADD PUSH1 0x40 MSTORE DUP1 SWAP3 SWAP2 SWAP1 DUP2 DUP2 MSTORE PUSH1 0x20 ADD PUSH1 0x0 SWAP1 JUMPDEST DUP3 DUP3 LT ISZERO PUSH2 0x2927 JUMPI DUP4 DUP3 SWAP1 PUSH1 0x0 MSTORE PUSH1 0x20 PUSH1 0x0 KECCAK256 ADD DUP1 SLOAD PUSH2 0x289A SWAP1 PUSH2 0x54C9 JUMP JUMPDEST DUP1 PUSH1 0x1F ADD PUSH1 0x20 DUP1 SWAP2 DIV MUL PUSH1 0x20 ADD PUSH1 0x40 MLOAD SWAP1 DUP2 ADD PUSH1 0x40 MSTORE DUP1 SWAP3 SWAP2 SWAP1 DUP2 DUP2 MSTORE PUSH1 0x20 ADD DUP3 DUP1 SLOAD PUSH2 0x28C6 SWAP1 PUSH2 0x54C9 JUMP JUMPDEST DUP1 ISZERO PUSH2 0x2913 JUMPI DUP1 PUSH1 0x1F LT PUSH2 0x28E8 JUMPI PUSH2 0x100 DUP1 DUP4 SLOAD DIV MUL DUP4 MSTORE SWAP2 PUSH1 0x20 ADD SWAP2 PUSH2 0x2913 JUMP JUMPDEST DUP3 ADD SWAP2 SWAP1 PUSH1 0x0 MSTORE PUSH1 0x20 PUSH1 0x0 KECCAK256 SWAP1 JUMPDEST DUP2 SLOAD DUP2 MSTORE SWAP1 PUSH1 0x1 ADD SWAP1 PUSH1 0x20 ADD DUP1 DUP4 GT PUSH2 0x28F6 JUMPI DUP3 SWAP1 SUB PUSH1 0x1F AND DUP3 ADD SWAP2 JUMPDEST POP POP POP POP POP DUP2 MSTORE PUSH1 0x20 ADD SWAP1 PUSH1 0x1 ADD SWAP1 PUSH2 0x287B JUMP JUMPDEST POP POP POP POP SWAP2 POP DUP1 DUP1 SLOAD DUP1 PUSH1 0x20 MUL PUSH1 0x20 ADD PUSH1 0x40 MLOAD SWAP1 DUP2 ADD PUSH1 0x40 MSTORE DUP1 SWAP3 SWAP2 SWAP1 DUP2 DUP2 MSTORE PUSH1 0x20 ADD DUP3 DUP1 SLOAD DUP1 ISZERO PUSH2 0x2978 JUMPI PUSH1 0x20 MUL DUP3 ADD SWAP2 SWAP1 PUSH1 0x0 MSTORE PUSH1 0x20 PUSH1 0x0 KECCAK256 SWAP1 JUMPDEST DUP2 SLOAD DUP2 MSTORE PUSH1 0x20 ADD SWAP1 PUSH1 0x1 ADD SWAP1 DUP1 DUP4 GT PUSH2 0x2964 JUMPI JUMPDEST POP POP POP POP POP SWAP1 POP SWAP3 POP SWAP3 POP SWAP3 POP SWAP2 SWAP4 SWAP1 SWAP3 POP JUMP JUMPDEST PUSH1 0x40 MLOAD DUP1 PUSH1 0x40 ADD PUSH1 0x40 MSTORE DUP1 PUSH1 0x8 DUP2 MSTORE PUSH1 0x20 ADD PUSH32 0x6163636570746564000000000000000000000000000000000000000000000000 DUP2 MSTORE POP PUSH1 0x1 PUSH1 0x0 DUP6 DUP2 MSTORE PUSH1 0x20 ADD SWAP1 DUP2 MSTORE PUSH1 0x20 ADD PUSH1 0x0 KECCAK256 PUSH1 0x3 ADD SWAP1 DUP2 PUSH2 0x29E4 SWAP2 SWAP1 PUSH2 0x56A6 JUMP JUMPDEST POP PUSH1 0x1 PUSH1 0x0 DUP5 DUP2 MSTORE PUSH1 0x20 ADD SWAP1 DUP2 MSTORE PUSH1 0x20 ADD PUSH1 0x0 KECCAK256 PUSH1 0x5 ADD DUP2 PUSH1 0x40 MLOAD PUSH1 0x20 ADD PUSH2 0x2A0C SWAP2 SWAP1 PUSH2 0x5941 JUMP JUMPDEST PUSH1 0x40 MLOAD PUSH1 0x20 DUP2 DUP4 SUB SUB DUP2 MSTORE SWAP1 PUSH1 0x40 MSTORE SWAP1 DUP1 PUSH1 0x1 DUP2 SLOAD ADD DUP1 DUP3 SSTORE DUP1 SWAP2 POP POP PUSH1 0x1 SWAP1 SUB SWAP1 PUSH1 0x0 MSTORE PUSH1 0x20 PUSH1 0x0 KECCAK256 ADD PUSH1 0x0 SWAP1 SWAP2 SWAP1 SWAP2 SWAP1 SWAP2 POP SWAP1 DUP2 PUSH2 0x2A4C SWAP2 SWAP1 PUSH2 0x56A6 JUMP JUMPDEST POP DUP1 PUSH1 0x1 PUSH1 0x0 DUP6 DUP2 MSTORE PUSH1 0x20 ADD SWAP1 DUP2 MSTORE PUSH1 0x20 ADD PUSH1 0x0 KECCAK256 PUSH1 0x7 ADD SWAP1 DUP2 PUSH2 0x2A70 SWAP2 SWAP1 PUSH2 0x56A6 JUMP JUMPDEST POP PUSH1 0x1 PUSH1 0x0 DUP5 DUP2 MSTORE PUSH1 0x20 ADD SWAP1 DUP2 MSTORE PUSH1 0x20 ADD PUSH1 0x0 KECCAK256 PUSH1 0x6 ADD TIMESTAMP SWAP1 DUP1 PUSH1 0x1 DUP2 SLOAD ADD DUP1 DUP3 SSTORE DUP1 SWAP2 POP POP PUSH1 0x1 SWAP1 SUB SWAP1 PUSH1 0x0 MSTORE PUSH1 0x20 PUSH1 0x0 KECCAK256 ADD PUSH1 0x0 SWAP1 SWAP2 SWAP1 SWAP2 SWAP1 SWAP2 POP SSTORE PUSH1 0x2 DUP2 PUSH1 0x40 MLOAD PUSH2 0x2ABE SWAP2 SWAP1 PUSH2 0x5778 JUMP JUMPDEST SWAP1 DUP2 MSTORE PUSH1 0x20 ADD PUSH1 0x40 MLOAD DUP1 SWAP2 SUB SWAP1 KECCAK256 PUSH1 0x3 ADD DUP4 SWAP1 DUP1 PUSH1 0x1 DUP2 SLOAD ADD DUP1 DUP3 SSTORE DUP1 SWAP2 POP POP PUSH1 0x1 SWAP1 SUB SWAP1 PUSH1 0x0 MSTORE PUSH1 0x20 PUSH1 0x0 KECCAK256 ADD PUSH1 0x0 SWAP1 SWAP2 SWAP1 SWAP2 SWAP1 SWAP2 POP SSTORE PUSH1 0x0 DUP1 PUSH1 0x0 SWAP2 POP JUMPDEST PUSH1 0x3 DUP5 PUSH1 0x40 MLOAD PUSH2 0x2B0E SWAP2 SWAP1 PUSH2 0x5778 JUMP JUMPDEST SWAP1 DUP2 MSTORE PUSH1 0x20 ADD PUSH1 0x40 MLOAD DUP1 SWAP2 SUB SWAP1 KECCAK256 PUSH1 0x3 ADD DUP1 SLOAD SWAP1 POP DUP3 LT ISZERO PUSH2 0x2CEE JUMPI DUP5 PUSH1 0x3 DUP6 PUSH1 0x40 MLOAD PUSH2 0x2B3B SWAP2 SWAP1 PUSH2 0x5778 JUMP JUMPDEST SWAP1 DUP2 MSTORE PUSH1 0x20 ADD PUSH1 0x40 MLOAD DUP1 SWAP2 SUB SWAP1 KECCAK256 PUSH1 0x3 ADD DUP4 DUP2 SLOAD DUP2 LT PUSH2 0x2B5E JUMPI PUSH2 0x2B5D PUSH2 0x5875 JUMP JUMPDEST JUMPDEST SWAP1 PUSH1 0x0 MSTORE PUSH1 0x20 PUSH1 0x0 KECCAK256 ADD SLOAD SUB PUSH2 0x2CDB JUMPI PUSH1 0x3 DUP5 PUSH1 0x40 MLOAD PUSH2 0x2B7E SWAP2 SWAP1 PUSH2 0x5778 JUMP JUMPDEST SWAP1 DUP2 MSTORE PUSH1 0x20 ADD PUSH1 0x40 MLOAD DUP1 SWAP2 SUB SWAP1 KECCAK256 PUSH1 0x3 ADD PUSH1 0x1 PUSH1 0x3 DUP7 PUSH1 0x40 MLOAD PUSH2 0x2BA1 SWAP2 SWAP1 PUSH2 0x5778 JUMP JUMPDEST SWAP1 DUP2 MSTORE PUSH1 0x20 ADD PUSH1 0x40 MLOAD DUP1 SWAP2 SUB SWAP1 KECCAK256 PUSH1 0x3 ADD DUP1 SLOAD SWAP1 POP PUSH2 0x2BC0 SWAP2 SWAP1 PUSH2 0x5967 JUMP JUMPDEST DUP2 SLOAD DUP2 LT PUSH2 0x2BD1 JUMPI PUSH2 0x2BD0 PUSH2 0x5875 JUMP JUMPDEST JUMPDEST SWAP1 PUSH1 0x0 MSTORE PUSH1 0x20 PUSH1 0x0 KECCAK256 ADD SLOAD PUSH1 0x3 DUP6 PUSH1 0x40 MLOAD PUSH2 0x2BEC SWAP2 SWAP1 PUSH2 0x5778 JUMP JUMPDEST SWAP1 DUP2 MSTORE PUSH1 0x20 ADD PUSH1 0x40 MLOAD DUP1 SWAP2 SUB SWAP1 KECCAK256 PUSH1 0x3 ADD DUP4 DUP2 SLOAD DUP2 LT PUSH2 0x2C0F JUMPI PUSH2 0x2C0E PUSH2 0x5875 JUMP JUMPDEST JUMPDEST SWAP1 PUSH1 0x0 MSTORE PUSH1 0x20 PUSH1 0x0 KECCAK256 ADD DUP2 SWAP1 SSTORE POP DUP5 PUSH1 0x3 DUP6 PUSH1 0x40 MLOAD PUSH2 0x2C2E SWAP2 SWAP1 PUSH2 0x5778 JUMP JUMPDEST SWAP1 DUP2 MSTORE PUSH1 0x20 ADD PUSH1 0x40 MLOAD DUP1 SWAP2 SUB SWAP1 KECCAK256 PUSH1 0x3 ADD PUSH1 0x1 PUSH1 0x3 DUP8 PUSH1 0x40 MLOAD PUSH2 0x2C51 SWAP2 SWAP1 PUSH2 0x5778 JUMP JUMPDEST SWAP1 DUP2 MSTORE PUSH1 0x20 ADD PUSH1 0x40 MLOAD DUP1 SWAP2 SUB SWAP1 KECCAK256 PUSH1 0x3 ADD DUP1 SLOAD SWAP1 POP PUSH2 0x2C70 SWAP2 SWAP1 PUSH2 0x5967 JUMP JUMPDEST DUP2 SLOAD DUP2 LT PUSH2 0x2C81 JUMPI PUSH2 0x2C80 PUSH2 0x5875 JUMP JUMPDEST JUMPDEST SWAP1 PUSH1 0x0 MSTORE PUSH1 0x20 PUSH1 0x0 KECCAK256 ADD DUP2 SWAP1 SSTORE POP PUSH1 0x3 DUP5 PUSH1 0x40 MLOAD PUSH2 0x2C9F SWAP2 SWAP1 PUSH2 0x5778 JUMP JUMPDEST SWAP1 DUP2 MSTORE PUSH1 0x20 ADD PUSH1 0x40 MLOAD DUP1 SWAP2 SUB SWAP1 KECCAK256 PUSH1 0x3 ADD DUP1 SLOAD DUP1 PUSH2 0x2CC0 JUMPI PUSH2 0x2CBF PUSH2 0x599B JUMP JUMPDEST JUMPDEST PUSH1 0x1 SWAP1 SUB DUP2 DUP2 SWAP1 PUSH1 0x0 MSTORE PUSH1 0x20 PUSH1 0x0 KECCAK256 ADD PUSH1 0x0 SWAP1 SSTORE SWAP1 SSTORE PUSH2 0x2CEE JUMP JUMPDEST DUP2 DUP1 PUSH2 0x2CE6 SWAP1 PUSH2 0x58D3 JUMP JUMPDEST SWAP3 POP POP PUSH2 0x2AFE JUMP JUMPDEST PUSH1 0x0 SWAP2 POP JUMPDEST PUSH1 0x4 PUSH1 0x3 DUP6 PUSH1 0x40 MLOAD PUSH2 0x2D05 SWAP2 SWAP1 PUSH2 0x5778 JUMP JUMPDEST SWAP1 DUP2 MSTORE PUSH1 0x20 ADD PUSH1 0x40 MLOAD DUP1 SWAP2 SUB SWAP1 KECCAK256 PUSH1 0x6 ADD PUSH1 0x40 MLOAD PUSH2 0x2D23 SWAP2 SWAP1 PUSH2 0x585E JUMP JUMPDEST SWAP1 DUP2 MSTORE PUSH1 0x20 ADD PUSH1 0x40 MLOAD DUP1 SWAP2 SUB SWAP1 KECCAK256 PUSH1 0x2 ADD DUP1 SLOAD SWAP1 POP DUP3 LT ISZERO PUSH2 0x2DBF JUMPI PUSH1 0x4 PUSH1 0x3 DUP6 PUSH1 0x40 MLOAD PUSH2 0x2D51 SWAP2 SWAP1 PUSH2 0x5778 JUMP JUMPDEST SWAP1 DUP2 MSTORE PUSH1 0x20 ADD PUSH1 0x40 MLOAD DUP1 SWAP2 SUB SWAP1 KECCAK256 PUSH1 0x6 ADD PUSH1 0x40 MLOAD PUSH2 0x2D6F SWAP2 SWAP1 PUSH2 0x585E JUMP JUMPDEST SWAP1 DUP2 MSTORE PUSH1 0x20 ADD PUSH1 0x40 MLOAD DUP1 SWAP2 SUB SWAP1 KECCAK256 PUSH1 0x2 ADD DUP3 DUP2 SLOAD DUP2 LT PUSH2 0x2D92 JUMPI PUSH2 0x2D91 PUSH2 0x5875 JUMP JUMPDEST JUMPDEST SWAP1 PUSH1 0x0 MSTORE PUSH1 0x20 PUSH1 0x0 KECCAK256 ADD SLOAD DUP6 SUB PUSH2 0x2DAC JUMPI PUSH1 0x1 SWAP1 POP PUSH2 0x2DBF JUMP JUMPDEST DUP2 DUP1 PUSH2 0x2DB7 SWAP1 PUSH2 0x58D3 JUMP JUMPDEST SWAP3 POP POP PUSH2 0x2CF3 JUMP JUMPDEST PUSH1 0x1 ISZERO ISZERO DUP2 ISZERO ISZERO SUB PUSH2 0x35B9 JUMPI PUSH1 0x3 DUP5 PUSH1 0x40 MLOAD PUSH2 0x2DDB SWAP2 SWAP1 PUSH2 0x5778 JUMP JUMPDEST SWAP1 DUP2 MSTORE PUSH1 0x20 ADD PUSH1 0x40 MLOAD DUP1 SWAP2 SUB SWAP1 KECCAK256 PUSH1 0x8 ADD DUP6 SWAP1 DUP1 PUSH1 0x1 DUP2 SLOAD ADD DUP1 DUP3 SSTORE DUP1 SWAP2 POP POP PUSH1 0x1 SWAP1 SUB SWAP1 PUSH1 0x0 MSTORE PUSH1 0x20 PUSH1 0x0 KECCAK256 ADD PUSH1 0x0 SWAP1 SWAP2 SWAP1 SWAP2 SWAP1 SWAP2 POP SSTORE PUSH1 0x0 SWAP2 POP JUMPDEST PUSH1 0x4 PUSH1 0x3 DUP6 PUSH1 0x40 MLOAD PUSH2 0x2E2A SWAP2 SWAP1 PUSH2 0x5778 JUMP JUMPDEST SWAP1 DUP2 MSTORE PUSH1 0x20 ADD PUSH1 0x40 MLOAD DUP1 SWAP2 SUB SWAP1 KECCAK256 PUSH1 0x6 ADD PUSH1 0x40 MLOAD PUSH2 0x2E48 SWAP2 SWAP1 PUSH2 0x585E JUMP JUMPDEST SWAP1 DUP2 MSTORE PUSH1 0x20 ADD PUSH1 0x40 MLOAD DUP1 SWAP2 SUB SWAP1 KECCAK256 PUSH1 0x2 ADD DUP3 DUP2 SLOAD DUP2 LT PUSH2 0x2E6B JUMPI PUSH2 0x2E6A PUSH2 0x5875 JUMP JUMPDEST JUMPDEST SWAP1 PUSH1 0x0 MSTORE PUSH1 0x20 PUSH1 0x0 KECCAK256 ADD SLOAD DUP3 LT ISZERO PUSH2 0x3101 JUMPI DUP5 PUSH1 0x3 DUP6 PUSH1 0x40 MLOAD PUSH2 0x2E8E SWAP2 SWAP1 PUSH2 0x5778 JUMP JUMPDEST SWAP1 DUP2 MSTORE PUSH1 0x20 ADD PUSH1 0x40 MLOAD DUP1 SWAP2 SUB SWAP1 KECCAK256 PUSH1 0x4 ADD DUP4 DUP2 SLOAD DUP2 LT PUSH2 0x2EB1 JUMPI PUSH2 0x2EB0 PUSH2 0x5875 JUMP JUMPDEST JUMPDEST SWAP1 PUSH1 0x0 MSTORE PUSH1 0x20 PUSH1 0x0 KECCAK256 ADD SLOAD SUB PUSH2 0x30EE JUMPI PUSH1 0x4 PUSH1 0x3 DUP6 PUSH1 0x40 MLOAD PUSH2 0x2ED3 SWAP2 SWAP1 PUSH2 0x5778 JUMP JUMPDEST SWAP1 DUP2 MSTORE PUSH1 0x20 ADD PUSH1 0x40 MLOAD DUP1 SWAP2 SUB SWAP1 KECCAK256 PUSH1 0x6 ADD PUSH1 0x40 MLOAD PUSH2 0x2EF1 SWAP2 SWAP1 PUSH2 0x585E JUMP JUMPDEST SWAP1 DUP2 MSTORE PUSH1 0x20 ADD PUSH1 0x40 MLOAD DUP1 SWAP2 SUB SWAP1 KECCAK256 PUSH1 0x2 ADD PUSH1 0x1 PUSH1 0x4 PUSH1 0x3 DUP8 PUSH1 0x40 MLOAD PUSH2 0x2F16 SWAP2 SWAP1 PUSH2 0x5778 JUMP JUMPDEST SWAP1 DUP2 MSTORE PUSH1 0x20 ADD PUSH1 0x40 MLOAD DUP1 SWAP2 SUB SWAP1 KECCAK256 PUSH1 0x6 ADD PUSH1 0x40 MLOAD PUSH2 0x2F34 SWAP2 SWAP1 PUSH2 0x585E JUMP JUMPDEST SWAP1 DUP2 MSTORE PUSH1 0x20 ADD PUSH1 0x40 MLOAD DUP1 SWAP2 SUB SWAP1 KECCAK256 PUSH1 0x2 ADD DUP1 SLOAD SWAP1 POP PUSH2 0x2F53 SWAP2 SWAP1 PUSH2 0x5967 JUMP JUMPDEST DUP2 SLOAD DUP2 LT PUSH2 0x2F64 JUMPI PUSH2 0x2F63 PUSH2 0x5875 JUMP JUMPDEST JUMPDEST SWAP1 PUSH1 0x0 MSTORE PUSH1 0x20 PUSH1 0x0 KECCAK256 ADD SLOAD PUSH1 0x4 PUSH1 0x3 DUP7 PUSH1 0x40 MLOAD PUSH2 0x2F81 SWAP2 SWAP1 PUSH2 0x5778 JUMP JUMPDEST SWAP1 DUP2 MSTORE PUSH1 0x20 ADD PUSH1 0x40 MLOAD DUP1 SWAP2 SUB SWAP1 KECCAK256 PUSH1 0x6 ADD PUSH1 0x40 MLOAD PUSH2 0x2F9F SWAP2 SWAP1 PUSH2 0x585E JUMP JUMPDEST SWAP1 DUP2 MSTORE PUSH1 0x20 ADD PUSH1 0x40 MLOAD DUP1 SWAP2 SUB SWAP1 KECCAK256 PUSH1 0x2 ADD DUP4 DUP2 SLOAD DUP2 LT PUSH2 0x2FC2 JUMPI PUSH2 0x2FC1 PUSH2 0x5875 JUMP JUMPDEST JUMPDEST SWAP1 PUSH1 0x0 MSTORE PUSH1 0x20 PUSH1 0x0 KECCAK256 ADD DUP2 SWAP1 SSTORE POP DUP5 PUSH1 0x4 PUSH1 0x3 DUP7 PUSH1 0x40 MLOAD PUSH2 0x2FE3 SWAP2 SWAP1 PUSH2 0x5778 JUMP JUMPDEST SWAP1 DUP2 MSTORE PUSH1 0x20 ADD PUSH1 0x40 MLOAD DUP1 SWAP2 SUB SWAP1 KECCAK256 PUSH1 0x6 ADD PUSH1 0x40 MLOAD PUSH2 0x3001 SWAP2 SWAP1 PUSH2 0x585E JUMP JUMPDEST SWAP1 DUP2 MSTORE PUSH1 0x20 ADD PUSH1 0x40 MLOAD DUP1 SWAP2 SUB SWAP1 KECCAK256 PUSH1 0x2 ADD PUSH1 0x1 PUSH1 0x4 PUSH1 0x3 DUP9 PUSH1 0x40 MLOAD PUSH2 0x3026 SWAP2 SWAP1 PUSH2 0x5778 JUMP JUMPDEST SWAP1 DUP2 MSTORE PUSH1 0x20 ADD PUSH1 0x40 MLOAD DUP1 SWAP2 SUB SWAP1 KECCAK256 PUSH1 0x6 ADD PUSH1 0x40 MLOAD PUSH2 0x3044 SWAP2 SWAP1 PUSH2 0x585E JUMP JUMPDEST SWAP1 DUP2 MSTORE PUSH1 0x20 ADD PUSH1 0x40 MLOAD DUP1 SWAP2 SUB SWAP1 KECCAK256 PUSH1 0x2 ADD DUP1 SLOAD SWAP1 POP PUSH2 0x3063 SWAP2 SWAP1 PUSH2 0x5967 JUMP JUMPDEST DUP2 SLOAD DUP2 LT PUSH2 0x3074 JUMPI PUSH2 0x3073 PUSH2 0x5875 JUMP JUMPDEST JUMPDEST SWAP1 PUSH1 0x0 MSTORE PUSH1 0x20 PUSH1 0x0 KECCAK256 ADD DUP2 SWAP1 SSTORE POP PUSH1 0x4 PUSH1 0x3 DUP6 PUSH1 0x40 MLOAD PUSH2 0x3094 SWAP2 SWAP1 PUSH2 0x5778 JUMP JUMPDEST SWAP1 DUP2 MSTORE PUSH1 0x20 ADD PUSH1 0x40 MLOAD DUP1 SWAP2 SUB SWAP1 KECCAK256 PUSH1 0x6 ADD PUSH1 0x40 MLOAD PUSH2 0x30B2 SWAP2 SWAP1 PUSH2 0x585E JUMP JUMPDEST SWAP1 DUP2 MSTORE PUSH1 0x20 ADD PUSH1 0x40 MLOAD DUP1 SWAP2 SUB SWAP1 KECCAK256 PUSH1 0x2 ADD DUP1 SLOAD DUP1 PUSH2 0x30D3 JUMPI PUSH2 0x30D2 PUSH2 0x599B JUMP JUMPDEST JUMPDEST PUSH1 0x1 SWAP1 SUB DUP2 DUP2 SWAP1 PUSH1 0x0 MSTORE PUSH1 0x20 PUSH1 0x0 KECCAK256 ADD PUSH1 0x0 SWAP1 SSTORE SWAP1 SSTORE PUSH2 0x3101 JUMP JUMPDEST DUP2 DUP1 PUSH2 0x30F9 SWAP1 PUSH2 0x58D3 JUMP JUMPDEST SWAP3 POP POP PUSH2 0x2E18 JUMP JUMPDEST PUSH1 0x0 SWAP2 POP JUMPDEST PUSH1 0x3 PUSH1 0x2 PUSH1 0x1 PUSH1 0x0 DUP9 DUP2 MSTORE PUSH1 0x20 ADD SWAP1 DUP2 MSTORE PUSH1 0x20 ADD PUSH1 0x0 KECCAK256 PUSH1 0x4 ADD PUSH1 0x40 MLOAD PUSH2 0x312D SWAP2 SWAP1 PUSH2 0x585E JUMP JUMPDEST SWAP1 DUP2 MSTORE PUSH1 0x20 ADD PUSH1 0x40 MLOAD DUP1 SWAP2 SUB SWAP1 KECCAK256 PUSH1 0x2 ADD PUSH1 0x40 MLOAD PUSH2 0x314B SWAP2 SWAP1 PUSH2 0x585E JUMP JUMPDEST SWAP1 DUP2 MSTORE PUSH1 0x20 ADD PUSH1 0x40 MLOAD DUP1 SWAP2 SUB SWAP1 KECCAK256 PUSH1 0x4 ADD DUP1 SLOAD SWAP1 POP DUP3 LT ISZERO PUSH2 0x349A JUMPI DUP5 PUSH1 0x3 PUSH1 0x2 PUSH1 0x1 PUSH1 0x0 DUP10 DUP2 MSTORE PUSH1 0x20 ADD SWAP1 DUP2 MSTORE PUSH1 0x20 ADD PUSH1 0x0 KECCAK256 PUSH1 0x4 ADD PUSH1 0x40 MLOAD PUSH2 0x318F SWAP2 SWAP1 PUSH2 0x585E JUMP JUMPDEST SWAP1 DUP2 MSTORE PUSH1 0x20 ADD PUSH1 0x40 MLOAD DUP1 SWAP2 SUB SWAP1 KECCAK256 PUSH1 0x2 ADD PUSH1 0x40 MLOAD PUSH2 0x31AD SWAP2 SWAP1 PUSH2 0x585E JUMP JUMPDEST SWAP1 DUP2 MSTORE PUSH1 0x20 ADD PUSH1 0x40 MLOAD DUP1 SWAP2 SUB SWAP1 KECCAK256 PUSH1 0x4 ADD DUP4 DUP2 SLOAD DUP2 LT PUSH2 0x31D0 JUMPI PUSH2 0x31CF PUSH2 0x5875 JUMP JUMPDEST JUMPDEST SWAP1 PUSH1 0x0 MSTORE PUSH1 0x20 PUSH1 0x0 KECCAK256 ADD SLOAD SUB PUSH2 0x3487 JUMPI PUSH1 0x3 PUSH1 0x2 PUSH1 0x1 PUSH1 0x0 DUP9 DUP2 MSTORE PUSH1 0x20 ADD SWAP1 DUP2 MSTORE PUSH1 0x20 ADD PUSH1 0x0 KECCAK256 PUSH1 0x4 ADD PUSH1 0x40 MLOAD PUSH2 0x3207 SWAP2 SWAP1 PUSH2 0x585E JUMP JUMPDEST SWAP1 DUP2 MSTORE PUSH1 0x20 ADD PUSH1 0x40 MLOAD DUP1 SWAP2 SUB SWAP1 KECCAK256 PUSH1 0x2 ADD PUSH1 0x40 MLOAD PUSH2 0x3225 SWAP2 SWAP1 PUSH2 0x585E JUMP JUMPDEST SWAP1 DUP2 MSTORE PUSH1 0x20 ADD PUSH1 0x40 MLOAD DUP1 SWAP2 SUB SWAP1 KECCAK256 PUSH1 0x4 ADD PUSH1 0x1 PUSH1 0x3 PUSH1 0x2 PUSH1 0x1 PUSH1 0x0 DUP11 DUP2 MSTORE PUSH1 0x20 ADD SWAP1 DUP2 MSTORE PUSH1 0x20 ADD PUSH1 0x0 KECCAK256 PUSH1 0x4 ADD PUSH1 0x40 MLOAD PUSH2 0x325F SWAP2 SWAP1 PUSH2 0x585E JUMP JUMPDEST SWAP1 DUP2 MSTORE PUSH1 0x20 ADD PUSH1 0x40 MLOAD DUP1 SWAP2 SUB SWAP1 KECCAK256 PUSH1 0x2 ADD PUSH1 0x40 MLOAD PUSH2 0x327D SWAP2 SWAP1 PUSH2 0x585E JUMP JUMPDEST SWAP1 DUP2 MSTORE PUSH1 0x20 ADD PUSH1 0x40 MLOAD DUP1 SWAP2 SUB SWAP1 KECCAK256 PUSH1 0x4 ADD DUP1 SLOAD SWAP1 POP PUSH2 0x329C SWAP2 SWAP1 PUSH2 0x5967 JUMP JUMPDEST DUP2 SLOAD DUP2 LT PUSH2 0x32AD JUMPI PUSH2 0x32AC PUSH2 0x5875 JUMP JUMPDEST JUMPDEST SWAP1 PUSH1 0x0 MSTORE PUSH1 0x20 PUSH1 0x0 KECCAK256 ADD SLOAD PUSH1 0x3 PUSH1 0x2 PUSH1 0x1 PUSH1 0x0 DUP10 DUP2 MSTORE PUSH1 0x20 ADD SWAP1 DUP2 MSTORE PUSH1 0x20 ADD PUSH1 0x0 KECCAK256 PUSH1 0x4 ADD PUSH1 0x40 MLOAD PUSH2 0x32DF SWAP2 SWAP1 PUSH2 0x585E JUMP JUMPDEST SWAP1 DUP2 MSTORE PUSH1 0x20 ADD PUSH1 0x40 MLOAD DUP1 SWAP2 SUB SWAP1 KECCAK256 PUSH1 0x2 ADD PUSH1 0x40 MLOAD PUSH2 0x32FD SWAP2 SWAP1 PUSH2 0x585E JUMP JUMPDEST SWAP1 DUP2 MSTORE PUSH1 0x20 ADD PUSH1 0x40 MLOAD DUP1 SWAP2 SUB SWAP1 KECCAK256 PUSH1 0x4 ADD DUP4 DUP2 SLOAD DUP2 LT PUSH2 0x3320 JUMPI PUSH2 0x331F PUSH2 0x5875 JUMP JUMPDEST JUMPDEST SWAP1 PUSH1 0x0 MSTORE PUSH1 0x20 PUSH1 0x0 KECCAK256 ADD DUP2 SWAP1 SSTORE POP DUP5 PUSH1 0x3 PUSH1 0x2 PUSH1 0x1 PUSH1 0x0 DUP10 DUP2 MSTORE PUSH1 0x20 ADD SWAP1 DUP2 MSTORE PUSH1 0x20 ADD PUSH1 0x0 KECCAK256 PUSH1 0x4 ADD PUSH1 0x40 MLOAD PUSH2 0x3356 SWAP2 SWAP1 PUSH2 0x585E JUMP JUMPDEST SWAP1 DUP2 MSTORE PUSH1 0x20 ADD PUSH1 0x40 MLOAD DUP1 SWAP2 SUB SWAP1 KECCAK256 PUSH1 0x2 ADD PUSH1 0x40 MLOAD PUSH2 0x3374 SWAP2 SWAP1 PUSH2 0x585E JUMP JUMPDEST SWAP1 DUP2 MSTORE PUSH1 0x20 ADD PUSH1 0x40 MLOAD DUP1 SWAP2 SUB SWAP1 KECCAK256 PUSH1 0x4 ADD PUSH1 0x1 PUSH1 0x3 PUSH1 0x2 PUSH1 0x1 PUSH1 0x0 DUP12 DUP2 MSTORE PUSH1 0x20 ADD SWAP1 DUP2 MSTORE PUSH1 0x20 ADD PUSH1 0x0 KECCAK256 PUSH1 0x4 ADD PUSH1 0x40 MLOAD PUSH2 0x33AE SWAP2 SWAP1 PUSH2 0x585E JUMP JUMPDEST SWAP1 DUP2 MSTORE PUSH1 0x20 ADD PUSH1 0x40 MLOAD DUP1 SWAP2 SUB SWAP1 KECCAK256 PUSH1 0x2 ADD PUSH1 0x40 MLOAD PUSH2 0x33CC SWAP2 SWAP1 PUSH2 0x585E JUMP JUMPDEST SWAP1 DUP2 MSTORE PUSH1 0x20 ADD PUSH1 0x40 MLOAD DUP1 SWAP2 SUB SWAP1 KECCAK256 PUSH1 0x4 ADD DUP1 SLOAD SWAP1 POP PUSH2 0x33EB SWAP2 SWAP1 PUSH2 0x5967 JUMP JUMPDEST DUP2 SLOAD DUP2 LT PUSH2 0x33FC JUMPI PUSH2 0x33FB PUSH2 0x5875 JUMP JUMPDEST JUMPDEST SWAP1 PUSH1 0x0 MSTORE PUSH1 0x20 PUSH1 0x0 KECCAK256 ADD DUP2 SWAP1 SSTORE POP PUSH1 0x3 PUSH1 0x2 PUSH1 0x1 PUSH1 0x0 DUP9 DUP2 MSTORE PUSH1 0x20 ADD SWAP1 DUP2 MSTORE PUSH1 0x20 ADD PUSH1 0x0 KECCAK256 PUSH1 0x4 ADD PUSH1 0x40 MLOAD PUSH2 0x3431 SWAP2 SWAP1 PUSH2 0x585E JUMP JUMPDEST SWAP1 DUP2 MSTORE PUSH1 0x20 ADD PUSH1 0x40 MLOAD DUP1 SWAP2 SUB SWAP1 KECCAK256 PUSH1 0x2 ADD PUSH1 0x40 MLOAD PUSH2 0x344F SWAP2 SWAP1 PUSH2 0x585E JUMP JUMPDEST SWAP1 DUP2 MSTORE PUSH1 0x20 ADD PUSH1 0x40 MLOAD DUP1 SWAP2 SUB SWAP1 KECCAK256 PUSH1 0x4 ADD DUP1 SLOAD DUP1 PUSH2 0x3470 JUMPI PUSH2 0x346F PUSH2 0x599B JUMP JUMPDEST JUMPDEST PUSH1 0x1 SWAP1 SUB DUP2 DUP2 SWAP1 PUSH1 0x0 MSTORE PUSH1 0x20 PUSH1 0x0 KECCAK256 ADD PUSH1 0x0 SWAP1 SSTORE SWAP1 SSTORE JUMPDEST DUP2 DUP1 PUSH2 0x3492 SWAP1 PUSH2 0x58D3 JUMP JUMPDEST SWAP3 POP POP PUSH2 0x3106 JUMP JUMPDEST PUSH1 0x3 PUSH1 0x2 PUSH1 0x1 PUSH1 0x0 DUP9 DUP2 MSTORE PUSH1 0x20 ADD SWAP1 DUP2 MSTORE PUSH1 0x20 ADD PUSH1 0x0 KECCAK256 PUSH1 0x4 ADD PUSH1 0x40 MLOAD PUSH2 0x34C1 SWAP2 SWAP1 PUSH2 0x585E JUMP JUMPDEST SWAP1 DUP2 MSTORE PUSH1 0x20 ADD PUSH1 0x40 MLOAD DUP1 SWAP2 SUB SWAP1 KECCAK256 PUSH1 0x2 ADD PUSH1 0x40 MLOAD PUSH2 0x34DF SWAP2 SWAP1 PUSH2 0x585E JUMP JUMPDEST SWAP1 DUP2 MSTORE PUSH1 0x20 ADD PUSH1 0x40 MLOAD DUP1 SWAP2 SUB SWAP1 KECCAK256 PUSH1 0x7 ADD DUP6 SWAP1 DUP1 PUSH1 0x1 DUP2 SLOAD ADD DUP1 DUP3 SSTORE DUP1 SWAP2 POP POP PUSH1 0x1 SWAP1 SUB SWAP1 PUSH1 0x0 MSTORE PUSH1 0x20 PUSH1 0x0 KECCAK256 ADD PUSH1 0x0 SWAP1 SWAP2 SWAP1 SWAP2 SWAP1 SWAP2 POP SSTORE PUSH1 0x4 PUSH1 0x3 PUSH1 0x2 PUSH1 0x1 PUSH1 0x0 DUP10 DUP2 MSTORE PUSH1 0x20 ADD SWAP1 DUP2 MSTORE PUSH1 0x20 ADD PUSH1 0x0 KECCAK256 PUSH1 0x4 ADD PUSH1 0x40 MLOAD PUSH2 0x3540 SWAP2 SWAP1 PUSH2 0x585E JUMP JUMPDEST SWAP1 DUP2 MSTORE PUSH1 0x20 ADD PUSH1 0x40 MLOAD DUP1 SWAP2 SUB SWAP1 KECCAK256 PUSH1 0x2 ADD PUSH1 0x40 MLOAD PUSH2 0x355E SWAP2 SWAP1 PUSH2 0x585E JUMP JUMPDEST SWAP1 DUP2 MSTORE PUSH1 0x20 ADD PUSH1 0x40 MLOAD DUP1 SWAP2 SUB SWAP1 KECCAK256 PUSH1 0x6 ADD PUSH1 0x40 MLOAD PUSH2 0x357C SWAP2 SWAP1 PUSH2 0x585E JUMP JUMPDEST SWAP1 DUP2 MSTORE PUSH1 0x20 ADD PUSH1 0x40 MLOAD DUP1 SWAP2 SUB SWAP1 KECCAK256 PUSH1 0x5 ADD DUP6 SWAP1 DUP1 PUSH1 0x1 DUP2 SLOAD ADD DUP1 DUP3 SSTORE DUP1 SWAP2 POP POP PUSH1 0x1 SWAP1 SUB SWAP1 PUSH1 0x0 MSTORE PUSH1 0x20 PUSH1 0x0 KECCAK256 ADD PUSH1 0x0 SWAP1 SWAP2 SWAP1 SWAP2 SWAP1 SWAP2 POP SSTORE PUSH2 0x3602 JUMP JUMPDEST PUSH1 0x3 DUP5 PUSH1 0x40 MLOAD PUSH2 0x35C9 SWAP2 SWAP1 PUSH2 0x5778 JUMP JUMPDEST SWAP1 DUP2 MSTORE PUSH1 0x20 ADD PUSH1 0x40 MLOAD DUP1 SWAP2 SUB SWAP1 KECCAK256 PUSH1 0x7 ADD DUP6 SWAP1 DUP1 PUSH1 0x1 DUP2 SLOAD ADD DUP1 DUP3 SSTORE DUP1 SWAP2 POP POP PUSH1 0x1 SWAP1 SUB SWAP1 PUSH1 0x0 MSTORE PUSH1 0x20 PUSH1 0x0 KECCAK256 ADD PUSH1 0x0 SWAP1 SWAP2 SWAP1 SWAP2 SWAP1 SWAP2 POP SSTORE JUMPDEST POP POP POP POP POP JUMP JUMPDEST PUSH1 0x60 DUP1 PUSH1 0x60 DUP1 PUSH1 0x0 PUSH1 0x60 PUSH1 0x1 PUSH1 0x0 DUP9 DUP2 MSTORE PUSH1 0x20 ADD SWAP1 DUP2 MSTORE PUSH1 0x20 ADD PUSH1 0x0 KECCAK256 PUSH1 0x1 ADD PUSH1 0x1 PUSH1 0x0 DUP10 DUP2 MSTORE PUSH1 0x20 ADD SWAP1 DUP2 MSTORE PUSH1 0x20 ADD PUSH1 0x0 KECCAK256 PUSH1 0x2 ADD PUSH1 0x1 PUSH1 0x0 DUP11 DUP2 MSTORE PUSH1 0x20 ADD SWAP1 DUP2 MSTORE PUSH1 0x20 ADD PUSH1 0x0 KECCAK256 PUSH1 0x3 ADD PUSH1 0x1 PUSH1 0x0 DUP12 DUP2 MSTORE PUSH1 0x20 ADD SWAP1 DUP2 MSTORE PUSH1 0x20 ADD PUSH1 0x0 KECCAK256 PUSH1 0x4 ADD PUSH1 0x1 PUSH1 0x0 DUP13 DUP2 MSTORE PUSH1 0x20 ADD SWAP1 DUP2 MSTORE PUSH1 0x20 ADD PUSH1 0x0 KECCAK256 PUSH1 0x8 ADD PUSH1 0x0 ADD SLOAD PUSH1 0x1 PUSH1 0x0 DUP14 DUP2 MSTORE PUSH1 0x20 ADD SWAP1 DUP2 MSTORE PUSH1 0x20 ADD PUSH1 0x0 KECCAK256 PUSH1 0x7 ADD DUP6 DUP1 SLOAD PUSH2 0x36A7 SWAP1 PUSH2 0x54C9 JUMP JUMPDEST DUP1 PUSH1 0x1F ADD PUSH1 0x20 DUP1 SWAP2 DIV MUL PUSH1 0x20 ADD PUSH1 0x40 MLOAD SWAP1 DUP2 ADD PUSH1 0x40 MSTORE DUP1 SWAP3 SWAP2 SWAP1 DUP2 DUP2 MSTORE PUSH1 0x20 ADD DUP3 DUP1 SLOAD PUSH2 0x36D3 SWAP1 PUSH2 0x54C9 JUMP JUMPDEST DUP1 ISZERO PUSH2 0x3720 JUMPI DUP1 PUSH1 0x1F LT PUSH2 0x36F5 JUMPI PUSH2 0x100 DUP1 DUP4 SLOAD DIV MUL DUP4 MSTORE SWAP2 PUSH1 0x20 ADD SWAP2 PUSH2 0x3720 JUMP JUMPDEST DUP3 ADD SWAP2 SWAP1 PUSH1 0x0 MSTORE PUSH1 0x20 PUSH1 0x0 KECCAK256 SWAP1 JUMPDEST DUP2 SLOAD DUP2 MSTORE SWAP1 PUSH1 0x1 ADD SWAP1 PUSH1 0x20 ADD DUP1 DUP4 GT PUSH2 0x3703 JUMPI DUP3 SWAP1 SUB PUSH1 0x1F AND DUP3 ADD SWAP2 JUMPDEST POP POP POP POP POP SWAP6 POP DUP5 DUP1 SLOAD PUSH2 0x3733 SWAP1 PUSH2 0x54C9 JUMP JUMPDEST DUP1 PUSH1 0x1F ADD PUSH1 0x20 DUP1 SWAP2 DIV MUL PUSH1 0x20 ADD PUSH1 0x40 MLOAD SWAP1 DUP2 ADD PUSH1 0x40 MSTORE DUP1 SWAP3 SWAP2 SWAP1 DUP2 DUP2 MSTORE PUSH1 0x20 ADD DUP3 DUP1 SLOAD PUSH2 0x375F SWAP1 PUSH2 0x54C9 JUMP JUMPDEST DUP1 ISZERO PUSH2 0x37AC JUMPI DUP1 PUSH1 0x1F LT PUSH2 0x3781 JUMPI PUSH2 0x100 DUP1 DUP4 SLOAD DIV MUL DUP4 MSTORE SWAP2 PUSH1 0x20 ADD SWAP2 PUSH2 0x37AC JUMP JUMPDEST DUP3 ADD SWAP2 SWAP1 PUSH1 0x0 MSTORE PUSH1 0x20 PUSH1 0x0 KECCAK256 SWAP1 JUMPDEST DUP2 SLOAD DUP2 MSTORE SWAP1 PUSH1 0x1 ADD SWAP1 PUSH1 0x20 ADD DUP1 DUP4 GT PUSH2 0x378F JUMPI DUP3 SWAP1 SUB PUSH1 0x1F AND DUP3 ADD SWAP2 JUMPDEST POP POP POP POP POP SWAP5 POP DUP4 DUP1 SLOAD PUSH2 0x37BF SWAP1 PUSH2 0x54C9 JUMP JUMPDEST DUP1 PUSH1 0x1F ADD PUSH1 0x20 DUP1 SWAP2 DIV MUL PUSH1 0x20 ADD PUSH1 0x40 MLOAD SWAP1 DUP2 ADD PUSH1 0x40 MSTORE DUP1 SWAP3 SWAP2 SWAP1 DUP2 DUP2 MSTORE PUSH1 0x20 ADD DUP3 DUP1 SLOAD PUSH2 0x37EB SWAP1 PUSH2 0x54C9 JUMP JUMPDEST DUP1 ISZERO PUSH2 0x3838 JUMPI DUP1 PUSH1 0x1F LT PUSH2 0x380D JUMPI PUSH2 0x100 DUP1 DUP4 SLOAD DIV MUL DUP4 MSTORE SWAP2 PUSH1 0x20 ADD SWAP2 PUSH2 0x3838 JUMP JUMPDEST DUP3 ADD SWAP2 SWAP1 PUSH1 0x0 MSTORE PUSH1 0x20 PUSH1 0x0 KECCAK256 SWAP1 JUMPDEST DUP2 SLOAD DUP2 MSTORE SWAP1 PUSH1 0x1 ADD SWAP1 PUSH1 0x20 ADD DUP1 DUP4 GT PUSH2 0x381B JUMPI DUP3 SWAP1 SUB PUSH1 0x1F AND DUP3 ADD SWAP2 JUMPDEST POP POP POP POP POP SWAP4 POP DUP3 DUP1 SLOAD PUSH2 0x384B SWAP1 PUSH2 0x54C9 JUMP JUMPDEST DUP1 PUSH1 0x1F ADD PUSH1 0x20 DUP1 SWAP2 DIV MUL PUSH1 0x20 ADD PUSH1 0x40 MLOAD SWAP1 DUP2 ADD PUSH1 0x40 MSTORE DUP1 SWAP3 SWAP2 SWAP1 DUP2 DUP2 MSTORE PUSH1 0x20 ADD DUP3 DUP1 SLOAD PUSH2 0x3877 SWAP1 PUSH2 0x54C9 JUMP JUMPDEST DUP1 ISZERO PUSH2 0x38C4 JUMPI DUP1 PUSH1 0x1F LT PUSH2 0x3899 JUMPI PUSH2 0x100 DUP1 DUP4 SLOAD DIV MUL DUP4 MSTORE SWAP2 PUSH1 0x20 ADD SWAP2 PUSH2 0x38C4 JUMP JUMPDEST DUP3 ADD SWAP2 SWAP1 PUSH1 0x0 MSTORE PUSH1 0x20 PUSH1 0x0 KECCAK256 SWAP1 JUMPDEST DUP2 SLOAD DUP2 MSTORE SWAP1 PUSH1 0x1 ADD SWAP1 PUSH1 0x20 ADD DUP1 DUP4 GT PUSH2 0x38A7 JUMPI DUP3 SWAP1 SUB PUSH1 0x1F AND DUP3 ADD SWAP2 JUMPDEST POP POP POP POP POP SWAP3 POP DUP1 DUP1 SLOAD PUSH2 0x38D7 SWAP1 PUSH2 0x54C9 JUMP JUMPDEST DUP1 PUSH1 0x1F ADD PUSH1 0x20 DUP1 SWAP2 DIV MUL PUSH1 0x20 ADD PUSH1 0x40 MLOAD SWAP1 DUP2 ADD PUSH1 0x40 MSTORE DUP1 SWAP3 SWAP2 SWAP1 DUP2 DUP2 MSTORE PUSH1 0x20 ADD DUP3 DUP1 SLOAD PUSH2 0x3903 SWAP1 PUSH2 0x54C9 JUMP JUMPDEST DUP1 ISZERO PUSH2 0x3950 JUMPI DUP1 PUSH1 0x1F LT PUSH2 0x3925 JUMPI PUSH2 0x100 DUP1 DUP4 SLOAD DIV MUL DUP4 MSTORE SWAP2 PUSH1 0x20 ADD SWAP2 PUSH2 0x3950 JUMP JUMPDEST DUP3 ADD SWAP2 SWAP1 PUSH1 0x0 MSTORE PUSH1 0x20 PUSH1 0x0 KECCAK256 SWAP1 JUMPDEST DUP2 SLOAD DUP2 MSTORE SWAP1 PUSH1 0x1 ADD SWAP1 PUSH1 0x20 ADD DUP1 DUP4 GT PUSH2 0x3933 JUMPI DUP3 SWAP1 SUB PUSH1 0x1F AND DUP3 ADD SWAP2 JUMPDEST POP POP POP POP POP SWAP1 POP SWAP6 POP SWAP6 POP SWAP6 POP SWAP6 POP SWAP6 POP SWAP6 POP SWAP2 SWAP4 SWAP6 POP SWAP2 SWAP4 SWAP6 JUMP JUMPDEST PUSH1 0x60 DUP1 PUSH1 0x3 DUP4 PUSH1 0x40 MLOAD PUSH2 0x397F SWAP2 SWAP1 PUSH2 0x5778 JUMP JUMPDEST SWAP1 DUP2 MSTORE PUSH1 0x20 ADD PUSH1 0x40 MLOAD DUP1 SWAP2 SUB SWAP1 KECCAK256 PUSH1 0x6 ADD PUSH1 0x3 DUP5 PUSH1 0x40 MLOAD PUSH2 0x39A0 SWAP2 SWAP1 PUSH2 0x5778 JUMP JUMPDEST SWAP1 DUP2 MSTORE PUSH1 0x20 ADD PUSH1 0x40 MLOAD DUP1 SWAP2 SUB SWAP1 KECCAK256 PUSH1 0x4 ADD DUP2 DUP1 SLOAD PUSH2 0x39BD SWAP1 PUSH2 0x54C9 JUMP JUMPDEST DUP1 PUSH1 0x1F ADD PUSH1 0x20 DUP1 SWAP2 DIV MUL PUSH1 0x20 ADD PUSH1 0x40 MLOAD SWAP1 DUP2 ADD PUSH1 0x40 MSTORE DUP1 SWAP3 SWAP2 SWAP1 DUP2 DUP2 MSTORE PUSH1 0x20 ADD DUP3 DUP1 SLOAD PUSH2 0x39E9 SWAP1 PUSH2 0x54C9 JUMP JUMPDEST DUP1 ISZERO PUSH2 0x3A36 JUMPI DUP1 PUSH1 0x1F LT PUSH2 0x3A0B JUMPI PUSH2 0x100 DUP1 DUP4 SLOAD DIV MUL DUP4 MSTORE SWAP2 PUSH1 0x20 ADD SWAP2 PUSH2 0x3A36 JUMP JUMPDEST DUP3 ADD SWAP2 SWAP1 PUSH1 0x0 MSTORE PUSH1 0x20 PUSH1 0x0 KECCAK256 SWAP1 JUMPDEST DUP2 SLOAD DUP2 MSTORE SWAP1 PUSH1 0x1 ADD SWAP1 PUSH1 0x20 ADD DUP1 DUP4 GT PUSH2 0x3A19 JUMPI DUP3 SWAP1 SUB PUSH1 0x1F AND DUP3 ADD SWAP2 JUMPDEST POP POP POP POP POP SWAP2 POP DUP1 DUP1 SLOAD DUP1 PUSH1 0x20 MUL PUSH1 0x20 ADD PUSH1 0x40 MLOAD SWAP1 DUP2 ADD PUSH1 0x40 MSTORE DUP1 SWAP3 SWAP2 SWAP1 DUP2 DUP2 MSTORE PUSH1 0x20 ADD DUP3 DUP1 SLOAD DUP1 ISZERO PUSH2 0x3A88 JUMPI PUSH1 0x20 MUL DUP3 ADD SWAP2 SWAP1 PUSH1 0x0 MSTORE PUSH1 0x20 PUSH1 0x0 KECCAK256 SWAP1 JUMPDEST DUP2 SLOAD DUP2 MSTORE PUSH1 0x20 ADD SWAP1 PUSH1 0x1 ADD SWAP1 DUP1 DUP4 GT PUSH2 0x3A74 JUMPI JUMPDEST POP POP POP POP POP SWAP1 POP SWAP2 POP SWAP2 POP SWAP2 POP SWAP2 JUMP JUMPDEST PUSH2 0x3AA0 PUSH2 0x4A01 JUMP JUMPDEST PUSH1 0x60 DUP1 PUSH1 0x0 DUP1 PUSH1 0x2 DUP7 PUSH1 0x40 MLOAD PUSH2 0x3AB6 SWAP2 SWAP1 PUSH2 0x5778 JUMP JUMPDEST SWAP1 DUP2 MSTORE PUSH1 0x20 ADD PUSH1 0x40 MLOAD DUP1 SWAP2 SUB SWAP1 KECCAK256 PUSH1 0x1 ADD DUP1 SLOAD SWAP1 POP SWAP1 POP PUSH1 0x0 DUP2 PUSH8 0xFFFFFFFFFFFFFFFF DUP2 GT ISZERO PUSH2 0x3AE9 JUMPI PUSH2 0x3AE8 PUSH2 0x4A8D JUMP JUMPDEST JUMPDEST PUSH1 0x40 MLOAD SWAP1 DUP1 DUP3 MSTORE DUP1 PUSH1 0x20 MUL PUSH1 0x20 ADD DUP3 ADD PUSH1 0x40 MSTORE DUP1 ISZERO PUSH2 0x3B1C JUMPI DUP2 PUSH1 0x20 ADD JUMPDEST PUSH1 0x60 DUP2 MSTORE PUSH1 0x20 ADD SWAP1 PUSH1 0x1 SWAP1 SUB SWAP1 DUP2 PUSH2 0x3B07 JUMPI SWAP1 POP JUMPDEST POP SWAP1 POP PUSH1 0x0 DUP3 PUSH8 0xFFFFFFFFFFFFFFFF DUP2 GT ISZERO PUSH2 0x3B3B JUMPI PUSH2 0x3B3A PUSH2 0x4A8D JUMP JUMPDEST JUMPDEST PUSH1 0x40 MLOAD SWAP1 DUP1 DUP3 MSTORE DUP1 PUSH1 0x20 MUL PUSH1 0x20 ADD DUP3 ADD PUSH1 0x40 MSTORE DUP1 ISZERO PUSH2 0x3B6E JUMPI DUP2 PUSH1 0x20 ADD JUMPDEST PUSH1 0x60 DUP2 MSTORE PUSH1 0x20 ADD SWAP1 PUSH1 0x1 SWAP1 SUB SWAP1 DUP2 PUSH2 0x3B59 JUMPI SWAP1 POP JUMPDEST POP SWAP1 POP PUSH1 0x0 DUP4 PUSH8 0xFFFFFFFFFFFFFFFF DUP2 GT ISZERO PUSH2 0x3B8D JUMPI PUSH2 0x3B8C PUSH2 0x4A8D JUMP JUMPDEST JUMPDEST PUSH1 0x40 MLOAD SWAP1 DUP1 DUP3 MSTORE DUP1 PUSH1 0x20 MUL PUSH1 0x20 ADD DUP3 ADD PUSH1 0x40 MSTORE DUP1 ISZERO PUSH2 0x3BBB JUMPI DUP2 PUSH1 0x20 ADD PUSH1 0x20 DUP3 MUL DUP1 CALLDATASIZE DUP4 CALLDATACOPY DUP1 DUP3 ADD SWAP2 POP POP SWAP1 POP JUMPDEST POP SWAP1 POP PUSH1 0x0 DUP5 PUSH8 0xFFFFFFFFFFFFFFFF DUP2 GT ISZERO PUSH2 0x3BDA JUMPI PUSH2 0x3BD9 PUSH2 0x4A8D JUMP JUMPDEST JUMPDEST PUSH1 0x40 MLOAD SWAP1 DUP1 DUP3 MSTORE DUP1 PUSH1 0x20 MUL PUSH1 0x20 ADD DUP3 ADD PUSH1 0x40 MSTORE DUP1 ISZERO PUSH2 0x3C08 JUMPI DUP2 PUSH1 0x20 ADD PUSH1 0x20 DUP3 MUL DUP1 CALLDATASIZE DUP4 CALLDATACOPY DUP1 DUP3 ADD SWAP2 POP POP SWAP1 POP JUMPDEST POP SWAP1 POP PUSH1 0x0 DUP6 PUSH8 0xFFFFFFFFFFFFFFFF DUP2 GT ISZERO PUSH2 0x3C27 JUMPI PUSH2 0x3C26 PUSH2 0x4A8D JUMP JUMPDEST JUMPDEST PUSH1 0x40 MLOAD SWAP1 DUP1 DUP3 MSTORE DUP1 PUSH1 0x20 MUL PUSH1 0x20 ADD DUP3 ADD PUSH1 0x40 MSTORE DUP1 ISZERO PUSH2 0x3C5A JUMPI DUP2 PUSH1 0x20 ADD JUMPDEST PUSH1 0x60 DUP2 MSTORE PUSH1 0x20 ADD SWAP1 PUSH1 0x1 SWAP1 SUB SWAP1 DUP2 PUSH2 0x3C45 JUMPI SWAP1 POP JUMPDEST POP SWAP1 POP PUSH1 0x0 SWAP7 POP JUMPDEST DUP6 DUP8 LT ISZERO PUSH2 0x40E2 JUMPI PUSH1 0x1 PUSH1 0x0 PUSH1 0x2 DUP14 PUSH1 0x40 MLOAD PUSH2 0x3C7E SWAP2 SWAP1 PUSH2 0x5778 JUMP JUMPDEST SWAP1 DUP2 MSTORE PUSH1 0x20 ADD PUSH1 0x40 MLOAD DUP1 SWAP2 SUB SWAP1 KECCAK256 PUSH1 0x1 ADD DUP10 DUP2 SLOAD DUP2 LT PUSH2 0x3CA1 JUMPI PUSH2 0x3CA0 PUSH2 0x5875 JUMP JUMPDEST JUMPDEST SWAP1 PUSH1 0x0 MSTORE PUSH1 0x20 PUSH1 0x0 KECCAK256 ADD SLOAD DUP2 MSTORE PUSH1 0x20 ADD SWAP1 DUP2 MSTORE PUSH1 0x20 ADD PUSH1 0x0 KECCAK256 PUSH1 0x3 ADD PUSH1 0x40 MLOAD PUSH1 0x20 ADD PUSH2 0x3CCD SWAP2 SWAP1 PUSH2 0x585E JUMP JUMPDEST PUSH1 0x40 MLOAD PUSH1 0x20 DUP2 DUP4 SUB SUB DUP2 MSTORE SWAP1 PUSH1 0x40 MSTORE DUP1 MLOAD SWAP1 PUSH1 0x20 ADD KECCAK256 PUSH1 0x40 MLOAD PUSH1 0x20 ADD PUSH2 0x3CF2 SWAP1 PUSH2 0x5AC3 JUMP JUMPDEST PUSH1 0x40 MLOAD PUSH1 0x20 DUP2 DUP4 SUB SUB DUP2 MSTORE SWAP1 PUSH1 0x40 MSTORE DUP1 MLOAD SWAP1 PUSH1 0x20 ADD KECCAK256 SUB PUSH2 0x40CF JUMPI PUSH1 0x1 PUSH1 0x0 PUSH1 0x2 DUP14 PUSH1 0x40 MLOAD PUSH2 0x3D21 SWAP2 SWAP1 PUSH2 0x5778 JUMP JUMPDEST SWAP1 DUP2 MSTORE PUSH1 0x20 ADD PUSH1 0x40 MLOAD DUP1 SWAP2 SUB SWAP1 KECCAK256 PUSH1 0x1 ADD DUP10 DUP2 SLOAD DUP2 LT PUSH2 0x3D44 JUMPI PUSH2 0x3D43 PUSH2 0x5875 JUMP JUMPDEST JUMPDEST SWAP1 PUSH1 0x0 MSTORE PUSH1 0x20 PUSH1 0x0 KECCAK256 ADD SLOAD DUP2 MSTORE PUSH1 0x20 ADD SWAP1 DUP2 MSTORE PUSH1 0x20 ADD PUSH1 0x0 KECCAK256 PUSH1 0x1 ADD DUP1 SLOAD PUSH2 0x3D6B SWAP1 PUSH2 0x54C9 JUMP JUMPDEST DUP1 PUSH1 0x1F ADD PUSH1 0x20 DUP1 SWAP2 DIV MUL PUSH1 0x20 ADD PUSH1 0x40 MLOAD SWAP1 DUP2 ADD PUSH1 0x40 MSTORE DUP1 SWAP3 SWAP2 SWAP1 DUP2 DUP2 MSTORE PUSH1 0x20 ADD DUP3 DUP1 SLOAD PUSH2 0x3D97 SWAP1 PUSH2 0x54C9 JUMP JUMPDEST DUP1 ISZERO PUSH2 0x3DE4 JUMPI DUP1 PUSH1 0x1F LT PUSH2 0x3DB9 JUMPI PUSH2 0x100 DUP1 DUP4 SLOAD DIV MUL DUP4 MSTORE SWAP2 PUSH1 0x20 ADD SWAP2 PUSH2 0x3DE4 JUMP JUMPDEST DUP3 ADD SWAP2 SWAP1 PUSH1 0x0 MSTORE PUSH1 0x20 PUSH1 0x0 KECCAK256 SWAP1 JUMPDEST DUP2 SLOAD DUP2 MSTORE SWAP1 PUSH1 0x1 ADD SWAP1 PUSH1 0x20 ADD DUP1 DUP4 GT PUSH2 0x3DC7 JUMPI DUP3 SWAP1 SUB PUSH1 0x1F AND DUP3 ADD SWAP2 JUMPDEST POP POP POP POP POP DUP6 DUP9 DUP2 MLOAD DUP2 LT PUSH2 0x3DFC JUMPI PUSH2 0x3DFB PUSH2 0x5875 JUMP JUMPDEST JUMPDEST PUSH1 0x20 MUL PUSH1 0x20 ADD ADD DUP2 SWAP1 MSTORE POP PUSH1 0x1 PUSH1 0x0 PUSH1 0x2 DUP14 PUSH1 0x40 MLOAD PUSH2 0x3E1B SWAP2 SWAP1 PUSH2 0x5778 JUMP JUMPDEST SWAP1 DUP2 MSTORE PUSH1 0x20 ADD PUSH1 0x40 MLOAD DUP1 SWAP2 SUB SWAP1 KECCAK256 PUSH1 0x1 ADD DUP10 DUP2 SLOAD DUP2 LT PUSH2 0x3E3E JUMPI PUSH2 0x3E3D PUSH2 0x5875 JUMP JUMPDEST JUMPDEST SWAP1 PUSH1 0x0 MSTORE PUSH1 0x20 PUSH1 0x0 KECCAK256 ADD SLOAD DUP2 MSTORE PUSH1 0x20 ADD SWAP1 DUP2 MSTORE PUSH1 0x20 ADD PUSH1 0x0 KECCAK256 PUSH1 0x2 ADD DUP1 SLOAD PUSH2 0x3E65 SWAP1 PUSH2 0x54C9 JUMP JUMPDEST DUP1 PUSH1 0x1F ADD PUSH1 0x20 DUP1 SWAP2 DIV MUL PUSH1 0x20 ADD PUSH1 0x40 MLOAD SWAP1 DUP2 ADD PUSH1 0x40 MSTORE DUP1 SWAP3 SWAP2 SWAP1 DUP2 DUP2 MSTORE PUSH1 0x20 ADD DUP3 DUP1 SLOAD PUSH2 0x3E91 SWAP1 PUSH2 0x54C9 JUMP JUMPDEST DUP1 ISZERO PUSH2 0x3EDE JUMPI DUP1 PUSH1 0x1F LT PUSH2 0x3EB3 JUMPI PUSH2 0x100 DUP1 DUP4 SLOAD DIV MUL DUP4 MSTORE SWAP2 PUSH1 0x20 ADD SWAP2 PUSH2 0x3EDE JUMP JUMPDEST DUP3 ADD SWAP2 SWAP1 PUSH1 0x0 MSTORE PUSH1 0x20 PUSH1 0x0 KECCAK256 SWAP1 JUMPDEST DUP2 SLOAD DUP2 MSTORE SWAP1 PUSH1 0x1 ADD SWAP1 PUSH1 0x20 ADD DUP1 DUP4 GT PUSH2 0x3EC1 JUMPI DUP3 SWAP1 SUB PUSH1 0x1F AND DUP3 ADD SWAP2 JUMPDEST POP POP POP POP POP DUP5 DUP9 DUP2 MLOAD DUP2 LT PUSH2 0x3EF6 JUMPI PUSH2 0x3EF5 PUSH2 0x5875 JUMP JUMPDEST JUMPDEST PUSH1 0x20 MUL PUSH1 0x20 ADD ADD DUP2 SWAP1 MSTORE POP PUSH1 0x1 PUSH1 0x0 PUSH1 0x2 DUP14 PUSH1 0x40 MLOAD PUSH2 0x3F15 SWAP2 SWAP1 PUSH2 0x5778 JUMP JUMPDEST SWAP1 DUP2 MSTORE PUSH1 0x20 ADD PUSH1 0x40 MLOAD DUP1 SWAP2 SUB SWAP1 KECCAK256 PUSH1 0x1 ADD DUP10 DUP2 SLOAD DUP2 LT PUSH2 0x3F38 JUMPI PUSH2 0x3F37 PUSH2 0x5875 JUMP JUMPDEST JUMPDEST SWAP1 PUSH1 0x0 MSTORE PUSH1 0x20 PUSH1 0x0 KECCAK256 ADD SLOAD DUP2 MSTORE PUSH1 0x20 ADD SWAP1 DUP2 MSTORE PUSH1 0x20 ADD PUSH1 0x0 KECCAK256 PUSH1 0x3 ADD DUP1 SLOAD PUSH2 0x3F5F SWAP1 PUSH2 0x54C9 JUMP JUMPDEST DUP1 PUSH1 0x1F ADD PUSH1 0x20 DUP1 SWAP2 DIV MUL PUSH1 0x20 ADD PUSH1 0x40 MLOAD SWAP1 DUP2 ADD PUSH1 0x40 MSTORE DUP1 SWAP3 SWAP2 SWAP1 DUP2 DUP2 MSTORE PUSH1 0x20 ADD DUP3 DUP1 SLOAD PUSH2 0x3F8B SWAP1 PUSH2 0x54C9 JUMP JUMPDEST DUP1 ISZERO PUSH2 0x3FD8 JUMPI DUP1 PUSH1 0x1F LT PUSH2 0x3FAD JUMPI PUSH2 0x100 DUP1 DUP4 SLOAD DIV MUL DUP4 MSTORE SWAP2 PUSH1 0x20 ADD SWAP2 PUSH2 0x3FD8 JUMP JUMPDEST DUP3 ADD SWAP2 SWAP1 PUSH1 0x0 MSTORE PUSH1 0x20 PUSH1 0x0 KECCAK256 SWAP1 JUMPDEST DUP2 SLOAD DUP2 MSTORE SWAP1 PUSH1 0x1 ADD SWAP1 PUSH1 0x20 ADD DUP1 DUP4 GT PUSH2 0x3FBB JUMPI DUP3 SWAP1 SUB PUSH1 0x1F AND DUP3 ADD SWAP2 JUMPDEST POP POP POP POP POP DUP2 DUP9 DUP2 MLOAD DUP2 LT PUSH2 0x3FF0 JUMPI PUSH2 0x3FEF PUSH2 0x5875 JUMP JUMPDEST JUMPDEST PUSH1 0x20 MUL PUSH1 0x20 ADD ADD DUP2 SWAP1 MSTORE POP PUSH1 0x1 PUSH1 0x0 PUSH1 0x2 DUP14 PUSH1 0x40 MLOAD PUSH2 0x400F SWAP2 SWAP1 PUSH2 0x5778 JUMP JUMPDEST SWAP1 DUP2 MSTORE PUSH1 0x20 ADD PUSH1 0x40 MLOAD DUP1 SWAP2 SUB SWAP1 KECCAK256 PUSH1 0x1 ADD DUP10 DUP2 SLOAD DUP2 LT PUSH2 0x4032 JUMPI PUSH2 0x4031 PUSH2 0x5875 JUMP JUMPDEST JUMPDEST SWAP1 PUSH1 0x0 MSTORE PUSH1 0x20 PUSH1 0x0 KECCAK256 ADD SLOAD DUP2 MSTORE PUSH1 0x20 ADD SWAP1 DUP2 MSTORE PUSH1 0x20 ADD PUSH1 0x0 KECCAK256 PUSH1 0x8 ADD PUSH1 0x0 ADD SLOAD DUP3 DUP9 DUP2 MLOAD DUP2 LT PUSH2 0x4065 JUMPI PUSH2 0x4064 PUSH2 0x5875 JUMP JUMPDEST JUMPDEST PUSH1 0x20 MUL PUSH1 0x20 ADD ADD DUP2 DUP2 MSTORE POP POP PUSH1 0x2 DUP12 PUSH1 0x40 MLOAD PUSH2 0x4081 SWAP2 SWAP1 PUSH2 0x5778 JUMP JUMPDEST SWAP1 DUP2 MSTORE PUSH1 0x20 ADD PUSH1 0x40 MLOAD DUP1 SWAP2 SUB SWAP1 KECCAK256 PUSH1 0x1 ADD DUP8 DUP2 SLOAD DUP2 LT PUSH2 0x40A4 JUMPI PUSH2 0x40A3 PUSH2 0x5875 JUMP JUMPDEST JUMPDEST SWAP1 PUSH1 0x0 MSTORE PUSH1 0x20 PUSH1 0x0 KECCAK256 ADD SLOAD DUP4 DUP9 DUP2 MLOAD DUP2 LT PUSH2 0x40C2 JUMPI PUSH2 0x40C1 PUSH2 0x5875 JUMP JUMPDEST JUMPDEST PUSH1 0x20 MUL PUSH1 0x20 ADD ADD DUP2 DUP2 MSTORE POP POP JUMPDEST DUP7 DUP1 PUSH2 0x40DA SWAP1 PUSH2 0x58D3 JUMP JUMPDEST SWAP8 POP POP PUSH2 0x3C62 JUMP JUMPDEST PUSH1 0x40 MLOAD DUP1 PUSH1 0x60 ADD PUSH1 0x40 MSTORE DUP1 DUP7 DUP2 MSTORE PUSH1 0x20 ADD DUP6 DUP2 MSTORE PUSH1 0x20 ADD DUP3 DUP2 MSTORE POP DUP4 DUP4 SWAP10 POP SWAP10 POP SWAP10 POP POP POP POP POP POP POP POP SWAP2 SWAP4 SWAP1 SWAP3 POP JUMP JUMPDEST PUSH1 0x60 PUSH1 0x3 DUP3 PUSH1 0x40 MLOAD PUSH2 0x4125 SWAP2 SWAP1 PUSH2 0x5778 JUMP JUMPDEST SWAP1 DUP2 MSTORE PUSH1 0x20 ADD PUSH1 0x40 MLOAD DUP1 SWAP2 SUB SWAP1 KECCAK256 PUSH1 0x4 ADD DUP1 SLOAD DUP1 PUSH1 0x20 MUL PUSH1 0x20 ADD PUSH1 0x40 MLOAD SWAP1 DUP2 ADD PUSH1 0x40 MSTORE DUP1 SWAP3 SWAP2 SWAP1 DUP2 DUP2 MSTORE PUSH1 0x20 ADD DUP3 DUP1 SLOAD DUP1 ISZERO PUSH2 0x4180 JUMPI PUSH1 0x20 MUL DUP3 ADD SWAP2 SWAP1 PUSH1 0x0 MSTORE PUSH1 0x20 PUSH1 0x0 KECCAK256 SWAP1 JUMPDEST DUP2 SLOAD DUP2 MSTORE PUSH1 0x20 ADD SWAP1 PUSH1 0x1 ADD SWAP1 DUP1 DUP4 GT PUSH2 0x416C JUMPI JUMPDEST POP POP POP POP POP SWAP1 POP SWAP2 SWAP1 POP JUMP JUMPDEST PUSH1 0x60 DUP1 PUSH1 0x3 DUP4 PUSH1 0x40 MLOAD PUSH2 0x419F SWAP2 SWAP1 PUSH2 0x5778 JUMP JUMPDEST SWAP1 DUP2 MSTORE PUSH1 0x20 ADD PUSH1 0x40 MLOAD DUP1 SWAP2 SUB SWAP1 KECCAK256 PUSH1 0x6 ADD PUSH1 0x4 PUSH1 0x3 DUP6 PUSH1 0x40 MLOAD PUSH2 0x41C2 SWAP2 SWAP1 PUSH2 0x5778 JUMP JUMPDEST SWAP1 DUP2 MSTORE PUSH1 0x20 ADD PUSH1 0x40 MLOAD DUP1 SWAP2 SUB SWAP1 KECCAK256 PUSH1 0x6 ADD PUSH1 0x40 MLOAD PUSH2 0x41E0 SWAP2 SWAP1 PUSH2 0x585E JUMP JUMPDEST SWAP1 DUP2 MSTORE PUSH1 0x20 ADD PUSH1 0x40 MLOAD DUP1 SWAP2 SUB SWAP1 KECCAK256 PUSH1 0x2 ADD DUP2 DUP1 SLOAD PUSH2 0x41FD SWAP1 PUSH2 0x54C9 JUMP JUMPDEST DUP1 PUSH1 0x1F ADD PUSH1 0x20 DUP1 SWAP2 DIV MUL PUSH1 0x20 ADD PUSH1 0x40 MLOAD SWAP1 DUP2 ADD PUSH1 0x40 MSTORE DUP1 SWAP3 SWAP2 SWAP1 DUP2 DUP2 MSTORE PUSH1 0x20 ADD DUP3 DUP1 SLOAD PUSH2 0x4229 SWAP1 PUSH2 0x54C9 JUMP JUMPDEST DUP1 ISZERO PUSH2 0x4276 JUMPI DUP1 PUSH1 0x1F LT PUSH2 0x424B JUMPI PUSH2 0x100 DUP1 DUP4 SLOAD DIV MUL DUP4 MSTORE SWAP2 PUSH1 0x20 ADD SWAP2 PUSH2 0x4276 JUMP JUMPDEST DUP3 ADD SWAP2 SWAP1 PUSH1 0x0 MSTORE PUSH1 0x20 PUSH1 0x0 KECCAK256 SWAP1 JUMPDEST DUP2 SLOAD DUP2 MSTORE SWAP1 PUSH1 0x1 ADD SWAP1 PUSH1 0x20 ADD DUP1 DUP4 GT PUSH2 0x4259 JUMPI DUP3 SWAP1 SUB PUSH1 0x1F AND DUP3 ADD SWAP2 JUMPDEST POP POP POP POP POP SWAP2 POP DUP1 DUP1 SLOAD DUP1 PUSH1 0x20 MUL PUSH1 0x20 ADD PUSH1 0x40 MLOAD SWAP1 DUP2 ADD PUSH1 0x40 MSTORE DUP1 SWAP3 SWAP2 SWAP1 DUP2 DUP2 MSTORE PUSH1 0x20 ADD DUP3 DUP1 SLOAD DUP1 ISZERO PUSH2 0x42C8 JUMPI PUSH1 0x20 MUL DUP3 ADD SWAP2 SWAP1 PUSH1 0x0 MSTORE PUSH1 0x20 PUSH1 0x0 KECCAK256 SWAP1 JUMPDEST DUP2 SLOAD DUP2 MSTORE PUSH1 0x20 ADD SWAP1 PUSH1 0x1 ADD SWAP1 DUP1 DUP4 GT PUSH2 0x42B4 JUMPI JUMPDEST POP POP POP POP POP SWAP1 POP SWAP2 POP SWAP2 POP SWAP2 POP SWAP2 JUMP JUMPDEST PUSH2 0x42E0 PUSH2 0x4A01 JUMP JUMPDEST PUSH1 0x60 DUP1 PUSH1 0x60 PUSH1 0x0 DUP1 PUSH1 0x3 DUP8 PUSH1 0x40 MLOAD PUSH2 0x42F8 SWAP2 SWAP1 PUSH2 0x5778 JUMP JUMPDEST SWAP1 DUP2 MSTORE PUSH1 0x20 ADD PUSH1 0x40 MLOAD DUP1 SWAP2 SUB SWAP1 KECCAK256 PUSH1 0x7 ADD DUP1 SLOAD SWAP1 POP SWAP1 POP PUSH1 0x0 DUP2 PUSH8 0xFFFFFFFFFFFFFFFF DUP2 GT ISZERO PUSH2 0x432B JUMPI PUSH2 0x432A PUSH2 0x4A8D JUMP JUMPDEST JUMPDEST PUSH1 0x40 MLOAD SWAP1 DUP1 DUP3 MSTORE DUP1 PUSH1 0x20 MUL PUSH1 0x20 ADD DUP3 ADD PUSH1 0x40 MSTORE DUP1 ISZERO PUSH2 0x435E JUMPI DUP2 PUSH1 0x20 ADD JUMPDEST PUSH1 0x60 DUP2 MSTORE PUSH1 0x20 ADD SWAP1 PUSH1 0x1 SWAP1 SUB SWAP1 DUP2 PUSH2 0x4349 JUMPI SWAP1 POP JUMPDEST POP SWAP1 POP PUSH1 0x0 DUP3 PUSH8 0xFFFFFFFFFFFFFFFF DUP2 GT ISZERO PUSH2 0x437D JUMPI PUSH2 0x437C PUSH2 0x4A8D JUMP JUMPDEST JUMPDEST PUSH1 0x40 MLOAD SWAP1 DUP1 DUP3 MSTORE DUP1 PUSH1 0x20 MUL PUSH1 0x20 ADD DUP3 ADD PUSH1 0x40 MSTORE DUP1 ISZERO PUSH2 0x43B0 JUMPI DUP2 PUSH1 0x20 ADD JUMPDEST PUSH1 0x60 DUP2 MSTORE PUSH1 0x20 ADD SWAP1 PUSH1 0x1 SWAP1 SUB SWAP1 DUP2 PUSH2 0x439B JUMPI SWAP1 POP JUMPDEST POP SWAP1 POP PUSH1 0x0 DUP4 PUSH8 0xFFFFFFFFFFFFFFFF DUP2 GT ISZERO PUSH2 0x43CF JUMPI PUSH2 0x43CE PUSH2 0x4A8D JUMP JUMPDEST JUMPDEST PUSH1 0x40 MLOAD SWAP1 DUP1 DUP3 MSTORE DUP1 PUSH1 0x20 MUL PUSH1 0x20 ADD DUP3 ADD PUSH1 0x40 MSTORE DUP1 ISZERO PUSH2 0x43FD JUMPI DUP2 PUSH1 0x20 ADD PUSH1 0x20 DUP3 MUL DUP1 CALLDATASIZE DUP4 CALLDATACOPY DUP1 DUP3 ADD SWAP2 POP POP SWAP1 POP JUMPDEST POP SWAP1 POP PUSH1 0x0 DUP5 PUSH8 0xFFFFFFFFFFFFFFFF DUP2 GT ISZERO PUSH2 0x441C JUMPI PUSH2 0x441B PUSH2 0x4A8D JUMP JUMPDEST JUMPDEST PUSH1 0x40 MLOAD SWAP1 DUP1 DUP3 MSTORE DUP1 PUSH1 0x20 MUL PUSH1 0x20 ADD DUP3 ADD PUSH1 0x40 MSTORE DUP1 ISZERO PUSH2 0x444F JUMPI DUP2 PUSH1 0x20 ADD JUMPDEST PUSH1 0x60 DUP2 MSTORE PUSH1 0x20 ADD SWAP1 PUSH1 0x1 SWAP1 SUB SWAP1 DUP2 PUSH2 0x443A JUMPI SWAP1 POP JUMPDEST POP SWAP1 POP PUSH1 0x0 DUP6 PUSH8 0xFFFFFFFFFFFFFFFF DUP2 GT ISZERO PUSH2 0x446E JUMPI PUSH2 0x446D PUSH2 0x4A8D JUMP JUMPDEST JUMPDEST PUSH1 0x40 MLOAD SWAP1 DUP1 DUP3 MSTORE DUP1 PUSH1 0x20 MUL PUSH1 0x20 ADD DUP3 ADD PUSH1 0x40 MSTORE DUP1 ISZERO PUSH2 0x449C JUMPI DUP2 PUSH1 0x20 ADD PUSH1 0x20 DUP3 MUL DUP1 CALLDATASIZE DUP4 CALLDATACOPY DUP1 DUP3 ADD SWAP2 POP POP SWAP1 POP JUMPDEST POP SWAP1 POP PUSH1 0x0 DUP7 PUSH8 0xFFFFFFFFFFFFFFFF DUP2 GT ISZERO PUSH2 0x44BB JUMPI PUSH2 0x44BA PUSH2 0x4A8D JUMP JUMPDEST JUMPDEST PUSH1 0x40 MLOAD SWAP1 DUP1 DUP3 MSTORE DUP1 PUSH1 0x20 MUL PUSH1 0x20 ADD DUP3 ADD PUSH1 0x40 MSTORE DUP1 ISZERO PUSH2 0x44EE JUMPI DUP2 PUSH1 0x20 ADD JUMPDEST PUSH1 0x60 DUP2 MSTORE PUSH1 0x20 ADD SWAP1 PUSH1 0x1 SWAP1 SUB SWAP1 DUP2 PUSH2 0x44D9 JUMPI SWAP1 POP JUMPDEST POP SWAP1 POP PUSH1 0x0 SWAP8 POP JUMPDEST DUP7 DUP9 LT ISZERO PUSH2 0x49CC JUMPI PUSH1 0x1 PUSH1 0x0 PUSH1 0x3 DUP16 PUSH1 0x40 MLOAD PUSH2 0x4512 SWAP2 SWAP1 PUSH2 0x5778 JUMP JUMPDEST SWAP1 DUP2 MSTORE PUSH1 0x20 ADD PUSH1 0x40 MLOAD DUP1 SWAP2 SUB SWAP1 KECCAK256 PUSH1 0x7 ADD DUP11 DUP2 SLOAD DUP2 LT PUSH2 0x4535 JUMPI PUSH2 0x4534 PUSH2 0x5875 JUMP JUMPDEST JUMPDEST SWAP1 PUSH1 0x0 MSTORE PUSH1 0x20 PUSH1 0x0 KECCAK256 ADD SLOAD DUP2 MSTORE PUSH1 0x20 ADD SWAP1 DUP2 MSTORE PUSH1 0x20 ADD PUSH1 0x0 KECCAK256 PUSH1 0x1 ADD DUP1 SLOAD PUSH2 0x455C SWAP1 PUSH2 0x54C9 JUMP JUMPDEST DUP1 PUSH1 0x1F ADD PUSH1 0x20 DUP1 SWAP2 DIV MUL PUSH1 0x20 ADD PUSH1 0x40 MLOAD SWAP1 DUP2 ADD PUSH1 0x40 MSTORE DUP1 SWAP3 SWAP2 SWAP1 DUP2 DUP2 MSTORE PUSH1 0x20 ADD DUP3 DUP1 SLOAD PUSH2 0x4588 SWAP1 PUSH2 0x54C9 JUMP JUMPDEST DUP1 ISZERO PUSH2 0x45D5 JUMPI DUP1 PUSH1 0x1F LT PUSH2 0x45AA JUMPI PUSH2 0x100 DUP1 DUP4 SLOAD DIV MUL DUP4 MSTORE SWAP2 PUSH1 0x20 ADD SWAP2 PUSH2 0x45D5 JUMP JUMPDEST DUP3 ADD SWAP2 SWAP1 PUSH1 0x0 MSTORE PUSH1 0x20 PUSH1 0x0 KECCAK256 SWAP1 JUMPDEST DUP2 SLOAD DUP2 MSTORE SWAP1 PUSH1 0x1 ADD SWAP1 PUSH1 0x20 ADD DUP1 DUP4 GT PUSH2 0x45B8 JUMPI DUP3 SWAP1 SUB PUSH1 0x1F AND DUP3 ADD SWAP2 JUMPDEST POP POP POP POP POP DUP7 DUP10 DUP2 MLOAD DUP2 LT PUSH2 0x45ED JUMPI PUSH2 0x45EC PUSH2 0x5875 JUMP JUMPDEST JUMPDEST PUSH1 0x20 MUL PUSH1 0x20 ADD ADD DUP2 SWAP1 MSTORE POP PUSH1 0x1 PUSH1 0x0 PUSH1 0x3 DUP16 PUSH1 0x40 MLOAD PUSH2 0x460C SWAP2 SWAP1 PUSH2 0x5778 JUMP JUMPDEST SWAP1 DUP2 MSTORE PUSH1 0x20 ADD PUSH1 0x40 MLOAD DUP1 SWAP2 SUB SWAP1 KECCAK256 PUSH1 0x7 ADD DUP11 DUP2 SLOAD DUP2 LT PUSH2 0x462F JUMPI PUSH2 0x462E PUSH2 0x5875 JUMP JUMPDEST JUMPDEST SWAP1 PUSH1 0x0 MSTORE PUSH1 0x20 PUSH1 0x0 KECCAK256 ADD SLOAD DUP2 MSTORE PUSH1 0x20 ADD SWAP1 DUP2 MSTORE PUSH1 0x20 ADD PUSH1 0x0 KECCAK256 PUSH1 0x2 ADD DUP1 SLOAD PUSH2 0x4656 SWAP1 PUSH2 0x54C9 JUMP JUMPDEST DUP1 PUSH1 0x1F ADD PUSH1 0x20 DUP1 SWAP2 DIV MUL PUSH1 0x20 ADD PUSH1 0x40 MLOAD SWAP1 DUP2 ADD PUSH1 0x40 MSTORE DUP1 SWAP3 SWAP2 SWAP1 DUP2 DUP2 MSTORE PUSH1 0x20 ADD DUP3 DUP1 SLOAD PUSH2 0x4682 SWAP1 PUSH2 0x54C9 JUMP JUMPDEST DUP1 ISZERO PUSH2 0x46CF JUMPI DUP1 PUSH1 0x1F LT PUSH2 0x46A4 JUMPI PUSH2 0x100 DUP1 DUP4 SLOAD DIV MUL DUP4 MSTORE SWAP2 PUSH1 0x20 ADD SWAP2 PUSH2 0x46CF JUMP JUMPDEST DUP3 ADD SWAP2 SWAP1 PUSH1 0x0 MSTORE PUSH1 0x20 PUSH1 0x0 KECCAK256 SWAP1 JUMPDEST DUP2 SLOAD DUP2 MSTORE SWAP1 PUSH1 0x1 ADD SWAP1 PUSH1 0x20 ADD DUP1 DUP4 GT PUSH2 0x46B2 JUMPI DUP3 SWAP1 SUB PUSH1 0x1F AND DUP3 ADD SWAP2 JUMPDEST POP POP POP POP POP DUP6 DUP10 DUP2 MLOAD DUP2 LT PUSH2 0x46E7 JUMPI PUSH2 0x46E6 PUSH2 0x5875 JUMP JUMPDEST JUMPDEST PUSH1 0x20 MUL PUSH1 0x20 ADD ADD DUP2 SWAP1 MSTORE POP PUSH1 0x1 PUSH1 0x0 PUSH1 0x3 DUP16 PUSH1 0x40 MLOAD PUSH2 0x4706 SWAP2 SWAP1 PUSH2 0x5778 JUMP JUMPDEST SWAP1 DUP2 MSTORE PUSH1 0x20 ADD PUSH1 0x40 MLOAD DUP1 SWAP2 SUB SWAP1 KECCAK256 PUSH1 0x7 ADD DUP11 DUP2 SLOAD DUP2 LT PUSH2 0x4729 JUMPI PUSH2 0x4728 PUSH2 0x5875 JUMP JUMPDEST JUMPDEST SWAP1 PUSH1 0x0 MSTORE PUSH1 0x20 PUSH1 0x0 KECCAK256 ADD SLOAD DUP2 MSTORE PUSH1 0x20 ADD SWAP1 DUP2 MSTORE PUSH1 0x20 ADD PUSH1 0x0 KECCAK256 PUSH1 0x3 ADD DUP1 SLOAD PUSH2 0x4750 SWAP1 PUSH2 0x54C9 JUMP JUMPDEST DUP1 PUSH1 0x1F ADD PUSH1 0x20 DUP1 SWAP2 DIV MUL PUSH1 0x20 ADD PUSH1 0x40 MLOAD SWAP1 DUP2 ADD PUSH1 0x40 MSTORE DUP1 SWAP3 SWAP2 SWAP1 DUP2 DUP2 MSTORE PUSH1 0x20 ADD DUP3 DUP1 SLOAD PUSH2 0x477C SWAP1 PUSH2 0x54C9 JUMP JUMPDEST DUP1 ISZERO PUSH2 0x47C9 JUMPI DUP1 PUSH1 0x1F LT PUSH2 0x479E JUMPI PUSH2 0x100 DUP1 DUP4 SLOAD DIV MUL DUP4 MSTORE SWAP2 PUSH1 0x20 ADD SWAP2 PUSH2 0x47C9 JUMP JUMPDEST DUP3 ADD SWAP2 SWAP1 PUSH1 0x0 MSTORE PUSH1 0x20 PUSH1 0x0 KECCAK256 SWAP1 JUMPDEST DUP2 SLOAD DUP2 MSTORE SWAP1 PUSH1 0x1 ADD SWAP1 PUSH1 0x20 ADD DUP1 DUP4 GT PUSH2 0x47AC JUMPI DUP3 SWAP1 SUB PUSH1 0x1F AND DUP3 ADD SWAP2 JUMPDEST POP POP POP POP POP DUP2 DUP10 DUP2 MLOAD DUP2 LT PUSH2 0x47E1 JUMPI PUSH2 0x47E0 PUSH2 0x5875 JUMP JUMPDEST JUMPDEST PUSH1 0x20 MUL PUSH1 0x20 ADD ADD DUP2 SWAP1 MSTORE POP PUSH1 0x1 PUSH1 0x0 PUSH1 0x3 DUP16 PUSH1 0x40 MLOAD PUSH2 0x4800 SWAP2 SWAP1 PUSH2 0x5778 JUMP JUMPDEST SWAP1 DUP2 MSTORE PUSH1 0x20 ADD PUSH1 0x40 MLOAD DUP1 SWAP2 SUB SWAP1 KECCAK256 PUSH1 0x7 ADD DUP11 DUP2 SLOAD DUP2 LT PUSH2 0x4823 JUMPI PUSH2 0x4822 PUSH2 0x5875 JUMP JUMPDEST JUMPDEST SWAP1 PUSH1 0x0 MSTORE PUSH1 0x20 PUSH1 0x0 KECCAK256 ADD SLOAD DUP2 MSTORE PUSH1 0x20 ADD SWAP1 DUP2 MSTORE PUSH1 0x20 ADD PUSH1 0x0 KECCAK256 PUSH1 0x8 ADD PUSH1 0x0 ADD SLOAD DUP5 DUP10 DUP2 MLOAD DUP2 LT PUSH2 0x4856 JUMPI PUSH2 0x4855 PUSH2 0x5875 JUMP JUMPDEST JUMPDEST PUSH1 0x20 MUL PUSH1 0x20 ADD ADD DUP2 DUP2 MSTORE POP POP PUSH1 0x1 PUSH1 0x0 PUSH1 0x3 DUP16 PUSH1 0x40 MLOAD PUSH2 0x4876 SWAP2 SWAP1 PUSH2 0x5778 JUMP JUMPDEST SWAP1 DUP2 MSTORE PUSH1 0x20 ADD PUSH1 0x40 MLOAD DUP1 SWAP2 SUB SWAP1 KECCAK256 PUSH1 0x7 ADD DUP11 DUP2 SLOAD DUP2 LT PUSH2 0x4899 JUMPI PUSH2 0x4898 PUSH2 0x5875 JUMP JUMPDEST JUMPDEST SWAP1 PUSH1 0x0 MSTORE PUSH1 0x20 PUSH1 0x0 KECCAK256 ADD SLOAD DUP2 MSTORE PUSH1 0x20 ADD SWAP1 DUP2 MSTORE PUSH1 0x20 ADD PUSH1 0x0 KECCAK256 PUSH1 0x7 ADD DUP1 SLOAD PUSH2 0x48C0 SWAP1 PUSH2 0x54C9 JUMP JUMPDEST DUP1 PUSH1 0x1F ADD PUSH1 0x20 DUP1 SWAP2 DIV MUL PUSH1 0x20 ADD PUSH1 0x40 MLOAD SWAP1 DUP2 ADD PUSH1 0x40 MSTORE DUP1 SWAP3 SWAP2 SWAP1 DUP2 DUP2 MSTORE PUSH1 0x20 ADD DUP3 DUP1 SLOAD PUSH2 0x48EC SWAP1 PUSH2 0x54C9 JUMP JUMPDEST DUP1 ISZERO PUSH2 0x4939 JUMPI DUP1 PUSH1 0x1F LT PUSH2 0x490E JUMPI PUSH2 0x100 DUP1 DUP4 SLOAD DIV MUL DUP4 MSTORE SWAP2 PUSH1 0x20 ADD SWAP2 PUSH2 0x4939 JUMP JUMPDEST DUP3 ADD SWAP2 SWAP1 PUSH1 0x0 MSTORE PUSH1 0x20 PUSH1 0x0 KECCAK256 SWAP1 JUMPDEST DUP2 SLOAD DUP2 MSTORE SWAP1 PUSH1 0x1 ADD SWAP1 PUSH1 0x20 ADD DUP1 DUP4 GT PUSH2 0x491C JUMPI DUP3 SWAP1 SUB PUSH1 0x1F AND DUP3 ADD SWAP2 JUMPDEST POP POP POP POP POP DUP4 DUP10 DUP2 MLOAD DUP2 LT PUSH2 0x4951 JUMPI PUSH2 0x4950 PUSH2 0x5875 JUMP JUMPDEST JUMPDEST PUSH1 0x20 MUL PUSH1 0x20 ADD ADD DUP2 SWAP1 MSTORE POP PUSH1 0x3 DUP14 PUSH1 0x40 MLOAD PUSH2 0x496C SWAP2 SWAP1 PUSH2 0x5778 JUMP JUMPDEST SWAP1 DUP2 MSTORE PUSH1 0x20 ADD PUSH1 0x40 MLOAD DUP1 SWAP2 SUB SWAP1 KECCAK256 PUSH1 0x7 ADD DUP9 DUP2 SLOAD DUP2 LT PUSH2 0x498F JUMPI PUSH2 0x498E PUSH2 0x5875 JUMP JUMPDEST JUMPDEST SWAP1 PUSH1 0x0 MSTORE PUSH1 0x20 PUSH1 0x0 KECCAK256 ADD SLOAD DUP3 DUP10 DUP2 MLOAD DUP2 LT PUSH2 0x49AD JUMPI PUSH2 0x49AC PUSH2 0x5875 JUMP JUMPDEST JUMPDEST PUSH1 0x20 MUL PUSH1 0x20 ADD ADD DUP2 DUP2 MSTORE POP POP DUP8 DUP1 PUSH2 0x49C4 SWAP1 PUSH2 0x58D3 JUMP JUMPDEST SWAP9 POP POP PUSH2 0x44F6 JUMP JUMPDEST PUSH1 0x40 MLOAD DUP1 PUSH1 0x60 ADD PUSH1 0x40 MSTORE DUP1 DUP8 DUP2 MSTORE PUSH1 0x20 ADD DUP7 DUP2 MSTORE PUSH1 0x20 ADD DUP3 DUP2 MSTORE POP DUP3 DUP6 DUP6 SWAP12 POP SWAP12 POP SWAP12 POP SWAP12 POP POP POP POP POP POP POP POP POP SWAP2 SWAP4 POP SWAP2 SWAP4 JUMP JUMPDEST PUSH1 0x40 MLOAD DUP1 PUSH1 0x60 ADD PUSH1 0x40 MSTORE DUP1 PUSH1 0x3 SWAP1 JUMPDEST PUSH1 0x60 DUP2 MSTORE PUSH1 0x20 ADD SWAP1 PUSH1 0x1 SWAP1 SUB SWAP1 DUP2 PUSH2 0x4A10 JUMPI SWAP1 POP POP SWAP1 JUMP JUMPDEST PUSH1 0x0 PUSH1 0x40 MLOAD SWAP1 POP SWAP1 JUMP JUMPDEST PUSH1 0x0 DUP1 REVERT JUMPDEST PUSH1 0x0 DUP1 REVERT JUMPDEST PUSH1 0x0 DUP2 SWAP1 POP SWAP2 SWAP1 POP JUMP JUMPDEST PUSH2 0x4A4F DUP2 PUSH2 0x4A3C JUMP JUMPDEST DUP2 EQ PUSH2 0x4A5A JUMPI PUSH1 0x0 DUP1 REVERT JUMPDEST POP JUMP JUMPDEST PUSH1 0x0 DUP2 CALLDATALOAD SWAP1 POP PUSH2 0x4A6C DUP2 PUSH2 0x4A46 JUMP JUMPDEST SWAP3 SWAP2 POP POP JUMP JUMPDEST PUSH1 0x0 DUP1 REVERT JUMPDEST PUSH1 0x0 DUP1 REVERT JUMPDEST PUSH1 0x0 PUSH1 0x1F NOT PUSH1 0x1F DUP4 ADD AND SWAP1 POP SWAP2 SWAP1 POP JUMP JUMPDEST PUSH32 0x4E487B7100000000000000000000000000000000000000000000000000000000 PUSH1 0x0 MSTORE PUSH1 0x41 PUSH1 0x4 MSTORE PUSH1 0x24 PUSH1 0x0 REVERT JUMPDEST PUSH2 0x4AC5 DUP3 PUSH2 0x4A7C JUMP JUMPDEST DUP2 ADD DUP2 DUP2 LT PUSH8 0xFFFFFFFFFFFFFFFF DUP3 GT OR ISZERO PUSH2 0x4AE4 JUMPI PUSH2 0x4AE3 PUSH2 0x4A8D JUMP JUMPDEST JUMPDEST DUP1 PUSH1 0x40 MSTORE POP POP POP JUMP JUMPDEST PUSH1 0x0 PUSH2 0x4AF7 PUSH2 0x4A28 JUMP JUMPDEST SWAP1 POP PUSH2 0x4B03 DUP3 DUP3 PUSH2 0x4ABC JUMP JUMPDEST SWAP2 SWAP1 POP JUMP JUMPDEST PUSH1 0x0 PUSH8 0xFFFFFFFFFFFFFFFF DUP3 GT ISZERO PUSH2 0x4B23 JUMPI PUSH2 0x4B22 PUSH2 0x4A8D JUMP JUMPDEST JUMPDEST PUSH2 0x4B2C DUP3 PUSH2 0x4A7C JUMP JUMPDEST SWAP1 POP PUSH1 0x20 DUP2 ADD SWAP1 POP SWAP2 SWAP1 POP JUMP JUMPDEST DUP3 DUP2 DUP4 CALLDATACOPY PUSH1 0x0 DUP4 DUP4 ADD MSTORE POP POP POP JUMP JUMPDEST PUSH1 0x0 PUSH2 0x4B5B PUSH2 0x4B56 DUP5 PUSH2 0x4B08 JUMP JUMPDEST PUSH2 0x4AED JUMP JUMPDEST SWAP1 POP DUP3 DUP2 MSTORE PUSH1 0x20 DUP2 ADD DUP5 DUP5 DUP5 ADD GT ISZERO PUSH2 0x4B77 JUMPI PUSH2 0x4B76 PUSH2 0x4A77 JUMP JUMPDEST JUMPDEST PUSH2 0x4B82 DUP5 DUP3 DUP6 PUSH2 0x4B39 JUMP JUMPDEST POP SWAP4 SWAP3 POP POP POP JUMP JUMPDEST PUSH1 0x0 DUP3 PUSH1 0x1F DUP4 ADD SLT PUSH2 0x4B9F JUMPI PUSH2 0x4B9E PUSH2 0x4A72 JUMP JUMPDEST JUMPDEST DUP2 CALLDATALOAD PUSH2 0x4BAF DUP5 DUP3 PUSH1 0x20 DUP7 ADD PUSH2 0x4B48 JUMP JUMPDEST SWAP2 POP POP SWAP3 SWAP2 POP POP JUMP JUMPDEST PUSH1 0x0 DUP1 PUSH1 0x40 DUP4 DUP6 SUB SLT ISZERO PUSH2 0x4BCF JUMPI PUSH2 0x4BCE PUSH2 0x4A32 JUMP JUMPDEST JUMPDEST PUSH1 0x0 PUSH2 0x4BDD DUP6 DUP3 DUP7 ADD PUSH2 0x4A5D JUMP JUMPDEST SWAP3 POP POP PUSH1 0x20 DUP4 ADD CALLDATALOAD PUSH8 0xFFFFFFFFFFFFFFFF DUP2 GT ISZERO PUSH2 0x4BFE JUMPI PUSH2 0x4BFD PUSH2 0x4A37 JUMP JUMPDEST JUMPDEST PUSH2 0x4C0A DUP6 DUP3 DUP7 ADD PUSH2 0x4B8A JUMP JUMPDEST SWAP2 POP POP SWAP3 POP SWAP3 SWAP1 POP JUMP JUMPDEST PUSH1 0x0 PUSH1 0x20 DUP3 DUP5 SUB SLT ISZERO PUSH2 0x4C2A JUMPI PUSH2 0x4C29 PUSH2 0x4A32 JUMP JUMPDEST JUMPDEST PUSH1 0x0 DUP3 ADD CALLDATALOAD PUSH8 0xFFFFFFFFFFFFFFFF DUP2 GT ISZERO PUSH2 0x4C48 JUMPI PUSH2 0x4C47 PUSH2 0x4A37 JUMP JUMPDEST JUMPDEST PUSH2 0x4C54 DUP5 DUP3 DUP6 ADD PUSH2 0x4B8A JUMP JUMPDEST SWAP2 POP POP SWAP3 SWAP2 POP POP JUMP JUMPDEST PUSH1 0x0 DUP2 MLOAD SWAP1 POP SWAP2 SWAP1 POP JUMP JUMPDEST PUSH1 0x0 DUP3 DUP3 MSTORE PUSH1 0x20 DUP3 ADD SWAP1 POP SWAP3 SWAP2 POP POP JUMP JUMPDEST PUSH1 0x0 DUP2 SWAP1 POP PUSH1 0x20 DUP3 ADD SWAP1 POP SWAP2 SWAP1 POP JUMP JUMPDEST PUSH2 0x4C92 DUP2 PUSH2 0x4A3C JUMP JUMPDEST DUP3 MSTORE POP POP JUMP JUMPDEST PUSH1 0x0 PUSH2 0x4CA4 DUP4 DUP4 PUSH2 0x4C89 JUMP JUMPDEST PUSH1 0x20 DUP4 ADD SWAP1 POP SWAP3 SWAP2 POP POP JUMP JUMPDEST PUSH1 0x0 PUSH1 0x20 DUP3 ADD SWAP1 POP SWAP2 SWAP1 POP JUMP JUMPDEST PUSH1 0x0 PUSH2 0x4CC8 DUP3 PUSH2 0x4C5D JUMP JUMPDEST PUSH2 0x4CD2 DUP2 DUP6 PUSH2 0x4C68 JUMP JUMPDEST SWAP4 POP PUSH2 0x4CDD DUP4 PUSH2 0x4C79 JUMP JUMPDEST DUP1 PUSH1 0x0 JUMPDEST DUP4 DUP2 LT ISZERO PUSH2 0x4D0E JUMPI DUP2 MLOAD PUSH2 0x4CF5 DUP9 DUP3 PUSH2 0x4C98 JUMP JUMPDEST SWAP8 POP PUSH2 0x4D00 DUP4 PUSH2 0x4CB0 JUMP JUMPDEST SWAP3 POP POP PUSH1 0x1 DUP2 ADD SWAP1 POP PUSH2 0x4CE1 JUMP JUMPDEST POP DUP6 SWAP4 POP POP POP POP SWAP3 SWAP2 POP POP JUMP JUMPDEST PUSH1 0x0 PUSH1 0x20 DUP3 ADD SWAP1 POP DUP2 DUP2 SUB PUSH1 0x0 DUP4 ADD MSTORE PUSH2 0x4D35 DUP2 DUP5 PUSH2 0x4CBD JUMP JUMPDEST SWAP1 POP SWAP3 SWAP2 POP POP JUMP JUMPDEST PUSH1 0x0 DUP2 MLOAD SWAP1 POP SWAP2 SWAP1 POP JUMP JUMPDEST PUSH1 0x0 DUP3 DUP3 MSTORE PUSH1 0x20 DUP3 ADD SWAP1 POP SWAP3 SWAP2 POP POP JUMP JUMPDEST PUSH1 0x0 DUP2 SWAP1 POP PUSH1 0x20 DUP3 ADD SWAP1 POP SWAP2 SWAP1 POP JUMP JUMPDEST PUSH1 0x0 DUP2 MLOAD SWAP1 POP SWAP2 SWAP1 POP JUMP JUMPDEST PUSH1 0x0 DUP3 DUP3 MSTORE PUSH1 0x20 DUP3 ADD SWAP1 POP SWAP3 SWAP2 POP POP JUMP JUMPDEST PUSH1 0x0 JUMPDEST DUP4 DUP2 LT ISZERO PUSH2 0x4DA3 JUMPI DUP1 DUP3 ADD MLOAD DUP2 DUP5 ADD MSTORE PUSH1 0x20 DUP2 ADD SWAP1 POP PUSH2 0x4D88 JUMP JUMPDEST PUSH1 0x0 DUP5 DUP5 ADD MSTORE POP POP POP POP JUMP JUMPDEST PUSH1 0x0 PUSH2 0x4DBA DUP3 PUSH2 0x4D69 JUMP JUMPDEST PUSH2 0x4DC4 DUP2 DUP6 PUSH2 0x4D74 JUMP JUMPDEST SWAP4 POP PUSH2 0x4DD4 DUP2 DUP6 PUSH1 0x20 DUP7 ADD PUSH2 0x4D85 JUMP JUMPDEST PUSH2 0x4DDD DUP2 PUSH2 0x4A7C JUMP JUMPDEST DUP5 ADD SWAP2 POP POP SWAP3 SWAP2 POP POP JUMP JUMPDEST PUSH1 0x0 PUSH2 0x4DF4 DUP4 DUP4 PUSH2 0x4DAF JUMP JUMPDEST SWAP1 POP SWAP3 SWAP2 POP POP JUMP JUMPDEST PUSH1 0x0 PUSH1 0x20 DUP3 ADD SWAP1 POP SWAP2 SWAP1 POP JUMP JUMPDEST PUSH1 0x0 PUSH2 0x4E14 DUP3 PUSH2 0x4D3D JUMP JUMPDEST PUSH2 0x4E1E DUP2 DUP6 PUSH2 0x4D48 JUMP JUMPDEST SWAP4 POP DUP4 PUSH1 0x20 DUP3 MUL DUP6 ADD PUSH2 0x4E30 DUP6 PUSH2 0x4D59 JUMP JUMPDEST DUP1 PUSH1 0x0 JUMPDEST DUP6 DUP2 LT ISZERO PUSH2 0x4E6C JUMPI DUP5 DUP5 SUB DUP10 MSTORE DUP2 MLOAD PUSH2 0x4E4D DUP6 DUP3 PUSH2 0x4DE8 JUMP JUMPDEST SWAP5 POP PUSH2 0x4E58 DUP4 PUSH2 0x4DFC JUMP JUMPDEST SWAP3 POP PUSH1 0x20 DUP11 ADD SWAP10 POP POP PUSH1 0x1 DUP2 ADD SWAP1 POP PUSH2 0x4E34 JUMP JUMPDEST POP DUP3 SWAP8 POP DUP8 SWAP6 POP POP POP POP POP POP SWAP3 SWAP2 POP POP JUMP JUMPDEST PUSH1 0x0 PUSH1 0x20 DUP3 ADD SWAP1 POP DUP2 DUP2 SUB PUSH1 0x0 DUP4 ADD MSTORE PUSH2 0x4E98 DUP2 DUP5 PUSH2 0x4E09 JUMP JUMPDEST SWAP1 POP SWAP3 SWAP2 POP POP JUMP JUMPDEST PUSH1 0x0 DUP1 PUSH1 0x40 DUP4 DUP6 SUB SLT ISZERO PUSH2 0x4EB7 JUMPI PUSH2 0x4EB6 PUSH2 0x4A32 JUMP JUMPDEST JUMPDEST PUSH1 0x0 DUP4 ADD CALLDATALOAD PUSH8 0xFFFFFFFFFFFFFFFF DUP2 GT ISZERO PUSH2 0x4ED5 JUMPI PUSH2 0x4ED4 PUSH2 0x4A37 JUMP JUMPDEST JUMPDEST PUSH2 0x4EE1 DUP6 DUP3 DUP7 ADD PUSH2 0x4B8A JUMP JUMPDEST SWAP3 POP POP PUSH1 0x20 DUP4 ADD CALLDATALOAD PUSH8 0xFFFFFFFFFFFFFFFF DUP2 GT ISZERO PUSH2 0x4F02 JUMPI PUSH2 0x4F01 PUSH2 0x4A37 JUMP JUMPDEST JUMPDEST PUSH2 0x4F0E DUP6 DUP3 DUP7 ADD PUSH2 0x4B8A JUMP JUMPDEST SWAP2 POP POP SWAP3 POP SWAP3 SWAP1 POP JUMP JUMPDEST PUSH1 0x0 PUSH1 0x3 SWAP1 POP SWAP2 SWAP1 POP JUMP JUMPDEST PUSH1 0x0 DUP2 SWAP1 POP SWAP3 SWAP2 POP POP JUMP JUMPDEST PUSH1 0x0 DUP2 SWAP1 POP SWAP2 SWAP1 POP JUMP JUMPDEST PUSH1 0x0 DUP3 DUP3 MSTORE PUSH1 0x20 DUP3 ADD SWAP1 POP SWAP3 SWAP2 POP POP JUMP JUMPDEST PUSH1 0x0 PUSH2 0x4F54 DUP3 PUSH2 0x4D3D JUMP JUMPDEST PUSH2 0x4F5E DUP2 DUP6 PUSH2 0x4F38 JUMP JUMPDEST SWAP4 POP DUP4 PUSH1 0x20 DUP3 MUL DUP6 ADD PUSH2 0x4F70 DUP6 PUSH2 0x4D59 JUMP JUMPDEST DUP1 PUSH1 0x0 JUMPDEST DUP6 DUP2 LT ISZERO PUSH2 0x4FAC JUMPI DUP5 DUP5 SUB DUP10 MSTORE DUP2 MLOAD PUSH2 0x4F8D DUP6 DUP3 PUSH2 0x4DE8 JUMP JUMPDEST SWAP5 POP PUSH2 0x4F98 DUP4 PUSH2 0x4DFC JUMP JUMPDEST SWAP3 POP PUSH1 0x20 DUP11 ADD SWAP10 POP POP PUSH1 0x1 DUP2 ADD SWAP1 POP PUSH2 0x4F74 JUMP JUMPDEST POP DUP3 SWAP8 POP DUP8 SWAP6 POP POP POP POP POP POP SWAP3 SWAP2 POP POP JUMP JUMPDEST PUSH1 0x0 PUSH2 0x4FCA DUP4 DUP4 PUSH2 0x4F49 JUMP JUMPDEST SWAP1 POP SWAP3 SWAP2 POP POP JUMP JUMPDEST PUSH1 0x0 PUSH1 0x20 DUP3 ADD SWAP1 POP SWAP2 SWAP1 POP JUMP JUMPDEST PUSH1 0x0 PUSH2 0x4FEA DUP3 PUSH2 0x4F18 JUMP JUMPDEST PUSH2 0x4FF4 DUP2 DUP6 PUSH2 0x4F23 JUMP JUMPDEST SWAP4 POP DUP4 PUSH1 0x20 DUP3 MUL DUP6 ADD PUSH2 0x5006 DUP6 PUSH2 0x4F2E JUMP JUMPDEST DUP1 PUSH1 0x0 JUMPDEST DUP6 DUP2 LT ISZERO PUSH2 0x5042 JUMPI DUP5 DUP5 SUB DUP10 MSTORE DUP2 MLOAD PUSH2 0x5023 DUP6 DUP3 PUSH2 0x4FBE JUMP JUMPDEST SWAP5 POP PUSH2 0x502E DUP4 PUSH2 0x4FD2 JUMP JUMPDEST SWAP3 POP PUSH1 0x20 DUP11 ADD SWAP10 POP POP PUSH1 0x1 DUP2 ADD SWAP1 POP PUSH2 0x500A JUMP JUMPDEST POP DUP3 SWAP8 POP DUP8 SWAP6 POP POP POP POP POP POP SWAP3 SWAP2 POP POP JUMP JUMPDEST PUSH1 0x0 PUSH1 0x80 DUP3 ADD SWAP1 POP DUP2 DUP2 SUB PUSH1 0x0 DUP4 ADD MSTORE PUSH2 0x506E DUP2 DUP8 PUSH2 0x4FDF JUMP JUMPDEST SWAP1 POP DUP2 DUP2 SUB PUSH1 0x20 DUP4 ADD MSTORE PUSH2 0x5082 DUP2 DUP7 PUSH2 0x4CBD JUMP JUMPDEST SWAP1 POP DUP2 DUP2 SUB PUSH1 0x40 DUP4 ADD MSTORE PUSH2 0x5096 DUP2 DUP6 PUSH2 0x4CBD JUMP JUMPDEST SWAP1 POP DUP2 DUP2 SUB PUSH1 0x60 DUP4 ADD MSTORE PUSH2 0x50AA DUP2 DUP5 PUSH2 0x4E09 JUMP JUMPDEST SWAP1 POP SWAP6 SWAP5 POP POP POP POP POP JUMP JUMPDEST PUSH1 0x0 DUP1 PUSH1 0x0 PUSH1 0x60 DUP5 DUP7 SUB SLT ISZERO PUSH2 0x50CE JUMPI PUSH2 0x50CD PUSH2 0x4A32 JUMP JUMPDEST JUMPDEST PUSH1 0x0 PUSH2 0x50DC DUP7 DUP3 DUP8 ADD PUSH2 0x4A5D JUMP JUMPDEST SWAP4 POP POP PUSH1 0x20 DUP5 ADD CALLDATALOAD PUSH8 0xFFFFFFFFFFFFFFFF DUP2 GT ISZERO PUSH2 0x50FD JUMPI PUSH2 0x50FC PUSH2 0x4A37 JUMP JUMPDEST JUMPDEST PUSH2 0x5109 DUP7 DUP3 DUP8 ADD PUSH2 0x4B8A JUMP JUMPDEST SWAP3 POP POP PUSH1 0x40 DUP5 ADD CALLDATALOAD PUSH8 0xFFFFFFFFFFFFFFFF DUP2 GT ISZERO PUSH2 0x512A JUMPI PUSH2 0x5129 PUSH2 0x4A37 JUMP JUMPDEST JUMPDEST PUSH2 0x5136 DUP7 DUP3 DUP8 ADD PUSH2 0x4B8A JUMP JUMPDEST SWAP2 POP POP SWAP3 POP SWAP3 POP SWAP3 JUMP JUMPDEST PUSH1 0x0 PUSH1 0x40 DUP3 ADD SWAP1 POP DUP2 DUP2 SUB PUSH1 0x0 DUP4 ADD MSTORE PUSH2 0x515A DUP2 DUP6 PUSH2 0x4CBD JUMP JUMPDEST SWAP1 POP DUP2 DUP2 SUB PUSH1 0x20 DUP4 ADD MSTORE PUSH2 0x516E DUP2 DUP5 PUSH2 0x4CBD JUMP JUMPDEST SWAP1 POP SWAP4 SWAP3 POP POP POP JUMP JUMPDEST PUSH2 0x5180 DUP2 PUSH2 0x4A3C JUMP JUMPDEST DUP3 MSTORE POP POP JUMP JUMPDEST PUSH1 0x0 PUSH1 0x20 DUP3 ADD SWAP1 POP PUSH2 0x519B PUSH1 0x0 DUP4 ADD DUP5 PUSH2 0x5177 JUMP JUMPDEST SWAP3 SWAP2 POP POP JUMP JUMPDEST PUSH1 0x0 DUP1 PUSH1 0x0 PUSH1 0x60 DUP5 DUP7 SUB SLT ISZERO PUSH2 0x51BA JUMPI PUSH2 0x51B9 PUSH2 0x4A32 JUMP JUMPDEST JUMPDEST PUSH1 0x0 DUP5 ADD CALLDATALOAD PUSH8 0xFFFFFFFFFFFFFFFF DUP2 GT ISZERO PUSH2 0x51D8 JUMPI PUSH2 0x51D7 PUSH2 0x4A37 JUMP JUMPDEST JUMPDEST PUSH2 0x51E4 DUP7 DUP3 DUP8 ADD PUSH2 0x4B8A JUMP JUMPDEST SWAP4 POP POP PUSH1 0x20 DUP5 ADD CALLDATALOAD PUSH8 0xFFFFFFFFFFFFFFFF DUP2 GT ISZERO PUSH2 0x5205 JUMPI PUSH2 0x5204 PUSH2 0x4A37 JUMP JUMPDEST JUMPDEST PUSH2 0x5211 DUP7 DUP3 DUP8 ADD PUSH2 0x4B8A JUMP JUMPDEST SWAP3 POP POP PUSH1 0x40 DUP5 ADD CALLDATALOAD PUSH8 0xFFFFFFFFFFFFFFFF DUP2 GT ISZERO PUSH2 0x5232 JUMPI PUSH2 0x5231 PUSH2 0x4A37 JUMP JUMPDEST JUMPDEST PUSH2 0x523E DUP7 DUP3 DUP8 ADD PUSH2 0x4B8A JUMP JUMPDEST SWAP2 POP POP SWAP3 POP SWAP3 POP SWAP3 JUMP JUMPDEST PUSH1 0x0 DUP3 DUP3 MSTORE PUSH1 0x20 DUP3 ADD SWAP1 POP SWAP3 SWAP2 POP POP JUMP JUMPDEST PUSH1 0x0 PUSH2 0x5264 DUP3 PUSH2 0x4D69 JUMP JUMPDEST PUSH2 0x526E DUP2 DUP6 PUSH2 0x5248 JUMP JUMPDEST SWAP4 POP PUSH2 0x527E DUP2 DUP6 PUSH1 0x20 DUP7 ADD PUSH2 0x4D85 JUMP JUMPDEST PUSH2 0x5287 DUP2 PUSH2 0x4A7C JUMP JUMPDEST DUP5 ADD SWAP2 POP POP SWAP3 SWAP2 POP POP JUMP JUMPDEST PUSH1 0x0 PUSH1 0x40 DUP3 ADD SWAP1 POP DUP2 DUP2 SUB PUSH1 0x0 DUP4 ADD MSTORE PUSH2 0x52AC DUP2 DUP6 PUSH2 0x5259 JUMP JUMPDEST SWAP1 POP DUP2 DUP2 SUB PUSH1 0x20 DUP4 ADD MSTORE PUSH2 0x52C0 DUP2 DUP5 PUSH2 0x4CBD JUMP JUMPDEST SWAP1 POP SWAP4 SWAP3 POP POP POP JUMP JUMPDEST PUSH1 0x0 PUSH1 0x20 DUP3 DUP5 SUB SLT ISZERO PUSH2 0x52DF JUMPI PUSH2 0x52DE PUSH2 0x4A32 JUMP JUMPDEST JUMPDEST PUSH1 0x0 PUSH2 0x52ED DUP5 DUP3 DUP6 ADD PUSH2 0x4A5D JUMP JUMPDEST SWAP2 POP POP SWAP3 SWAP2 POP POP JUMP JUMPDEST PUSH1 0x0 PUSH1 0x60 DUP3 ADD SWAP1 POP DUP2 DUP2 SUB PUSH1 0x0 DUP4 ADD MSTORE PUSH2 0x5310 DUP2 DUP7 PUSH2 0x5259 JUMP JUMPDEST SWAP1 POP DUP2 DUP2 SUB PUSH1 0x20 DUP4 ADD MSTORE PUSH2 0x5324 DUP2 DUP6 PUSH2 0x4E09 JUMP JUMPDEST SWAP1 POP DUP2 DUP2 SUB PUSH1 0x40 DUP4 ADD MSTORE PUSH2 0x5338 DUP2 DUP5 PUSH2 0x4CBD JUMP JUMPDEST SWAP1 POP SWAP5 SWAP4 POP POP POP POP JUMP JUMPDEST PUSH1 0x0 PUSH1 0xC0 DUP3 ADD SWAP1 POP DUP2 DUP2 SUB PUSH1 0x0 DUP4 ADD MSTORE PUSH2 0x535C DUP2 DUP10 PUSH2 0x5259 JUMP JUMPDEST SWAP1 POP DUP2 DUP2 SUB PUSH1 0x20 DUP4 ADD MSTORE PUSH2 0x5370 DUP2 DUP9 PUSH2 0x5259 JUMP JUMPDEST SWAP1 POP DUP2 DUP2 SUB PUSH1 0x40 DUP4 ADD MSTORE PUSH2 0x5384 DUP2 DUP8 PUSH2 0x5259 JUMP JUMPDEST SWAP1 POP DUP2 DUP2 SUB PUSH1 0x60 DUP4 ADD MSTORE PUSH2 0x5398 DUP2 DUP7 PUSH2 0x5259 JUMP JUMPDEST SWAP1 POP PUSH2 0x53A7 PUSH1 0x80 DUP4 ADD DUP6 PUSH2 0x5177 JUMP JUMPDEST DUP2 DUP2 SUB PUSH1 0xA0 DUP4 ADD MSTORE PUSH2 0x53B9 DUP2 DUP5 PUSH2 0x5259 JUMP JUMPDEST SWAP1 POP SWAP8 SWAP7 POP POP POP POP POP POP POP JUMP JUMPDEST PUSH1 0x0 PUSH1 0x60 DUP3 ADD SWAP1 POP DUP2 DUP2 SUB PUSH1 0x0 DUP4 ADD MSTORE PUSH2 0x53E0 DUP2 DUP7 PUSH2 0x4FDF JUMP JUMPDEST SWAP1 POP DUP2 DUP2 SUB PUSH1 0x20 DUP4 ADD MSTORE PUSH2 0x53F4 DUP2 DUP6 PUSH2 0x4CBD JUMP JUMPDEST SWAP1 POP DUP2 DUP2 SUB PUSH1 0x40 DUP4 ADD MSTORE PUSH2 0x5408 DUP2 DUP5 PUSH2 0x4CBD JUMP JUMPDEST SWAP1 POP SWAP5 SWAP4 POP POP POP POP JUMP JUMPDEST PUSH32 0x73656E7420746F204469766973696F6E732066726F6D2044475354203A000000 DUP2 MSTORE POP JUMP JUMPDEST PUSH1 0x0 DUP2 SWAP1 POP SWAP3 SWAP2 POP POP JUMP JUMPDEST PUSH1 0x0 PUSH2 0x544E DUP3 PUSH2 0x4D69 JUMP JUMPDEST PUSH2 0x5458 DUP2 DUP6 PUSH2 0x5438 JUMP JUMPDEST SWAP4 POP PUSH2 0x5468 DUP2 DUP6 PUSH1 0x20 DUP7 ADD PUSH2 0x4D85 JUMP JUMPDEST DUP1 DUP5 ADD SWAP2 POP POP SWAP3 SWAP2 POP POP JUMP JUMPDEST PUSH1 0x0 PUSH2 0x547F DUP3 PUSH2 0x5412 JUMP JUMPDEST PUSH1 0x1D DUP3 ADD SWAP2 POP PUSH2 0x548F DUP3 DUP5 PUSH2 0x5443 JUMP JUMPDEST SWAP2 POP DUP2 SWAP1 POP SWAP3 SWAP2 POP POP JUMP JUMPDEST PUSH32 0x4E487B7100000000000000000000000000000000000000000000000000000000 PUSH1 0x0 MSTORE PUSH1 0x22 PUSH1 0x4 MSTORE PUSH1 0x24 PUSH1 0x0 REVERT JUMPDEST PUSH1 0x0 PUSH1 0x2 DUP3 DIV SWAP1 POP PUSH1 0x1 DUP3 AND DUP1 PUSH2 0x54E1 JUMPI PUSH1 0x7F DUP3 AND SWAP2 POP JUMPDEST PUSH1 0x20 DUP3 LT DUP2 SUB PUSH2 0x54F4 JUMPI PUSH2 0x54F3 PUSH2 0x549A JUMP JUMPDEST JUMPDEST POP SWAP2 SWAP1 POP JUMP JUMPDEST PUSH1 0x0 DUP2 SWAP1 POP DUP2 PUSH1 0x0 MSTORE PUSH1 0x20 PUSH1 0x0 KECCAK256 SWAP1 POP SWAP2 SWAP1 POP JUMP JUMPDEST PUSH1 0x0 PUSH1 0x20 PUSH1 0x1F DUP4 ADD DIV SWAP1 POP SWAP2 SWAP1 POP JUMP JUMPDEST PUSH1 0x0 DUP3 DUP3 SHL SWAP1 POP SWAP3 SWAP2 POP POP JUMP JUMPDEST PUSH1 0x0 PUSH1 0x8 DUP4 MUL PUSH2 0x555C PUSH32 0xFFFFFFFFFFFFFFFFFFFFFFFFFFFFFFFFFFFFFFFFFFFFFFFFFFFFFFFFFFFFFFFF DUP3 PUSH2 0x551F JUMP JUMPDEST PUSH2 0x5566 DUP7 DUP4 PUSH2 0x551F JUMP JUMPDEST SWAP6 POP DUP1 NOT DUP5 AND SWAP4 POP DUP1 DUP7 AND DUP5 OR SWAP3 POP POP POP SWAP4 SWAP3 POP POP POP JUMP JUMPDEST PUSH1 0x0 DUP2 SWAP1 POP SWAP2 SWAP1 POP JUMP JUMPDEST PUSH1 0x0 PUSH2 0x55A3 PUSH2 0x559E PUSH2 0x5599 DUP5 PUSH2 0x4A3C JUMP JUMPDEST PUSH2 0x557E JUMP JUMPDEST PUSH2 0x4A3C JUMP JUMPDEST SWAP1 POP SWAP2 SWAP1 POP JUMP JUMPDEST PUSH1 0x0 DUP2 SWAP1 POP SWAP2 SWAP1 POP JUMP JUMPDEST PUSH2 0x55BD DUP4 PUSH2 0x5588 JUMP JUMPDEST PUSH2 0x55D1 PUSH2 0x55C9 DUP3 PUSH2 0x55AA JUMP JUMPDEST DUP5 DUP5 SLOAD PUSH2 0x552C JUMP JUMPDEST DUP3 SSTORE POP POP POP POP JUMP JUMPDEST PUSH1 0x0 SWAP1 JUMP JUMPDEST PUSH2 0x55E6 PUSH2 0x55D9 JUMP JUMPDEST PUSH2 0x55F1 DUP2 DUP5 DUP5 PUSH2 0x55B4 JUMP JUMPDEST POP POP POP JUMP JUMPDEST JUMPDEST DUP2 DUP2 LT ISZERO PUSH2 0x5615 JUMPI PUSH2 0x560A PUSH1 0x0 DUP3 PUSH2 0x55DE JUMP JUMPDEST PUSH1 0x1 DUP2 ADD SWAP1 POP PUSH2 0x55F7 JUMP JUMPDEST POP POP JUMP JUMPDEST PUSH1 0x1F DUP3 GT ISZERO PUSH2 0x565A JUMPI PUSH2 0x562B DUP2 PUSH2 0x54FA JUMP JUMPDEST PUSH2 0x5634 DUP5 PUSH2 0x550F JUMP JUMPDEST DUP2 ADD PUSH1 0x20 DUP6 LT ISZERO PUSH2 0x5643 JUMPI DUP2 SWAP1 POP JUMPDEST PUSH2 0x5657 PUSH2 0x564F DUP6 PUSH2 0x550F JUMP JUMPDEST DUP4 ADD DUP3 PUSH2 0x55F6 JUMP JUMPDEST POP POP JUMPDEST POP POP POP JUMP JUMPDEST PUSH1 0x0 DUP3 DUP3 SHR SWAP1 POP SWAP3 SWAP2 POP POP JUMP JUMPDEST PUSH1 0x0 PUSH2 0x567D PUSH1 0x0 NOT DUP5 PUSH1 0x8 MUL PUSH2 0x565F JUMP JUMPDEST NOT DUP1 DUP4 AND SWAP2 POP POP SWAP3 SWAP2 POP POP JUMP JUMPDEST PUSH1 0x0 PUSH2 0x5696 DUP4 DUP4 PUSH2 0x566C JUMP JUMPDEST SWAP2 POP DUP3 PUSH1 0x2 MUL DUP3 OR SWAP1 POP SWAP3 SWAP2 POP POP JUMP JUMPDEST PUSH2 0x56AF DUP3 PUSH2 0x4D69 JUMP JUMPDEST PUSH8 0xFFFFFFFFFFFFFFFF DUP2 GT ISZERO PUSH2 0x56C8 JUMPI PUSH2 0x56C7 PUSH2 0x4A8D JUMP JUMPDEST JUMPDEST PUSH2 0x56D2 DUP3 SLOAD PUSH2 0x54C9 JUMP JUMPDEST PUSH2 0x56DD DUP3 DUP3 DUP6 PUSH2 0x5619 JUMP JUMPDEST PUSH1 0x0 PUSH1 0x20 SWAP1 POP PUSH1 0x1F DUP4 GT PUSH1 0x1 DUP2 EQ PUSH2 0x5710 JUMPI PUSH1 0x0 DUP5 ISZERO PUSH2 0x56FE JUMPI DUP3 DUP8 ADD MLOAD SWAP1 POP JUMPDEST PUSH2 0x5708 DUP6 DUP3 PUSH2 0x568A JUMP JUMPDEST DUP7 SSTORE POP PUSH2 0x5770 JUMP JUMPDEST PUSH1 0x1F NOT DUP5 AND PUSH2 0x571E DUP7 PUSH2 0x54FA JUMP JUMPDEST PUSH1 0x0 JUMPDEST DUP3 DUP2 LT ISZERO PUSH2 0x5746 JUMPI DUP5 DUP10 ADD MLOAD DUP3 SSTORE PUSH1 0x1 DUP3 ADD SWAP2 POP PUSH1 0x20 DUP6 ADD SWAP5 POP PUSH1 0x20 DUP2 ADD SWAP1 POP PUSH2 0x5721 JUMP JUMPDEST DUP7 DUP4 LT ISZERO PUSH2 0x5763 JUMPI DUP5 DUP10 ADD MLOAD PUSH2 0x575F PUSH1 0x1F DUP10 AND DUP3 PUSH2 0x566C JUMP JUMPDEST DUP4 SSTORE POP JUMPDEST PUSH1 0x1 PUSH1 0x2 DUP9 MUL ADD DUP9 SSTORE POP POP POP JUMPDEST POP POP POP POP POP POP JUMP JUMPDEST PUSH1 0x0 PUSH2 0x5784 DUP3 DUP5 PUSH2 0x5443 JUMP JUMPDEST SWAP2 POP DUP2 SWAP1 POP SWAP3 SWAP2 POP POP JUMP JUMPDEST PUSH32 0x73656E7420746F20556E6974732066726F6D204469766973696F6E203A000000 DUP2 MSTORE POP JUMP JUMPDEST PUSH1 0x0 PUSH2 0x57C0 DUP3 PUSH2 0x578F JUMP JUMPDEST PUSH1 0x1D DUP3 ADD SWAP2 POP PUSH2 0x57D0 DUP3 DUP5 PUSH2 0x5443 JUMP JUMPDEST SWAP2 POP DUP2 SWAP1 POP SWAP3 SWAP2 POP POP JUMP JUMPDEST PUSH1 0x0 DUP2 SLOAD PUSH2 0x57E8 DUP2 PUSH2 0x54C9 JUMP JUMPDEST PUSH2 0x57F2 DUP2 DUP7 PUSH2 0x5438 JUMP JUMPDEST SWAP5 POP PUSH1 0x1 DUP3 AND PUSH1 0x0 DUP2 EQ PUSH2 0x580D JUMPI PUSH1 0x1 DUP2 EQ PUSH2 0x5822 JUMPI PUSH2 0x5855 JUMP JUMPDEST PUSH1 0xFF NOT DUP4 AND DUP7 MSTORE DUP2 ISZERO ISZERO DUP3 MUL DUP7 ADD SWAP4 POP PUSH2 0x5855 JUMP JUMPDEST PUSH2 0x582B DUP6 PUSH2 0x54FA JUMP JUMPDEST PUSH1 0x0 JUMPDEST DUP4 DUP2 LT ISZERO PUSH2 0x584D JUMPI DUP2 SLOAD DUP2 DUP10 ADD MSTORE PUSH1 0x1 DUP3 ADD SWAP2 POP PUSH1 0x20 DUP2 ADD SWAP1 POP PUSH2 0x582E JUMP JUMPDEST DUP4 DUP9 ADD SWAP6 POP POP POP JUMPDEST POP POP POP SWAP3 SWAP2 POP POP JUMP JUMPDEST PUSH1 0x0 PUSH2 0x586A DUP3 DUP5 PUSH2 0x57DB JUMP JUMPDEST SWAP2 POP DUP2 SWAP1 POP SWAP3 SWAP2 POP POP JUMP JUMPDEST PUSH32 0x4E487B7100000000000000000000000000000000000000000000000000000000 PUSH1 0x0 MSTORE PUSH1 0x32 PUSH1 0x4 MSTORE PUSH1 0x24 PUSH1 0x0 REVERT JUMPDEST PUSH32 0x4E487B7100000000000000000000000000000000000000000000000000000000 PUSH1 0x0 MSTORE PUSH1 0x11 PUSH1 0x4 MSTORE PUSH1 0x24 PUSH1 0x0 REVERT JUMPDEST PUSH1 0x0 PUSH2 0x58DE DUP3 PUSH2 0x4A3C JUMP JUMPDEST SWAP2 POP PUSH32 0xFFFFFFFFFFFFFFFFFFFFFFFFFFFFFFFFFFFFFFFFFFFFFFFFFFFFFFFFFFFFFFFF DUP3 SUB PUSH2 0x5910 JUMPI PUSH2 0x590F PUSH2 0x58A4 JUMP JUMPDEST JUMPDEST PUSH1 0x1 DUP3 ADD SWAP1 POP SWAP2 SWAP1 POP JUMP JUMPDEST PUSH32 0x4163636570746564206279203A00000000000000000000000000000000000000 DUP2 MSTORE POP JUMP JUMPDEST PUSH1 0x0 PUSH2 0x594C DUP3 PUSH2 0x591B JUMP JUMPDEST PUSH1 0xD DUP3 ADD SWAP2 POP PUSH2 0x595C DUP3 DUP5 PUSH2 0x5443 JUMP JUMPDEST SWAP2 POP DUP2 SWAP1 POP SWAP3 SWAP2 POP POP JUMP JUMPDEST PUSH1 0x0 PUSH2 0x5972 DUP3 PUSH2 0x4A3C JUMP JUMPDEST SWAP2 POP PUSH2 0x597D DUP4 PUSH2 0x4A3C JUMP JUMPDEST SWAP3 POP DUP3 DUP3 SUB SWAP1 POP DUP2 DUP2 GT ISZERO PUSH2 0x5995 JUMPI PUSH2 0x5994 PUSH2 0x58A4 JUMP JUMPDEST JUMPDEST SWAP3 SWAP2 POP POP JUMP JUMPDEST PUSH32 0x4E487B7100000000000000000000000000000000000000000000000000000000 PUSH1 0x0 MSTORE PUSH1 0x31 PUSH1 0x4 MSTORE PUSH1 0x24 PUSH1 0x0 REVERT JUMPDEST PUSH32 0x73656E7420746F20444753542066726F6D204469766973696F6E203A00000000 DUP2 MSTORE POP JUMP JUMPDEST PUSH1 0x0 PUSH2 0x59FB DUP3 PUSH2 0x59CA JUMP JUMPDEST PUSH1 0x1C DUP3 ADD SWAP2 POP PUSH2 0x5A0B DUP3 DUP5 PUSH2 0x5443 JUMP JUMPDEST SWAP2 POP DUP2 SWAP1 POP SWAP3 SWAP2 POP POP JUMP JUMPDEST PUSH32 0x6163636570746564000000000000000000000000000000000000000000000000 PUSH1 0x0 DUP3 ADD MSTORE POP JUMP JUMPDEST PUSH1 0x0 PUSH2 0x5A4C PUSH1 0x8 DUP4 PUSH2 0x5438 JUMP JUMPDEST SWAP2 POP PUSH2 0x5A57 DUP3 PUSH2 0x5A16 JUMP JUMPDEST PUSH1 0x8 DUP3 ADD SWAP1 POP SWAP2 SWAP1 POP JUMP JUMPDEST PUSH1 0x0 PUSH2 0x5A6D DUP3 PUSH2 0x5A3F JUMP JUMPDEST SWAP2 POP DUP2 SWAP1 POP SWAP2 SWAP1 POP JUMP JUMPDEST PUSH32 0x70656E64696E6700000000000000000000000000000000000000000000000000 PUSH1 0x0 DUP3 ADD MSTORE POP JUMP JUMPDEST PUSH1 0x0 PUSH2 0x5AAD PUSH1 0x7 DUP4 PUSH2 0x5438 JUMP JUMPDEST SWAP2 POP PUSH2 0x5AB8 DUP3 PUSH2 0x5A77 JUMP JUMPDEST PUSH1 0x7 DUP3 ADD SWAP1 POP SWAP2 SWAP1 POP JUMP JUMPDEST PUSH1 0x0 PUSH2 0x5ACE DUP3 PUSH2 0x5AA0 JUMP JUMPDEST SWAP2 POP DUP2 SWAP1 POP SWAP2 SWAP1 POP JUMP INVALID LOG2 PUSH5 0x6970667358 0x22 SLT KECCAK256 PUSH10 0x3976D7FB16688CAE7A47 0xE5 PUSH12 0xC6D2E599C71B19636EBBB800 PUSH15 0x87F56F6C049564736F6C6343000812 STOP CALLER "
		},
		"gasEstimates": {
			"creation": {
				"codeDepositCost": "4662000",
				"executionCost": "5462",
				"totalCost": "4667462"
			},
			"external": {
				"AcceptedbyRequest(string)": "infinite",
				"DDGSTinfo(string)": "infinite",
				"DDSTgetAccepted(string)": "infinite",
				"DGSTaccept(uint256,string,string)": "infinite",
				"DGSTacceptedbyDDST(string)": "infinite",
				"addADST(string,string)": "infinite",
				"addDDST(string,string)": "infinite",
				"getADSTrequest(string,string,string)": "infinite",
				"getADSTs_underMe(string)": "infinite",
				"getAccepted(string)": "infinite",
				"getAcceptedByDgst(string,string)": "infinite",
				"getAcceptedDDST(string)": "infinite",
				"getAcceptedFromDgst(string)": "infinite",
				"getCurrentId()": "2483",
				"getDDSTs_underMe(string)": "infinite",
				"getDetailsById(uint256)": "infinite",
				"getPending(string)": "infinite",
				"getSentToASC(string)": "infinite",
				"getSentToDivisions(string)": "infinite",
				"getSentToUnits(string)": "infinite",
				"getTracking(uint256)": "infinite",
				"grtPendingDDST(string)": "infinite",
				"myDDST(string)": "infinite",
				"myDGST(string)": "infinite",
				"sendToDivisions(uint256,string)": "infinite",
				"sendToUnits(uint256,string)": "infinite",
				"sendtoASC(uint256,string)": "infinite",
				"updateStatus(uint256,string,string)": "infinite"
			}
		},
		"methodIdentifiers": {
			"AcceptedbyRequest(string)": "38d20ee8",
			"DDGSTinfo(string)": "dd78c857",
			"DDSTgetAccepted(string)": "3682001e",
			"DGSTaccept(uint256,string,string)": "597cf6f0",
			"DGSTacceptedbyDDST(string)": "31c68d1b",
			"addADST(string,string)": "ac6d31a2",
			"addDDST(string,string)": "48b57344",
			"getADSTrequest(string,string,string)": "a849f279",
			"getADSTs_underMe(string)": "6252e65c",
			"getAccepted(string)": "880c5b30",
			"getAcceptedByDgst(string,string)": "5c37a007",
			"getAcceptedDDST(string)": "fbcc2935",
			"getAcceptedFromDgst(string)": "2b5f134a",
			"getCurrentId()": "6c143862",
			"getDDSTs_underMe(string)": "470c96ce",
			"getDetailsById(uint256)": "ba649f4e",
			"getPending(string)": "cb89cdfd",
			"getSentToASC(string)": "d93ed80f",
			"getSentToDivisions(string)": "6b66cc2c",
			"getSentToUnits(string)": "9170d034",
			"getTracking(uint256)": "ac785e39",
			"grtPendingDDST(string)": "4ba4ee74",
			"myDDST(string)": "a9ede870",
			"myDGST(string)": "c30f4a25",
			"sendToDivisions(uint256,string)": "15d05be7",
			"sendToUnits(uint256,string)": "2a598cc6",
			"sendtoASC(uint256,string)": "5af1438a",
			"updateStatus(uint256,string,string)": "b49dbfc2"
		}
	},
	"abi": [
		{
			"inputs": [
				{
					"internalType": "string",
					"name": "email",
					"type": "string"
				}
			],
			"name": "AcceptedbyRequest",
			"outputs": [
				{
					"internalType": "uint256[]",
					"name": "",
					"type": "uint256[]"
				}
			],
			"stateMutability": "view",
			"type": "function"
		},
		{
			"inputs": [
				{
					"internalType": "string",
					"name": "ddst_email",
					"type": "string"
				}
			],
			"name": "DDGSTinfo",
			"outputs": [
				{
					"internalType": "string",
					"name": "",
					"type": "string"
				},
				{
					"internalType": "uint256[]",
					"name": "",
					"type": "uint256[]"
				}
			],
			"stateMutability": "view",
			"type": "function"
		},
		{
			"inputs": [
				{
					"internalType": "string",
					"name": "DDST_mail",
					"type": "string"
				}
			],
			"name": "DDSTgetAccepted",
			"outputs": [
				{
					"internalType": "uint256[]",
					"name": "",
					"type": "uint256[]"
				}
			],
			"stateMutability": "view",
			"type": "function"
		},
		{
			"inputs": [
				{
					"internalType": "uint256",
					"name": "id",
					"type": "uint256"
				},
				{
					"internalType": "string",
					"name": "dgst_email",
					"type": "string"
				},
				{
					"internalType": "string",
					"name": "ddst_email",
					"type": "string"
				}
			],
			"name": "DGSTaccept",
			"outputs": [],
			"stateMutability": "nonpayable",
			"type": "function"
		},
		{
			"inputs": [
				{
					"internalType": "string",
					"name": "ddst_email",
					"type": "string"
				}
			],
			"name": "DGSTacceptedbyDDST",
			"outputs": [
				{
					"internalType": "uint256[]",
					"name": "",
					"type": "uint256[]"
				}
			],
			"stateMutability": "view",
			"type": "function"
		},
		{
			"inputs": [
				{
					"internalType": "string",
					"name": "userId",
					"type": "string"
				},
				{
					"internalType": "string",
					"name": "_ourDDST",
					"type": "string"
				}
			],
			"name": "addADST",
			"outputs": [],
			"stateMutability": "nonpayable",
			"type": "function"
		},
		{
			"inputs": [
				{
					"internalType": "string",
					"name": "userId",
					"type": "string"
				},
				{
					"internalType": "string",
					"name": "_ourDGST",
					"type": "string"
				}
			],
			"name": "addDDST",
			"outputs": [],
			"stateMutability": "nonpayable",
			"type": "function"
		},
		{
			"inputs": [
				{
					"internalType": "string",
					"name": "_items",
					"type": "string"
				},
				{
					"internalType": "string",
					"name": "_quantity",
					"type": "string"
				},
				{
					"internalType": "string",
					"name": "_email",
					"type": "string"
				}
			],
			"name": "getADSTrequest",
			"outputs": [],
			"stateMutability": "nonpayable",
			"type": "function"
		},
		{
			"inputs": [
				{
					"internalType": "string",
					"name": "ddst_email",
					"type": "string"
				}
			],
			"name": "getADSTs_underMe",
			"outputs": [
				{
					"internalType": "string[]",
					"name": "",
					"type": "string[]"
				}
			],
			"stateMutability": "view",
			"type": "function"
		},
		{
			"inputs": [
				{
					"internalType": "string",
					"name": "_email",
					"type": "string"
				}
			],
			"name": "getAccepted",
			"outputs": [
				{
					"internalType": "string[][3]",
					"name": "",
					"type": "string[][3]"
				},
				{
					"internalType": "uint256[]",
					"name": "",
					"type": "uint256[]"
				},
				{
					"internalType": "uint256[]",
					"name": "",
					"type": "uint256[]"
				},
				{
					"internalType": "string[]",
					"name": "",
					"type": "string[]"
				}
			],
			"stateMutability": "view",
			"type": "function"
		},
		{
			"inputs": [
				{
					"internalType": "string",
					"name": "dgst_email",
					"type": "string"
				},
				{
					"internalType": "string",
					"name": "ddst_email",
					"type": "string"
				}
			],
			"name": "getAcceptedByDgst",
			"outputs": [
				{
					"internalType": "uint256[]",
					"name": "",
					"type": "uint256[]"
				},
				{
					"internalType": "uint256[]",
					"name": "",
					"type": "uint256[]"
				}
			],
			"stateMutability": "view",
			"type": "function"
		},
		{
			"inputs": [
				{
					"internalType": "string",
					"name": "_email",
					"type": "string"
				}
			],
			"name": "getAcceptedDDST",
			"outputs": [
				{
					"internalType": "string[][3]",
					"name": "",
					"type": "string[][3]"
				},
				{
					"internalType": "uint256[]",
					"name": "",
					"type": "uint256[]"
				},
				{
					"internalType": "uint256[]",
					"name": "",
					"type": "uint256[]"
				},
				{
					"internalType": "string[]",
					"name": "",
					"type": "string[]"
				}
			],
			"stateMutability": "view",
			"type": "function"
		},
		{
			"inputs": [
				{
					"internalType": "string",
					"name": "ddst_email",
					"type": "string"
				}
			],
			"name": "getAcceptedFromDgst",
			"outputs": [
				{
					"internalType": "uint256[]",
					"name": "",
					"type": "uint256[]"
				}
			],
			"stateMutability": "view",
			"type": "function"
		},
		{
			"inputs": [],
			"name": "getCurrentId",
			"outputs": [
				{
					"internalType": "uint256",
					"name": "",
					"type": "uint256"
				}
			],
			"stateMutability": "view",
			"type": "function"
		},
		{
			"inputs": [
				{
					"internalType": "string",
					"name": "dgst_email",
					"type": "string"
				}
			],
			"name": "getDDSTs_underMe",
			"outputs": [
				{
					"internalType": "string[]",
					"name": "",
					"type": "string[]"
				}
			],
			"stateMutability": "view",
			"type": "function"
		},
		{
			"inputs": [
				{
					"internalType": "uint256",
					"name": "id",
					"type": "uint256"
				}
			],
			"name": "getDetailsById",
			"outputs": [
				{
					"internalType": "string",
					"name": "",
					"type": "string"
				},
				{
					"internalType": "string",
					"name": "",
					"type": "string"
				},
				{
					"internalType": "string",
					"name": "",
					"type": "string"
				},
				{
					"internalType": "string",
					"name": "",
					"type": "string"
				},
				{
					"internalType": "uint256",
					"name": "",
					"type": "uint256"
				},
				{
					"internalType": "string",
					"name": "",
					"type": "string"
				}
			],
			"stateMutability": "view",
			"type": "function"
		},
		{
			"inputs": [
				{
					"internalType": "string",
					"name": "_email",
					"type": "string"
				}
			],
			"name": "getPending",
			"outputs": [
				{
					"internalType": "string[][3]",
					"name": "",
					"type": "string[][3]"
				},
				{
					"internalType": "uint256[]",
					"name": "",
					"type": "uint256[]"
				},
				{
					"internalType": "uint256[]",
					"name": "",
					"type": "uint256[]"
				}
			],
			"stateMutability": "view",
			"type": "function"
		},
		{
			"inputs": [
				{
					"internalType": "string",
					"name": "_ddstemail",
					"type": "string"
				}
			],
			"name": "getSentToASC",
			"outputs": [
				{
					"internalType": "uint256[]",
					"name": "",
					"type": "uint256[]"
				}
			],
			"stateMutability": "view",
			"type": "function"
		},
		{
			"inputs": [
				{
					"internalType": "string",
					"name": "DGST_email",
					"type": "string"
				}
			],
			"name": "getSentToDivisions",
			"outputs": [
				{
					"internalType": "uint256[]",
					"name": "",
					"type": "uint256[]"
				}
			],
			"stateMutability": "view",
			"type": "function"
		},
		{
			"inputs": [
				{
					"internalType": "string",
					"name": "_ddstemail",
					"type": "string"
				}
			],
			"name": "getSentToUnits",
			"outputs": [
				{
					"internalType": "uint256[]",
					"name": "",
					"type": "uint256[]"
				}
			],
			"stateMutability": "view",
			"type": "function"
		},
		{
			"inputs": [
				{
					"internalType": "uint256",
					"name": "id",
					"type": "uint256"
				}
			],
			"name": "getTracking",
			"outputs": [
				{
					"internalType": "string",
					"name": "",
					"type": "string"
				},
				{
					"internalType": "string[]",
					"name": "",
					"type": "string[]"
				},
				{
					"internalType": "uint256[]",
					"name": "",
					"type": "uint256[]"
				}
			],
			"stateMutability": "view",
			"type": "function"
		},
		{
			"inputs": [
				{
					"internalType": "string",
					"name": "_email",
					"type": "string"
				}
			],
			"name": "grtPendingDDST",
			"outputs": [
				{
					"internalType": "string[][3]",
					"name": "",
					"type": "string[][3]"
				},
				{
					"internalType": "uint256[]",
					"name": "",
					"type": "uint256[]"
				},
				{
					"internalType": "uint256[]",
					"name": "",
					"type": "uint256[]"
				},
				{
					"internalType": "string[]",
					"name": "",
					"type": "string[]"
				}
			],
			"stateMutability": "view",
			"type": "function"
		},
		{
			"inputs": [
				{
					"internalType": "string",
					"name": "_email",
					"type": "string"
				}
			],
			"name": "myDDST",
			"outputs": [
				{
					"internalType": "string",
					"name": "",
					"type": "string"
				},
				{
					"internalType": "uint256[]",
					"name": "",
					"type": "uint256[]"
				}
			],
			"stateMutability": "view",
			"type": "function"
		},
		{
			"inputs": [
				{
					"internalType": "string",
					"name": "ddst_email",
					"type": "string"
				}
			],
			"name": "myDGST",
			"outputs": [
				{
					"internalType": "string",
					"name": "",
					"type": "string"
				},
				{
					"internalType": "uint256[]",
					"name": "",
					"type": "uint256[]"
				}
			],
			"stateMutability": "view",
			"type": "function"
		},
		{
			"inputs": [
				{
					"internalType": "uint256",
					"name": "id",
					"type": "uint256"
				},
				{
					"internalType": "string",
					"name": "dgst_email",
					"type": "string"
				}
			],
			"name": "sendToDivisions",
			"outputs": [],
			"stateMutability": "nonpayable",
			"type": "function"
		},
		{
			"inputs": [
				{
					"internalType": "uint256",
					"name": "id",
					"type": "uint256"
				},
				{
					"internalType": "string",
					"name": "ddst_email",
					"type": "string"
				}
			],
			"name": "sendToUnits",
			"outputs": [],
			"stateMutability": "nonpayable",
			"type": "function"
		},
		{
			"inputs": [
				{
					"internalType": "uint256",
					"name": "id",
					"type": "uint256"
				},
				{
					"internalType": "string",
					"name": "ddst_email",
					"type": "string"
				}
			],
			"name": "sendtoASC",
			"outputs": [],
			"stateMutability": "nonpayable",
			"type": "function"
		},
		{
			"inputs": [
				{
					"internalType": "uint256",
					"name": "id",
					"type": "uint256"
				},
				{
					"internalType": "string",
					"name": "ddst_email",
					"type": "string"
				},
				{
					"internalType": "string",
					"name": "email",
					"type": "string"
				}
			],
			"name": "updateStatus",
			"outputs": [],
			"stateMutability": "nonpayable",
			"type": "function"
		}
	]
}